:100000000C944C020C9490020C9490020C9490026C
:100010000C9490020C9490020C9490020C94900218
:100020000C9490020C9490020C94CA070C949A08B9
:100030000C94AC180C9490020C9490020C949002C6
:100040000C9490020C942C040C9490020C9490024A
:100050000C9490020C9413190C9490020C9490023E
:100060000C9490020C9490020C9490020C949002C8
:100070000C9490020C9490020C9490020C949002B8
:100080000C9490020C9490020C9490020C949002A8
:100090000C9490020C9490020C9490020C94900298
:1000A0000C9490020C9490020C949002020A240A80
:1000B000100B240A100B660A8A0A100BDF0AF20AD8
:1000C000DC0DDC0D0A0E0A0E5F0E9B0EF610F6100C
:1000D000B30EF610AA0FAA0F66107A10F610E410ED
:1000E000301E481E131E111E111EB71E111E111E9A
:1000F0005F1E111E691E7B1E111E111E111E111E78
:10010000B71EB71E111EB71E111E551E111E111E41
:10011000A41EA41EA41EA41EA41EA41EA41EA41ECF
:10012000A41E9F1E111E9F1E111E111E111E111EA8
:10013000111E111E111E111E111E111E111E9F1EB9
:10014000111E111EB71E1A1EA61EA61EA61EA61E34
:10015000A61EA61EA61EA61EA61EA61EA61EA61E7F
:10016000841E111E3A1EF1A100D100D200D0291E1A
:100170001F20212223242526272D2E2A2B141A085E
:1001800015171C180C12132F303139041607090AE1
:100190000B0D0E0F33340028E1001D1B061905114D
:1001A0001036373800E5E0E3E200002C00000000E4
:1001B000E6E7C0E4353A3B3C3D3E3F4041424344E4
:1001C000454C010152010101B20149014647480174
:1001D0000150514F0101010101014A4B0001010091
:1001E0000165C1C2C3AAA9A84D4E000101010100C9
:1001F00000010000000001010101000000000101F8
:10020000010202030405050607090A0B0C0E0F1173
:1002100012141517191B1D1F212325282A2C2F31D5
:100220003436393B3E414346494C4F5255585A5D4E
:100230006164676A6D707376797C7F8386898C8F41
:100240009295989B9EA2A5A7AAADB0B3B6B9BCBE25
:10025000C1C4C6C9CBCED0D3D5D7DADCDEE0E2E468
:10026000E6E8EAEBEDEEF0F1F3F4F5F6F8F9FAFA78
:10027000FBFCFDFDFEFEFEFFFFFFFFFFFFFFFEFE9E
:10028000FEFDFDFCFBFAFAF9F8F6F5F4F3F1F0EEF9
:10029000EDEBEAE8E6E4E2E0DEDCDAD7D5D3D0CE77
:1002A000CBC9C6C4C1BEBCB9B6B3B0ADAAA7A5A2DE
:1002B0009E9B9895928F8C898683807C79767370CB
:1002C0006D6A6764615D5A5855524F4C49464341C7
:1002D0003E3B393634312F2C2A282523211F1D1B64
:1002E0001917151412110F0E0C0B0A090706050534
:1002F000040302020101010000000A034700480054
:1003000036003000000012036700650065006B00D6
:100310006800610063006B00000004030904090227
:100320006D00040100A03209040000010301010076
:10033000092111010001223F000705810308000A7D
:100340000904010001030102000921110100012239
:100350004D000705820308000A090402000103009A
:10036000000009211101000122360007058303085E
:10037000000A090403000103000000092111010023
:100380000122390007058403100001120110010049
:10039000000008EDFE606001000102000105010996
:1003A00006A101050719E029E71500250195087543
:1003B000018102050819012905950575019102952C
:1003C000017503910105071900297715002501958D
:1003D0007875018102C005010980A101850216011D
:1003E0000026B7001A01002AB70075109501810098
:1003F000C0050C0901A1018503160100269C021A03
:1004000001002A9C02751095018100C005010902B6
:10041000A1010901A10005091901290515002501FE
:10042000950575018102950175038101050109306A
:1004300009311581257F95027508810609381581D6
:10044000257F950175088106050C0A38021581255E
:100450007F950175088106C0C005010906A1010547
:100460000719E029E7150025019508750181029516
:100470000175088101050819012905950575019186
:10048000029501750391010507190029FF15002543
:10049000FF950675088100C011241FBECFEFDAE07A
:1004A000DEBFCDBF04B603FE24C08091E70190916A
:1004B000E801A091E901B091EA018730904BA74093
:1004C000B04BB9F41092E7011092E8011092E901E3
:1004D0001092EA0114BE84B7877F84BF88E10FB60B
:1004E000F89480936000109260000FBEE0E0F8E3A3
:1004F000099511E0A0E0B1E0E0EDF2E402C0059062
:100500000D92A633B107D9F711E0A6E3B1E001C01F
:100510001D92A73EB107E1F70E9423060C946621C5
:100520000C940000089508959EE0799FF001112435
:1005300096E4899FE00DF11D1124E60FF11DE259AB
:10054000FE4F84910895E82FF0E0EE0FFF1FEA516F
:10055000F0408591949108958AB18C7D8AB98BB1D0
:100560008C7D8BB980B38F7380BB81B38F7381BB5C
:10057000089580E885BF85BF0E94AC0280B38C7F60
:1005800080BB81B3836081BB6E98769A8AB18F728B
:100590008AB98BB1806D8BB987B18F7387B988B1F8
:1005A000806C88B984B1847484B985B18B6B85B94A
:1005B000E0E4F1E0A6E3B1E0119211921D921D92E8
:1005C00081E0EA34F807C1F70895FF920F931F9373
:1005D000CF93DF93C6E3D1E010E001E0A5E0FA2E6F
:1005E000123071F018F4113041F004C0133059F09A
:1005F000143061F0509A58980BC0519A599808C01D
:10060000869A8E9805C0879A8F9802C0559A5D98F1
:1006100080EA8A95F1F72FB12170202730E0799B8D
:1006200003C080E090E002C082E090E0282B392BEC
:10063000669B03C080E090E002C084E090E0282B3D
:10064000392B86B1992787FD9095809590958827BD
:10065000990F881F9927F3E0880F991FFA95E1F702
:10066000282B392B369B03C080E090E002C080E14C
:1006700090E0282B392B83B1992787FD90958095A1
:1006800090958827990F881F992775E0880F991FE3
:100690007A95E1F7282B392B4C9B03C060E070E082
:1006A00002C060E470E0262B372B199B03C060E08A
:1006B00070E002C060E870E0262B372B189B03C067
:1006C00040E050E002C040E051E0242B352B1D9B60
:1006D00003C080E090E002C080E092E0282B392B3C
:1006E0001C9B03C080E090E002C080E094E0282BD7
:1006F000392B89B1992787FD90958095909588270A
:10070000990F881F9927982F8827990F990F990F6C
:10071000282B392B4E9B03C080E090E002C080E084
:1007200090E1282B392B1B9B03C080E090E002C096
:1007300080E090E2282B392B8881998182179307DA
:1007400021F039832883F09200010E94AC021F5FE0
:100750002296153009F044CF809100018823C1F022
:10076000815080930001882339F08FE99FE0019741
:10077000F1F700C000000CC0A0E4B1E0E6E3F1E056
:10078000819191918D939D9391E0E034F907C1F7A8
:1007900081E0DF91CF911F910F91FF900895E82F95
:1007A000F0E0EE0FFF1FE05CFE4F80819181089525
:1007B000089581FF02C0229A01C022982A980895C4
:1007C00080914D01811116C081E080934D0180918F
:1007D0008100886080938100809181008160809396
:1007E00081008FB7F89493E09093890090ED9093F7
:1007F00088008FBF08952E9A08952E980895EFE6E9
:10080000F0E0808182608083089582E080934C01D3
:10081000269A0E94E0030C94FF0380914C018130E2
:1008200011F485E516C0823089F480914A018F5F0A
:1008300080934A01E82FF0E0E650FE4FE491E09308
:100840004B018F3F41F410924A010895833019F40F
:100850008FEF80934B0108951F920F920FB60F9266
:1008600011242F933F934F935F936F937F938F93B5
:100870009F93AF93BF93EF93FF9380914E018F5F50
:1008800080934E0190910201891306C010924E018F
:100890000E94FB030E940D0490914E0180914B0138
:1008A000981302C00E94FD03FF91EF91BF91AF9199
:1008B0009F918F917F916F915F914F913F912F9178
:1008C0000F900FBE0F901F901895809160010895B2
:1008D000CF93DF9300D01F92CDB7DEB72091DD011B
:1008E000243019F523E029839B838A832093E90030
:1008F0008FEF9091E800815095FD06C095ED9A9597
:10090000F1F700008111F5CF8091E80085FF0DC05F
:1009100040E050E063E070E0CE0101960E94D6080E
:100920008091E8008E778093E8000F900F900F90F1
:10093000DF91CF910895CF93DF9300D01F92CDB771
:10094000DEB72091DD01243021F522E029839B834D
:100950008A8383E08093E9008FEF9091E8008150D3
:1009600095FD06C095ED9A95F1F700008111F5CF40
:100970008091E80085FF0DC040E050E063E070E04A
:10098000CE0101960E94D6088091E8008E77809370
:10099000E8000F900F900F90DF91CF910895209174
:1009A000DD012430F1F422E02093E9002FEF3091B3
:1009B000E800215035FD06C035ED3A95F1F700000D
:1009C0002111F5CF2091E80025FF0BC040E050E059
:1009D00065E070E00E94D6088091E8008E778093F1
:1009E000E8000895CF93DF93EC018091DD0184301E
:1009F00009F042C090910E019923B9F08093E9006B
:100A00008FEF9091E800815095FD06C095E19A9591
:100A1000F1F700008111F5CF8091E80085FF2CC02F
:100A200040E050E060E170E017C081E08093E900B1
:100A30008FEF9091E800815095FD06C095ED9A9555
:100A4000F1F700008111F5CF8091E80085FF14C017
:100A500040E050E068E070E0CE010E94D60880914E
:100A6000E8008E778093E80080E1FE01A0E5B1E028
:100A700001900D928A95E1F7DF91CF9108958091D1
:100A8000DC01811109C00E9454070E94B1078091C6
:100A9000E20084608093E20008951092DC010895E2
:100AA00008950C9493020C94A818089542E061EC08
:100AB00081E00E94CE0642E061EC82E00E94CE0618
:100AC00042E061EC83E00E94CE0642E161EC84E00A
:100AD0000C94CE068091DF01833009F455C030F4C8
:100AE000813071F0823009F495C008958A3009F49C
:100AF00081C08B3009F460C0893009F0A3C020C0E8
:100B00008091DE01813A09F09DC08091E800877FE5
:100B10008093E8008091E2019091E301892B21F01C
:100B200060E080E090E003C060E180E591E070E08B
:100B30000E941F098091E8008B778093E800089558
:100B40008091DE01813209F07DC08091E2019091B7
:100B5000E301009719F0039709F074C08091E80051
:100B6000877F8093E8008091E80082FD05C0809136
:100B7000DD018111F8CF66C08091F10080936001A2
:100B80008091E8008B775AC08091DE01813A09F0AC
:100B900059C08091E2019091E301892B09F052C084
:100BA0008091E800877F8093E8008091E80080FFD3
:100BB000FCCF80910D013DC08091DE01813209F0B2
:100BC00041C08091E2019091E301892BD9F5809198
:100BD000E800877F8093E8000E9403079091E0017E
:100BE00081E0911101C080E080930D0180930E019E
:100BF0000C9417118091DE01813221F58091E8007B
:100C0000877F8093E8000E9403078091E101809331
:100C10004F0108958091DE01813AA1F48091E800AE
:100C2000877F8093E8008091E80080FFFCCF80916F
:100C30004F018093F1008091E8008E778093E80067
:100C40000C940307089584B7877F84BF88E10FB6AB
:100C5000F89480936000109260000FBE90E080E8EE
:100C60000FB6F89480936100909361000FBE0E94CC
:100C700054070E94B1078091E20084608093E200F3
:100C800078948091DD018430E1F70E94810B83E04C
:100C900091E00E94290B8091DD01853069F40E946A
:100CA0006D188091DB018823B1F30E94931888238B
:100CB00091F30E94B806EFCF0E94890BECCF292F49
:100CC000332723303105A9F06CF42130310509F4C4
:100CD00042C02230310509F043C08DE690E02EE19C
:100CE00033E042C021323105C9F02232310519F119
:100CF00037C099278130910541F08230910541F04C
:100D0000892B71F5EAE1F3E005C0E6E0F3E002C00B
:100D1000EAEFF2E0849190E09F0126C0643000F594
:100D2000E62FF0E0EE0FFF1FED5DFE4F20813181D9
:100D300089E090E019C0643098F4E62FF0E0DF011C
:100D4000AA0FBB1FA55EBE4F2D913C91E95EFE4FE1
:100D5000808190E009C082E190E02BE833E004C09C
:100D600080E090E020E030E0FA01318320830895B4
:100D700080E189BD82E189BD09B400FEFDCF80918B
:100D8000D8008F7D8093D8008091E00082608093AE
:100D9000E0008091E00081FDFCCF0895982F97300E
:100DA00058F59093E900981739F07091EC00209174
:100DB000ED005091F00003C0242F762F50E021FF6A
:100DC00019C03091EB003E7F3093EB003091ED0085
:100DD0003D7F3093ED003091EB0031603093EB00BC
:100DE0007093EC002093ED005093F0002091EE0002
:100DF00027FF07C09F5FD3CF8F708093E90081E00A
:100E0000089580E008958091DE0187FD05C08091FE
:100E1000E80080FF0EC012C08091E80082FD05C08E
:100E20008091DD018111F8CF08958091E8008B77E2
:100E300008C08091DD018111EACF08958091E8001A
:100E40008E778093E80008958091E4009091E5000A
:100E500045E62091EC0020FF21C02091E80020FD14
:100E600021C02091DD01222389F0253089F02091D5
:100E7000EB0025FD0FC02091E4003091E50028171C
:100E8000390739F3415041F0C901E3CF82E00895B9
:100E900083E0089581E0089584E008952091E800BA
:100EA00022FFDFCF80E008950E94BD070E94C507A2
:100EB000E0EEF0E0808181608083E8EDF0E0808109
:100EC0008F77808319BCA7EDB0E08C918E7F8C93D7
:100ED00080818F7E80831092DC0108950F931F9391
:100EE000CF93DF930E94BD070E94C507C8EDD0E0F5
:100EF00088818F77888388818068888388818F7DC7
:100F0000888319BC1092DD011092D9011092DB0187
:100F10001092DA0100EE10E0F80180818B7F80836F
:100F200088818160888342E060E080E00E94CE0694
:100F3000E1EEF0E080818E7F8083E2EEF0E0808160
:100F400081608083808188608083F80180818E7FCA
:100F50008083888180618883DF91CF911F910F9179
:100F60000895E7EDF0E080818160808384E082BFB6
:100F700081E08093DC010C946E07E8EDF0E0808165
:100F80008E7F80831092E20008951092DA00109212
:100F9000E10008951F920F920FB60F9211242F9324
:100FA0003F934F935F936F937F938F939F93AF93F1
:100FB000BF93EF93FF938091E10082FF0BC080917C
:100FC000E20082FF07C08091E1008B7F8093E10007
:100FD0000E9455058091DA0080FF1FC08091D800E3
:100FE00080FF1BC08091DA008E7F8093DA008091B1
:100FF000D90080FF0DC080E189BD82E189BD09B4BF
:1010000000FEFDCF81E08093DD010E943F0505C019
:1010100019BC1092DD010E944D058091E10080FF16
:1010200019C08091E20080FF15C08091E2008E7FA0
:101030008093E2008091E20080618093E2008091E1
:10104000D80080628093D80019BC85E08093DD01D0
:101050000E9451058091E10084FF2EC08091E20042
:1010600084FF2AC080E189BD82E189BD09B400FE08
:10107000FDCF8091D8008F7D8093D8008091E100D2
:101080008F7E8093E1008091E2008F7E8093E2006A
:101090008091E20081608093E2008091D90181110A
:1010A00004C08091E30087FF02C084E001C081E0BA
:1010B0008093DD010E9453058091E10083FF29C0E8
:1010C0008091E20083FF25C08091E100877F8093BB
:1010D000E10082E08093DD011092D9018091E1006E
:1010E0008E7F8093E1008091E2008E7F8093E2000A
:1010F0008091E20080618093E20042E060E080E065
:101100000E94CE068091F00088608093F0000E94DB
:101110005005FF91EF91BF91AF919F918F917F917A
:101120006F915F914F913F912F910F900FBE0F9054
:101130001F9018951F920F920FB60F9211242F93A4
:101140003F934F935F936F937F938F939F93AF934F
:10115000BF93CF93EF93FF93C091E900CF7080913D
:10116000EC001092E9008091F000877F8093F000FE
:1011700078940E94D8091092E9008091F00088606C
:101180008093F000C093E900FF91EF91CF91BF9160
:10119000AF919F918F917F916F915F914F913F910F
:1011A0002F910F900FBE0F901F901895CF92DF9246
:1011B000EF92FF920F931F93CF93DF937C018B01EC
:1011C000EA010E942407811131C0209731F0888103
:1011D0009981081B190BE80EF91EC12CD12C0115A1
:1011E000110519F18091E80085FD14C08091E80097
:1011F0008E778093E800209741F0888199818C0D4B
:101200009D1D9983888385E011C00E94240788234F
:1012100031F30CC0F70181917F018093F1000150FF
:101220001109FFEFCF1ADF0ADACF80E0DF91CF910B
:101230001F910F91FF90EF90DF90CF900895209134
:10124000E4013091E5012617370748F06115710573
:1012500039F42091E8002E772093E80001C0B9010D
:10126000FC0120E061157105A9F18091DD01882361
:10127000E9F18530E9F18091E80083FD35C0809186
:10128000E80082FF06C08091E80082FF26C080E06F
:1012900008958091E80080FFE5CF2091F3008091D0
:1012A000F20090E0922B6115710551F088309105A4
:1012B00038F421912093F100615071090196F3CF28
:1012C00021E0089709F020E08091E8008E77809374
:1012D000E800C8CF2111C9CFD6CF8091DD01882386
:1012E00029F0853081F604C081E0089582E00895F8
:1012F00083E008952091E4013091E5012617370736
:1013000048F06115710539F42091E8002E7720939B
:10131000E80001C0B901FC0120E061157105C1F1CF
:101320008091DD01882309F43FC0853009F43EC077
:101330008091E80083FD36C08091E80082FF06C0FE
:101340008091E80082FF27C080E008958091E80046
:1013500080FFE3CF2091F3008091F20090E0922B88
:101360006115710559F08830910540F4249120935E
:10137000F1003196615071090196F2CF21E0089792
:1013800009F020E08091E8008E778093E800C5CFD7
:101390002111C6CFD5CF8091DD01882329F085307A
:1013A00079F604C081E0089582E0089583E008950D
:1013B0000F931F93CF93DF93CDB7DEB7AA970FB6E6
:1013C000F894DEBF0FBECDBFEEEDF1E08091F100ED
:1013D000819321E0E63EF207C9F70E946A058091F9
:1013E000E80083FF1DC12091DE013091DF01832FD2
:1013F00090E08A30910508F013C1FC01EA5AFF4FD2
:101400000C941B21203881F0223809F009C1809109
:10141000E2018F708093E9008091EB0085FB8827C3
:1014200080F91092E90006C08091DA019091DB0109
:10143000911182609091E800977F9093E8008093EB
:10144000F1001092F100C6C0822F8D7F09F0E8C034
:10145000222319F0223061F0E3C08091E001813055
:1014600009F0DEC0333009F080E08093DB0128C052
:101470008091E001811124C02091E2012F7009F4D4
:10148000CFC02093E9008091EB0080FF19C08091CC
:10149000EB00333011F4806211C080618093EB0067
:1014A00081E090E0022E01C0880F0A94EAF7809351
:1014B000EA001092EA008091EB0088608093EB00D4
:1014C0001092E9008091E800877F87C02111A8C0B1
:1014D0001091E0011F770FB7F8948091E800877FA3
:1014E0008093E8000E9403078091E80080FFFCCF12
:1014F0008091E3008078812B8093E3008068809363
:10150000E300112311F083E001C082E08093DD014C
:101510000FBF86C02058223008F082C08091E001C1
:101520009091E1018C3D23E0920779F583E08A8375
:101530008AE289834FB7F894DE01139620E03EE0FB
:1015400051E2E32FF0E050935700E49120FF03C0F5
:10155000E295EF703F5FEF708E2F90E0EA3010F071
:10156000C79601C0C0968D939D932F5F243149F794
:101570004FBF8091E800877F8093E8006AE270E0C7
:10158000CE0101960E941F0914C0AE014F5F5F4F4C
:101590006091E2010E945F06009709F441C020912A
:1015A000E800277F2093E800BC0189819A810E948E
:1015B0007A098091E8008B778093E80031C0203869
:1015C00079F58091E800877F8093E8008091D901C8
:1015D0008093F1008091E8008E778093E8000E946C
:1015E00003071EC021111CC09091E0019230C0F48D
:1015F0008091E800877F8093E8009093D9010E9452
:1016000003078091D901811104C08091E30087FF15
:1016100002C084E001C081E08093DD010E94560594
:101620008091E80083FF0AC08091EB008062809384
:10163000EB008091E800877F8093E800AA960FB6C0
:10164000F894DEBF0FBECDBFDF91CF911F910F91F8
:1016500008959093660180936501089580916501D6
:10166000909166010895E0916501F09166013097CF
:1016700021F00190F081E02D099480E00895E0913F
:101680006501F0916601309721F00280F381E02D31
:1016900009940895E0916501F0916601309721F079
:1016A0000480F581E02D0994089520916301309123
:1016B00064018217930771F0909364018093630132
:1016C000E0916501F0916601309721F00680F78185
:1016D000E02D0994089520916101309162018217F3
:1016E000930771F09093620180936101E09165012D
:1016F000F0916601309721F00084F185E02D099486
:1017000008950E94D5180E94B9020E94A1190C9454
:101710004D1F5F926F927F928F929F92AF92BF9276
:10172000CF92DF92EF92FF920F931F93CF93DF93AD
:10173000CDB7DEB72A970FB6F894DEBF0FBECDBF88
:101740000E94E50298E6C92E91E0D92E00E010E053
:10175000AA24A394B12C502E802F0E94CF033C01C9
:10176000F601E190F1906F01E826F926E114F10409
:10177000B1F40F5F1F4F0530110569F78FEF8983B3
:101780008A831B820E94DE188160782F9D838C8360
:1017900049815A816B818D810E94420C3AC08091AF
:1017A000C50181FD0E94D80320E030E04501022EF2
:1017B00002C0880C991C0A94E2F7C4018E219F2173
:1017C000892B09F12E835F826820792081E06728C8
:1017D00009F480E088870E94DE188160782F9A875C
:1017E00089874E815F8168858A850E94420CF80155
:1017F000EE0FFF1FE859FE4F8081918188259925C2
:101800009183808306C02F5F3F4F2E30310571F6E4
:10181000B0CF0E94931C109167010E94330B1817E0
:10182000D9F00E94330B809367012A960FB6F89483
:10183000DEBF0FBECDBFDF91CF911F910F91FF9003
:10184000EF90DF90CF90BF90AF909F908F907F9060
:101850006F905F900C94D9032A960FB6F894DEBF70
:101860000FBECDBFDF91CF911F910F91FF90EF90F1
:10187000DF90CF90BF90AF909F908F907F906F90B0
:101880005F900895CF93DF93CDB7DEB72B970FB658
:10189000F894DEBF0FBECDBF4F83588769877A8724
:1018A0008B87DE01119686E0FD0111928A95E9F79A
:1018B00085E0FE01379601900D928A95E1F7498106
:1018C0005A816B817C818D819E810E94DF132B96D2
:1018D0000FB6F894DEBF0FBECDBFDF91CF91089554
:1018E000CF93C82F882309F4C1C0823859F40E94CD
:1018F000330B81FDBBC089E30E947C160E942E172A
:1019000089E30CC0833879F40E94330B80FDAEC0AC
:1019100083E50E947C160E942E1783E50E94B8166C
:10192000CF910C942E17843859F40E94330B82FD0A
:101930009DC087E40E947C160E942E1787E4EECF9C
:101940008CEF8C0F813A48F48C2F0E94BD1E8111C0
:101950008DC08C2F0E947C16E3CF80E28C0F8830E4
:1019600048F4C77081E001C0880FCA95EAF70E9469
:10197000F516D6CF8BE58C0F833078F4C53A29F075
:10198000C63A31F482E890E005C081E890E002C0F8
:1019900083E890E0CF910C94550B88E58C0F833150
:1019A00008F064C0C83A39F1C93A41F1CA3A49F17C
:1019B000CB3A51F1CC3A59F1CD3A61F1C03B69F1E2
:1019C000CE3A71F1CF3A79F1C13B81F1C23B89F155
:1019D000C33B91F1C43B99F1C53BA1F1C63BA9F1D1
:1019E000C73BB1F1C83BB9F1C93BC1F1CA3BC9F52D
:1019F0008AE292E038C082EE90E035C089EE90E055
:101A000032C08AEE90E02FC085EB90E02CC086EBD0
:101A100090E029C087EB90E026C08CEC90E023C0DA
:101A20008DEC90E020C083E891E01DC08AE891E051
:101A30001AC082E991E017C084E991E014C081E204
:101A400092E011C083E292E00EC084E292E00BC00B
:101A500085E292E008C086E292E005C087E292E06B
:101A600002C080E090E0CF910C946B0BCF91089571
:101A7000882309F44BC0823859F40E94330B81FF4C
:101A800045C089E30E947C160E942E1789E30CC092
:101A9000833871F40E94330B80FF38C083E50E94C5
:101AA0007C160E942E1783E50E94B8160C942E1700
:101AB000843859F40E94330B82FF28C087E40E94C7
:101AC0007C160E942E1787E4EFCF9CEF980F913A77
:101AD00058F390E2980F983050F4877091E001C06D
:101AE000990F8A95EAF7892F0E94FB16DFCF9BE5B5
:101AF000980F933020F480E090E00C94550B885AB6
:101B0000833120F480E090E00C946B0B08958823DF
:101B100021F00E94F5160C942E170895882321F0C9
:101B20000E94FB160C942E170895CF92DF92EF922D
:101B3000FF920F931F93CF93DF93CDB7DEB7289714
:101B40000FB6F894DEBF0FBECDBF8C0185E0F80163
:101B5000DE01119601900D928A95E1F7F80140811E
:101B60003181F280258122952F7083819481892B88
:101B700031F03F3F31F481E04F3F19F403C081E081
:101B800001C080E080FD32C349833A8389819A8114
:101B90002F830E943A169E8388870E9439160E94DE
:101BA0000C154E81E42FE295EF70F0E0E05AFF4F04
:101BB0002F8168850C941B21842F807F142F1F7028
:101BC000882311F01295107FFF2059F0112309F49A
:101BD00058C2812F68870E9405170E942E176885BA
:101BE00050C2862F0E94380D112309F4FFC2812FA5
:101BF0000E940B1728960FB6F894DEBF0FBECDBF1C
:101C0000DF91CF911F910F91FF90EF90DF90CF90D8
:101C10000C942E17342F307F842F8F70303211F0B8
:101C20008295807F662319F0613009F12AC0FF2078
:101C3000A1F0222381F1213071F528960FB6F89496
:101C4000DEBF0FBECDBFDF91CF911F910F91FF90EF
:101C5000EF90DF90CF900C941517222319F02130CC
:101C600009F4C4C28E830E9418178E818EC1FF2092
:101C700021F0263008F0BAC20EC0253008F0B6C2F6
:101C800084C1FF20C1F0222331F0F801958190FF3B
:101C9000F8C19F70958328960FB6F894DEBF0FBEEB
:101CA000CDBFDF91CF911F910F91FF90EF90DF900B
:101CB000CF900C94870D222309F467C1F6C1242F1D
:101CC00026952695237030E02115310521F021302D
:101CD0003105C9F08BC2FF2021F0862F942F93701D
:101CE00002C080E090E028960FB6F894DEBF0FBEE9
:101CF000CDBFDF91CF911F910F91FF90EF90DF90BB
:101D0000CF900C94550BFF2021F0862F942F9370C9
:101D100002C080E090E028960FB6F894DEBF0FBEB8
:101D2000CDBFDF91CF911F910F91FF90EF90DF908A
:101D3000CF900C946B0B862FFF2019F00E949B1BF9
:101D400002C00E94031C28960FB6F894DEBF0FBE97
:101D5000CDBFDF91CF911F910F91FF90EF90DF905A
:101D6000CF900C94881C842F837009F076C0F110FA
:101D70003DC2262F229526952770220F220F862FEF
:101D80008F70C82ED12CE12CF12C022E04C0CC0C6B
:101D9000DD1CEE1CFF1C0A94D2F764FF10C06FE03C
:101DA00070E080E090E004C0660F771F881F991FE5
:101DB0002A95D2F7609570958095909503C060E064
:101DC00070E0CB01242F269526952370422F50E0FA
:101DD00042305105D1F04330510559F16C297D292C
:101DE0008E299F294130510541F128960FB6F8946C
:101DF000DEBF0FBECDBFDF91CF911F910F91FF903E
:101E0000EF90DF90CF900C9431156C297D298E29AD
:101E10009F2928960FB6F894DEBF0FBECDBFDF9185
:101E2000CF911F910F91FF90EF90DF90CF900C9486
:101E30004B150E943115C701B60128960FB6F894CC
:101E4000DEBF0FBECDBFDF91CF911F910F91FF90ED
:101E5000EF90DF90CF900C941715FF2019F0842F8E
:101E6000817001C08695882309F4C0C1262F229570
:101E700026952770220F220F862F8F70C82ED12C07
:101E8000E12CF12C022E04C0CC0CDD1CEE1CFF1C3E
:101E90000A94D2F764FF10C06FE070E080E090E039
:101EA00004C0660F771F881F991F2A95D2F7609587
:101EB00070958095909503C060E070E0CB01242F71
:101EC000269526952370422F50E042305105D1F0DF
:101ED0004330510559F16C297D298E299F294130C4
:101EE000510541F128960FB6F894DEBF0FBECDBF65
:101EF000DF91CF911F910F91FF90EF90DF90CF90E6
:101F00000C9405166C297D298E299F2928960FB6D9
:101F1000F894DEBF0FBECDBFDF91CF911F910F911F
:101F2000FF90EF90DF90CF900C941F160E94051643
:101F3000C701B60128960FB6F894DEBF0FBECDBF1D
:101F4000DF91CF911F910F91FF90EF90DF90CF9095
:101F50000C94EB15603F49F118F4603E48F48CC0D6
:101F6000623F09F451C0E0F1633F09F461C084C0ED
:101F7000162F1F70842F8F71FF2021F00E9484156F
:101F8000812F89CE0E94A515812F28960FB6F8942F
:101F9000DEBF0FBECDBFDF91CF911F910F91FF909C
:101FA000EF90DF90CF900C948E0DFF20A9F025309C
:101FB00008F01CC1842F8F7128960FB6F894DEBFED
:101FC0000FBECDBFDF91CF911F910F91FF90EF908A
:101FD000DF90CF900C94CA15263008F007C1EACFE5
:101FE000FF20A1F0842F8F7128960FB6F894DEBFE2
:101FF0000FBECDBFDF91CF911F910F91FF90EF905A
:10200000DF90CF900C948415FF2061F3842F8F71A3
:1020100028960FB6F894DEBF0FBECDBFDF91CF91EB
:102020001F910F91FF90EF90DF90CF900C94A5152A
:10203000FF2091F0842F8F7128960FB6F894DEBFA1
:102040000FBECDBFDF91CF911F910F91FF90EF9009
:10205000DF90CF900C946F1528960FB6F894DEBFE2
:102060000FBECDBFDF91CF911F910F91FF90EF90E9
:10207000DF90CF900C946515FF20A1F0222309F486
:10208000B1CF862F28960FB6F894DEBF0FBECDBF16
:10209000DF91CF911F910F91FF90EF90DF90CF9044
:1020A0000C94700C222309F4B1CF862F28960FB61A
:1020B000F894DEBF0FBECDBFDF91CF911F910F917E
:1020C000FF90EF90DF90CF900C94380D4F70C801C7
:1020D0000E94691828960FB6F894DEBF0FBECDBFD8
:1020E000DF91CF911F910F91FF90EF90DF90CF90F4
:1020F0000C948E14F1107AC0942F9F70492F50E0E9
:102100004230510509F440C0BCF44115510561F15C
:102110004130510509F06AC028960FB6F894DEBF29
:102120000FBECDBFDF91CF911F910F91FF90EF9028
:10213000DF90CF900C94751F43305105A9F14430C6
:10214000510509F053C0862F28960FB6F894DEBFCC
:102150000FBECDBFDF91CF911F910F91FF90EF90F8
:10216000DF90CF900C94C91F28960FB6F894DEBF6D
:102170000FBECDBFDF91CF911F910F91FF90EF90D8
:10218000DF90CF900C945E1F28960FB6F894DEBFB8
:102190000FBECDBFDF91CF911F910F91FF90EF90B8
:1021A000DF90CF900C94911F28960FB6F894DEBF65
:1021B0000FBECDBFDF91CF911F910F91FF90EF9098
:1021C000DF90CF900C94A41F4F70C80128960FB6D3
:1021D000F894DEBF0FBECDBFDF91CF911F910F915D
:1021E000FF90EF90DF90CF900C946C1828960FB66C
:1021F000F894DEBF0FBECDBFDF91CF911F910F913D
:10220000FF90EF90DF90CF9008950E9412170E94E8
:10221000E7160E942E170E94341D0E94881C80E041
:1022200090E00E94550B80E090E00C946B0B0E94B4
:1022300002170C9405110E943A16292F22952F702F
:1022400030E02C3031054CF42A3031056CF422504A
:1022500031092230310570F407C02C30310531F0DE
:102260002F30310519F006C081E0089593FB8827CF
:1022700080F9089580E00895CF93DF9300D000D0D7
:102280001F92CDB7DEB70F900F900F900F900F9069
:10229000DF91CF910895CF93DF9300D000D000D08D
:1022A000CDB7DEB726960FB6F894DEBF0FBECDBF12
:1022B000DF91CF9108951F93CF93DF93C091720167
:1022C00016E080917301C81799F0D0E01C9FF001CF
:1022D0001D9FF00D1124EC58FE4F40815181628109
:1022E0007381848195810E944B112196C770E9CF3B
:1022F000DF91CF911F9108954091A4015091A501C4
:102300006091A6017091A7018091A8019091A90107
:102310000C944B11CF938091A90182958F7009F095
:102320005FC08091A601882309F45AC020917201F0
:10233000A09173016091A4017091A5018091A70102
:102340009091A80131E06F3F09F030E0B32FC6E073
:102350002A1709F445C0009721F07F3F21F44B2F45
:1023600003C041E001C040E030E040FD35C0C29F05
:10237000F001C39FF00D1124EC58FE4F41817413FE
:102380002BC04081641328C04281411125C0438184
:1023900054814817590710F441505109481B590BF3
:1023A000483C5105C8F48091A9018F7080618093E9
:1023B000A90186E0829FF001839FF00D1124E75868
:1023C000FE4F80818F708061808384EA91E00E945B
:1023D000950DCF910C945B112F5F3F4F2770B8CFB5
:1023E000CF910895CF92DF92EF92FF920F931F93B8
:1023F000CF93DF93CDB7DEB762970FB6F894DEBF09
:102400000FBECDBF8C0185E0F801DE011D96019065
:102410000D928A95E1F7D8014C9111965C91119734
:1024200012966C9112971396ED90FC901497709100
:10243000A401E091A5012091A7013091A8012115E7
:10244000310531F0EF3F31F481E07F3F19F403C0F3
:1024500081E001C080E0B82FB170CB2E80FD6CC14F
:10246000D090A601DD2009F4F5C0F091A901E21693
:10247000F30638F0C701821B930B883C910548F0A6
:102480009BC0209530952E0D3F1D283C310508F04E
:1024900093C08F2F807F09F052C0E51314C07413CE
:1024A00012C0D62E61110FC0FF70F061F093A90128
:1024B0000E947C1184EA91E00E94950D8091A9010F
:1024C000F80185836CC1EF2831F05F3F31F481E082
:1024D0004F3F19F403C081E001C080E080FD03C0DC
:1024E00081E0862701C080E0F82FF170FF2E80FF89
:1024F0001CC0809172012091730136E0821709F4AB
:1025000028C190E0389FF001399FF00D1124EC585C
:10251000FE4F7181571306C07081471303C072814B
:10252000671303C001968770E9CFD62E662309F49E
:1025300036C18091A90181608093A90153C0E51340
:1025400008C0741306C0611104C0D8011596FC932D
:10255000AEC04D875E878D859E856A8B0E941B115C
:102560006A89882329F1D62E662311F12091A901C9
:10257000822F82958F7090E002970CF460C080915A
:10258000A4019091A50198878F831986FB86EA861E
:102590002C87CE01079651C0E51731F14D875E8734
:1025A0008D859E856A8B0E941B116A8981112EC0C0
:1025B000C8010E94950DA4C08F2F807F69F77E2DE2
:1025C000F98AE88A89890E943C1184EA91E00E9494
:1025D000950DE4EAF1E086E0DF011D928A95E9F7C6
:1025E0000E947C11D12CDBC07413D8CF6111D6CFDF
:1025F000D8011596FC93C8010E94950DE4EAF1E01C
:1026000086E0DF011D928A95E9F7C9C0D62E6623C0
:1026100079F22091A901822F82958F7090E0029724
:1026200074F08091A4019091A5019A8389831B8203
:10263000FD82EC822E83CE0101960E94950D86E0EC
:10264000F801A4EAB1E001900D928A95E1F70E94A9
:102650008A116FC0E216F30628F0C701821B930BA4
:102660009C0104C0209530952E0D3F1D283C31055E
:1026700008F052C0D62E662309F49ACFE5132CC079
:1026800074132AC08091A90180FD1DC0982F9295D6
:102690009F70C9F0D80115968C9315979F3039F02B
:1026A0009F5F9295907F8F70892B15968C93C801B0
:1026B0000E94950D86E0F801A4EAB1E001900D9228
:1026C0008A95E1F736C086E0F801A4EAB1E001900E
:1026D0000D928A95E1F763C04D875E878D859E8553
:1026E0000E941B11882379F086E0F801A4EAB1E08A
:1026F00001900D928A95E1F70E948A110E947C1147
:10270000DD24D3944CC08091A90181608093A901FC
:10271000C8010E94950D43C07E2DF98AE88A8989F7
:102720000E943C11E4EAF1E086E0DF011D928A9507
:10273000E9F70E947C1133C0662309F439CF4D8735
:102740005E878D859E850E941B11882309F430CFFA
:10275000CBCF4D875E878D859E850E943A16292FA7
:1027600022952F7030E0223031052CF49F7041F01B
:10277000811106C00CC0243031052CF49F7049F43F
:10278000805E883020F0C8010E94950DCF2CDC2C93
:1027900006C0D80115969C91907F91F7F8CF8D2DAA
:1027A00062960FB6F894DEBF0FBECDBFDF91CF911A
:1027B0001F910F91FF90EF90DF90CF9008951F939E
:1027C000CF93DF93CDB7DEB72C970FB6F894DEBF6B
:1027D0000FBECDBF4F83588769877A878B879C87C9
:1027E000CE0107960E94F2118823D1F02F813885FF
:1027F0008A859B85892B31F03F3F31F481E02F3F63
:1028000019F403C081E001C080E080FD47C04F8122
:10281000588569857A858B859C850E944B113EC0C1
:1028200086E0FE013796DE01119601900D928A95A1
:10283000E1F7FF81E8854A855B854115510531F057
:10284000EF3F31F481E0FF3F19F403C081E001C0A4
:1028500080E080FD23C02091730130E0C901019622
:10286000877099276091720170E086179707F1F1E0
:10287000F983EA835D834C8396E0929FD001939F16
:10288000B00D1124AC58BE4FFE01319601900D924F
:102890009A95E1F7809373010E945B1116E0809195
:1028A000720190917301891779F1189FC001112469
:1028B0008C589E4F0E94F211882331F1E0917201F1
:1028C0001E9FF0011124EC58FE4F4081518162811E
:1028D0007381848195810E944B118091720190E0F7
:1028E00001968770992780937201D9CF0E941711A2
:1028F0001092730110927201E4EAF1E086E0DF01C8
:102900001D928A95E9F7CACF2C960FB6F894DEBFD0
:102910000FBECDBFDF91CF911F910895EF92FF922F
:102920000F931F93CF93DF93FC01009709F46DC0C1
:10293000F12CEE24E394EF0121968491843740F446
:10294000843008F053C0813081F0823021F15DC0C5
:10295000853709F445C0B0F19CE7980F903708F02F
:1029600054C08F770E94380D43C08F010E5F1F4FF8
:10297000FE01849190E2980F983050F48770FE2DFC
:1029800001C0FF0F8A95EAF78F2F0E94051715C027
:102990000E94700C12C08F010E5F1F4FFE018491C8
:1029A00090E2980F983058F48770FE2D01C0FF0F09
:1029B0008A95EAF78F2F0E940B17E80119C00E9431
:1029C000380DFBCFCF010296FE01C491CC2361F0FC
:1029D000EFE9FFE03197F1F700C00000C150F6CFFA
:1029E000CF010296FE01F490EC0102C00E94700C2F
:1029F0008F2D882341F0EFE9FFE03197F1F700C018
:102A000000008150F6CFFE0196CFDF91CF911F914C
:102A10000F91FF90EF90089508956093AE01709329
:102A2000AF018093B0019093B1010C9405110F9305
:102A30001F930091AE011091AF012091B001309130
:102A4000B101062B172B282B392B0093AE011093C5
:102A5000AF012093B0013093B1011F910F910C94FD
:102A600005110F931F930091AE011091AF012091BA
:102A7000B0013091B1010623172328233923009395
:102A8000AE011093AF012093B0013093B1011F91BB
:102A90000F910C9405110F931F930091AE011091AB
:102AA000AF012091B0013091B101062717272827E7
:102AB00039270093AE011093AF012093B0013093FA
:102AC000B1011F910F910C9405111092AA0110925F
:102AD000AB011092AC011092AD010C94051141E0D4
:102AE00050E060E070E004C0440F551F661F771F80
:102AF0008A95D2F74093AA015093AB016093AC0141
:102B00007093AD010C94051141E050E060E070E07D
:102B100004C0440F551F661F771F8A95D2F7809116
:102B2000AA019091AB01A091AC01B091AD01842BB1
:102B3000952BA62BB72B8093AA019093AB01A09362
:102B4000AC01B093AD010C94051141E050E060E0A0
:102B500070E004C0440F551F661F771F8A95D2F797
:102B600040955095609570958091AA019091AB0128
:102B7000A091AC01B091AD0184239523A623B72386
:102B80008093AA019093AB01A093AC01B093AD01E7
:102B90000C94051141E050E060E070E004C0440F87
:102BA000551F661F771F8A95D2F78091AA019091D1
:102BB000AB01A091AC01B091AD0184279527A62768
:102BC000B7278093AA019093AB01A093AC01B09377
:102BD000AD010C9405110F931F930091AA01109160
:102BE000AB012091AC013091AD01062B172B282BA6
:102BF000392B0093AA011093AB012093AC013093C1
:102C0000AD011F910F910C9405110F931F9300912B
:102C1000AA011091AB012091AC013091AD010623C6
:102C20001723282339230093AA011093AB01209383
:102C3000AC013093AD011F910F910C9405110F93CE
:102C40001F930091AA011091AB012091AC0130912A
:102C5000AD0106271727282739270093AA011093CB
:102C6000AB012093AC013093AD011F910F910C94F7
:102C700005110895CF92DF92EF92FF920F931F9369
:102C8000CF93DF93EC01C090AE01D090AF01E09004
:102C9000B001F090B1018091AA019091AB01A09197
:102CA000AC01B091AD01C82AD92AEA2AFB2A0FE16A
:102CB00010E0B701A601002E04C0769567955795E0
:102CC00047950A94D2F740FF07C0BE01802F0E94AB
:102CD000F6178130910539F40150110950F7BE0102
:102CE00080E00E94F617DF91CF911F910F91FF9026
:102CF000EF90DF90CF90089590910E019923B9F055
:102D0000982F9695969596959F3088F5E0910F01AE
:102D1000F0911001E90FF11D877021E030E001C052
:102D2000220F8A95EAF78181822B81830895409151
:102D30000F015091100120E030E09FEFFA01E20F07
:102D4000F31F6281681799F09F3F19F4611101C068
:102D5000922F2F5F3F4F2E30310581F79F3F39F083
:102D6000FA01E90FF11D97FDFA9582830895089500
:102D700090910E019923C1F0982F9695969596956E
:102D80009F3020F5E0910F01F0911001E90FF11D46
:102D9000877021E030E001C0220F8A95EAF7209584
:102DA000818128232183089540910F0150911001C2
:102DB00020E030E0FA01E20FF31F9281981301C086
:102DC00012822F5F3F4F2E303105A1F7089581E029
:102DD00090E0E0910F01F0911001E80FF91F1082CF
:102DE000019680319105A9F708959091C401982B1F
:102DF0009093C401089580959091C4019823909375
:102E0000C40108951092C40108959091C301982BB4
:102E10009093C301089580959091C3019823909356
:102E2000C30108951092C30108958093B2010895DB
:102E30001092B201089540910F015091100120E0CD
:102E400030E080E0FA01E20FF31F918191118F5F72
:102E50002F5F3F4F2F303105A9F70895E0910F0103
:102E6000F09110018091C4018083E0910F01F091F5
:102E7000100180819091C301892B80839091B201D0
:102E8000992361F0E0910F01F09110018081892B6D
:102E900080830E941B1781111092B20180910F0153
:102EA000909110010C943F0B8B3B60F4883A00F535
:102EB000853AA8F4843088F4813009F055C081E067
:102EC00090E00895803E08F44FC0883E30F0803F87
:102ED00008F44AC090E09065089590E00895853A1E
:102EE00009F445C0863A09F045C082E890E40895A7
:102EF000883A09F442C0893A09F442C08A3A09F48E
:102F000042C08B3A09F442C08C3A09F442C08D3A6F
:102F100009F442C0803B09F442C08E3A09F442C031
:102F20008F3A09F442C0813B09F442C0823B09F464
:102F300042C0833B09F442C0843B09F442C0853B54
:102F400009F442C0863B09F442C0873B09F442C001
:102F5000883B09F442C0893B09F442C08A3B09F02E
:102F600042C08AE296E4089580E090E0089581E806
:102F700090E4089583E890E4089582EE94E408953F
:102F800089EE94E408958AEE94E4089585EB94E440
:102F9000089586EB94E4089587EB94E408958CEC0F
:102FA00094E408958DEC94E4089583E895E40895FD
:102FB0008AE895E4089582E995E4089584E995E422
:102FC000089581E296E4089583E296E4089584E208
:102FD00096E4089585E296E4089586E296E40895DD
:102FE00087E296E4089580E094E408950E949402B4
:102FF000803EA8F4803C00F5813309F45CC038F4CD
:10300000893209F452C08A3209F45BC05FC0893347
:10301000B1F08238A1F0853309F441C057C0833E36
:1030200041F128F4803E99F0823EB9F04FC0863ECF
:1030300031F1873E71F14AC00E94A3020895909138
:10304000D80190FD02C091FF41C080EE3FC0809149
:10305000D80180FFFACF89E339C08091D80182FF7F
:103060000CC08091D80184FF02C080E02FC083EEA5
:103070002DC08091D80182FFF4CF82EE27C08091CD
:10308000D80183FF0AC08091D80184FDEECF87EE7E
:103090001DC08091D80183FFF6CF86EE17C08091C6
:1030A000D80185FF06C089E211C08091D80185FF53
:1030B000FACF85E30BC08091D80186FF06C08AE273
:1030C00005C08091D80186FFFACF81E30E94541792
:1030D000089580E090E0089508958091DD018430A6
:1030E00009F11092C60120E488E190E00FB6F8944F
:1030F000A895809360000FBE2093600083B7817F06
:10310000846083BF83B7816083BF7894889583B7D9
:103110008E7F83BF88E10FB6F89480936000109291
:1031200060000FBE0895CF930E9492020E94E502B4
:103130000E949302C0E08C2F0E94CF03892B29F4B8
:10314000CF5FC530C1F780E001C081E0CF91089525
:103150000E9417110C944D1F1F920F920FB60F92E1
:1031600011248F939F93AF93BF938091C6018111D8
:1031700013C08091C7019091C801A091C901B0917D
:10318000CA014196A11DB11D8093C7019093C8014A
:10319000A093C901B093CA01BF91AF919F918F9144
:1031A0000F900FBE0F901F90189582E084BD93E0A2
:1031B00095BD9AEF97BD80936E0008952FB7F89450
:1031C0008091C7019091C801A091C901B091CA0135
:1031D0002FBF0895CF92DF92EF92FF920F931F932C
:1031E0002FB7F8944091C7015091C8016091C9016F
:1031F0007091CA012FBF6A017B01EE24FF248C016C
:1032000020E030E0C016D106E206F30610F441508B
:103210005109481B590BCA011F910F91FF90EF9064
:10322000DF90CF9008951F920F920FB60F92112446
:103230008F939F93AF93BF938091C7019091C801E3
:10324000A091C901B091CA010196A11DB11D809341
:10325000C7019093C801A093C901B093CA01BF915F
:10326000AF919F918F910F900FBE0F901F90189567
:103270000E945407F8942FEF87EA91E6215080408E
:103280009040E1F700C0000087E090EBDC01809304
:10329000E7019093E801A093E901B093EA019CE073
:1032A00088E10FB6F894A895809360000FBE9093C4
:1032B0006000FFCFCF92DF92EF92FF920F931F93A8
:1032C000CF93DF93C82ED12C01E010E08D2D0E940A
:1032D000CF037C01C0E0D0E098010C2E02C0220F89
:1032E000331F0A94E2F72E213F21232B29F4219644
:1032F000CE30D10589F709C06C2F7D2D80E00E946A
:103300009402C812F4CF81E005C0D39485E0D812AE
:10331000DDCF80E0DF91CF911F910F91FF90EF9073
:10332000DF90CF900895CF93C82F8CE20E945A1956
:10333000882321F08C2FCF910C945A1980E0CF91E3
:103340000895CF930E94EB1A811102C00E94CC1AFB
:10335000C5E6C15049F00E94E5028FE39CE9019760
:10336000F1F700C00000F5CF89E20E9493198111A6
:1033700011C18AE20E94931981110E94CC1A85E042
:103380000E94931981110E9438190E94F61A8093A5
:10339000C50187E00E949319882399F18BE10E946F
:1033A0009319882351F09091C50191FB882780F9EA
:1033B00021E0822780FB91F922C08EE00E949319C0
:1033C000882351F09091C50192FB882780F921E074
:1033D000822780FB92F913C080E10E94931990919B
:1033E000C501882341F093FB882780F921E08227DB
:1033F00080FB93F904C0892F809580FB90F990930E
:10340000C5018091C5010E94FA1A0E94081B809391
:10341000D80180EE0E949319882341F08091D80151
:10342000982F909590FB80F98093D80189E30E94B2
:103430009319882359F09091D80191FB882780F93E
:1034400021E0822780FB91F99093D80182EE0E94BF
:103450009319882359F09091D80192FB882780F91D
:1034600021E0822780FB92F99093D80186EE0E949A
:103470009319882359F09091D80193FB882780F9FC
:1034800021E0822780FB93F99093D80183EE0E947C
:103490009319882359F09091D80194FB882780F9DB
:1034A00021E0822780FB94F99093D80185E30E9464
:1034B0009319882359F09091D80195FB882780F9BA
:1034C00021E0822780FB95F99093D80181E30E9447
:1034D0009319882359F09091D80196FB882780F999
:1034E00021E0822780FB96F99093D80181E10E9428
:1034F0009319882359F09091D80197FB882780F978
:1035000021E0822780FB97F99093D8018091D80120
:103510000E940C1B8091D80187FB882780F980933B
:103520000E0187E20E949319C82F8EE10E94931921
:103530008111C2608FE10E9493198111C46080E201
:103540000E9493198111C86081E20E949319811130
:10355000C06182E20E9493198111C06283E20E94DD
:1035600093198111C06484E20E949319882311F099
:10357000C06802C0CC2329F08C2F0E94031B6C2F43
:1035800003C00E94FF1A682F70E080E090E0CF91A6
:103590000C940D15CF9108956DEE7EEF80E090E0D4
:1035A0000E94512160E082E090E00E94432160E0AF
:1035B00083E090E00E94432160E084E090E00E947C
:1035C000432160E085E090E00E94432160E086E0D6
:1035D00090E00C94432180E090E00E943D2121E0A6
:1035E0008D3E9E4F09F020E0822F089582E090E00A
:1035F0000C943521682F82E090E00C94432183E005
:1036000090E00C943521682F83E090E00C944321E6
:1036100084E090E00C943521682F84E090E00C94D5
:10362000432186E090E00C943521682F86E090E0FD
:103630000C9443218091CD0180FF0BC06091140157
:1036400085E0689FB001112475956795759567951C
:103650002AC081FF09C06091140185E0689FB00114
:103660001124759567951FC082FF07C060911401F2
:1036700085E0689FB001112416C04091CE0144231B
:10368000C9F060911301461788F72091140185E075
:10369000289F90011124429FC001439F900D112447
:1036A00070E00E9407216038710540F461157105D2
:1036B00039F002C065E070E0862F08958FE7089525
:1036C00081E008958091CD0180FF08C060911201D2
:1036D00070E0759567957595679521C081FF06C067
:1036E0006091120170E07595679519C082FF04C062
:1036F0006091120170E010C08091CE018823C1F06A
:10370000609111018617A0F790911201989FC00156
:10371000112470E00E9407216038710528F46115BA
:10372000710521F0862F08958FE7089581E00895AF
:1037300061E070E0F4CF803F21F40E941A1B819574
:1037400004C0813F29F40E941A1B8093D10108957F
:10375000823F21F40E941A1B819504C0833F29F403
:103760000E941A1B8093D0010895893F19F40E948A
:10377000621B05C08A3F31F40E94621B81958093D1
:10378000D20108958B3F21F40E94621B819504C0F1
:103790008C3F29F40E94621B8093D3010895843FDB
:1037A00021F48091CF01816017C0853F21F4809181
:1037B000CF01826011C0863F21F48091CF018460E7
:1037C0000BC0873F21F48091CF01886005C0883FFE
:1037D00031F48091CF0180618093CF0108958D3FB6
:1037E00021F48091CD0181600BC08E3F21F4809146
:1037F000CD01826005C08F3F29F48091CD018460A6
:103800008093CD010895803F39F48091D10187FFE5
:103810006CC01092D10169C0813F29F48091D1011F
:103820001816BCF362C09091D001823F29F497FF33
:103830005CC01092D00159C0833F19F41916CCF323
:1038400054C0893F41F48091D20118160CF04DC04C
:103850001092D2014AC08A3F29F48091D20187FF99
:1038600044C0F6CF8B3F39F48091D30187FF3DC030
:103870001092D3013AC08C3F29F48091D3011816DD
:10388000BCF333C0843F21F48091CF018E7F17C0F9
:10389000853F21F48091CF018D7F11C0863F21F4B7
:1038A0008091CF018B7F0BC0873F21F48091CF01A6
:1038B000877F05C0883F31F48091CF018F7E809350
:1038C000CF0113C08D3F21F48091CD018E7F0BC0BD
:1038D0008E3F21F48091CD018D7F05C08F3F29F46B
:1038E0008091CD018B7F8093CD018091D00181119A
:1038F0000EC08091D10181110AC08091D201811145
:1039000006C08091D301811102C01092CE010895AA
:103910008FEC91E00E944A0B0E94DE189093CC013C
:103920008093CB0108951F93CF93DF938091CB01B8
:103930009091CC010E94EA184091CE01442321F0DD
:103940002091150130E006C0209116015AE0259F14
:10395000900111248217930708F482C08091D0014E
:103960001091D101D091D201C091D301811107C032
:10397000111105C0D11103C0CC2309F471C04F3F10
:1039800019F04F5F4093CE01181624F40E941A1BC1
:103990008093D0018091D00187FF05C00E941A1B3F
:1039A00081958093D001111624F40E941A1B8093F4
:1039B000D1018091D10187FF05C00E941A1B81951A
:1039C0008093D1016091D001662339F11091D1012A
:1039D000112319F1772767FD7095872F972F0E9484
:1039E000182023E333E343E35FE30E947C200E943B
:1039F000E51F6093D001612F772767FD7095872FB2
:103A0000972F0E94182023E333E343E35FE30E94F0
:103A10007C200E94E51F6093D1011D1624F40E94B2
:103A2000621B8093D2018091D20187FF05C00E9462
:103A3000621B81958093D2011C1624F40E94621BA4
:103A40008093D3018091D30187FF05C00E94621B40
:103A500081958093D301DF91CF911F910C94881CA5
:103A6000DF91CF911F910895EFECF1E085E0DF0148
:103A70001D928A95E9F71092CE011092CD0108951A
:103A8000833081F128F4813059F08230D1F00895EB
:103A9000853009F449C0B8F1863009F456C008955C
:103AA00020911601862F90E0820F911D8F3F910586
:103AB00024F4620F6093160108958FEF809316012E
:103AC000089520911501862F90E0820F911D8F3F60
:103AD000910524F4620F6093150108958FEF809390
:103AE0001501089520911401862F90E0820F911DF9
:103AF0008F3F910524F4620F6093140108958FEFB6
:103B000080931401089520911301862F90E0820F75
:103B1000911D8F3F910524F4620F60931301089566
:103B20008FEF80931301089520911201862F90E06A
:103B3000820F911D8F3F910524F4620F6093120153
:103B400008958FEF80931201089520911101862F1F
:103B500090E0820F911D8F3F910524F4620F6093D6
:103B6000110108958FEF809311010895833011F1B1
:103B700028F4813049F0823091F00895853081F148
:103B800020F18630C1F1089580911601681720F464
:103B9000861B809316010895109216010895809156
:103BA0001501681720F4861B809315010895109263
:103BB0001501089580911401681720F4861B8093E5
:103BC000140108951092140108958091130168174B
:103BD00020F4861B80931301089510921301089519
:103BE00080911201681720F4861B809312010895BA
:103BF00010921201089580911101681720F4861B1C
:103C0000809311010895109211010895482F50E0FA
:103C1000FA013697E334F10520F4E059FF4F0C9494
:103C20001B2180E008950E94F61A0E94081B0E9442
:103C3000111B9DC00E942E0B892B59F00E942E0B48
:103C40009093D6018093D5010E94171180E090E0F7
:103C500004C08091D5019091D6010E94290B87C0A4
:103C60008091C501817F8E7F8093C50181E0809323
:103C7000D40108950E9417112FEF83ED90E3215096
:103C800080409040E1F700C000000E9438196FC0EA
:103C90009091C501892F817090FF03C0917F9E7F15
:103CA00027C091609093C50162C09091C50191FBBE
:103CB000882780F921E0822780FB91F913C0909139
:103CC000C50192FB882780F921E0822780FB92F9C9
:103CD00009C09091C50193FB882780F921E08227D4
:103CE00080FB93F99093C501882309F440C091604B
:103CF0009093C50108950E94171180910E0191E0E3
:103D0000892780930E0133C081E890E00E94550B13
:103D10002FEF81EE94E0215080409040E1F700C009
:103D2000000080E090E00E94550B2FEF89E698E1BB
:103D3000215080409040E1F700C0000018C061E0D1
:103D400070E080E090E00FC023EE01C027EC280F68
:103D500061E070E080E090E004C0660F771F881F8C
:103D6000991F2A95D2F70E940D150E94171181E024
:103D7000089580E0089580E00895CF93C82F809142
:103D8000D401813069F018F08230B1F17CC0A0918B
:103D90000F01B09110018C91823209F076C007C0FA
:103DA000A0910F01B09110018C91823249F48C2FB7
:103DB0000E94B91E81111DC08C2F0E94061E1AC0C0
:103DC0008C2F0E94BB1E811114C0C43179F048F4BD
:103DD000CB3079F0C03109F05CC082E08093D4012F
:103DE00008C0C93219F0C83321F053C01092D40171
:103DF00050C081E081704FC0C93291F120F5C431CB
:103E000079F1B0F4C73009F042C08EE18093160119
:103E100082E3809315018AE08093140184E180930A
:103E2000130188E08093120188E2809311012FC072
:103E3000CE51CA3060F5EC2FF0E0E55DFE4F808199
:103E40008093D70124C0CE34C1F020F4CB34F9F4F0
:103E50006AE00EC0C13551F0C235C9F461E008C056
:103E60001092D70181E08093D40115C061E006C0B3
:103E70008091D7010E94401D0AC06AE08091D7015D
:103E80000E94B61D04C01092D40180E004C081E0FD
:103E900002C080E0AFCFCF9108950E94EB1A81114C
:103EA00002C00E94CC1A0E94111B8093E60180FF81
:103EB00002C0869501C080E00C9405048091E60163
:103EC000982F9695292F30E0233031054CF49F5FD1
:103ED000990F8170892B81608093E6010E94151BE8
:103EE0008091E60186950C9405048091E601982F57
:103EF000969591F09158990F8170892B8093E601E6
:103F00008E7F91E009F490E08091E60190FB80F9CA
:103F10008093E6010E94151B8091E60186950C9422
:103F200005048091E601982F909590FB80F980938D
:103F3000E6010E94151B8091E60180FF02C0869574
:103F400001C080E00C9405043091E601232F2695F2
:103F50002F5F2F77822F90E0317004972CF4220F7F
:103F6000232B2093E60102C03093E6018091E60105
:103F70008E7F91E009F490E08091E60190FB80F95A
:103F80008093E6010E94151B8091E60186950C94B2
:103F900005042091E601922F96959827990F822F7C
:103FA0008170892B8093E6018E7F91E009F490E087
:103FB0008091E60190FB80F98093E6010E94151B39
:103FC0008091E60186950C94050404D06894B111A3
:103FD0008DC0089570D088F09F5790F0B92F992721
:103FE000B751A0F0D1F0660F771F881F991F1AF004
:103FF000BA95C9F712C0B13081F077D0B1E0089519
:1040000074C0672F782F8827B85F39F0B93FCCF399
:10401000869577956795B395D9F73EF490958095F9
:10402000709561957F4F8F4F9F4F0895E89409C019
:1040300097FB3EF490958095709561957F4F8F4FDB
:104040009F4F9923A9F0F92F96E9BB279395F695F1
:10405000879577956795B795F111F8CFFAF4BB0F6F
:1040600011F460FF1BC06F5F7F4F8F4F9F4F16C0D3
:10407000882311F096E911C0772321F09EE8872F5D
:10408000762F05C0662371F096E8862F70E060E019
:104090002AF09A95660F771F881FDAF7880F969592
:1040A000879597F9089557FD9058440F551F59F07B
:1040B0005F3F71F04795880F97FB991F61F09F3F15
:1040C00079F087950895121613061406551FF2CF3E
:1040D0004695F1DF08C0161617061806991FF1CF8E
:1040E00086957105610508940895E894BB276627B5
:1040F0007727CB0197F908950BD078C069D028F0C5
:104100006ED018F0952309F05AC05FC01124EECF8D
:10411000CADFA0F3959FD1F3950F50E0551F629F22
:10412000F001729FBB27F00DB11D639FAA27F00D10
:10413000B11DAA1F649F6627B00DA11D661F829F37
:104140002227B00DA11D621F739FB00DA11D621F1C
:10415000839FA00D611D221F749F3327A00D611D39
:10416000231F849F600D211D822F762F6A2F11241B
:104170009F5750408AF0E1F088234AF0EE0FFF1F6E
:10418000BB1F661F771F881F91505040A9F79E3FA5
:10419000510570F014C0AACF5F3FECF3983EDCF3FA
:1041A000869577956795B795F795E7959F5FC1F7E2
:1041B000FE2B880F911D9695879597F9089597F98D
:1041C0009F6780E870E060E008959FEF80EC0895BD
:1041D00000240A94161617061806090608950024E6
:1041E0000A9412161306140605060895092E039460
:1041F000000C11F4882352F0BB0F40F4BF2B11F4D4
:1042000060FF04C06F5F7F4F8F4F9F4F089597FBF4
:10421000072E16F4009407D077FD09D00E942121C3
:1042200007FC05D03EF4909581959F4F08957095B9
:1042300061957F4F0895EE0FFF1F0590F491E02DDB
:104240000994AA1BBB1B51E107C0AA1FBB1FA617DD
:10425000B70710F0A61BB70B881F991F5A95A9F72F
:1042600080959095BC01CD010895F999FECF92BD3E
:1042700081BDF89A992780B50895A8E1B0E042E0A1
:1042800050E00C945821262FF999FECF1FBA92BD09
:1042900081BD20BD0FB6F894FA9AF99A0FBE019627
:1042A00008950E944321272F0C944421DC01CB0167
:1042B000FC01F999FECF06C0F2BDE1BDF89A319636
:1042C00000B40D9241505040B8F70895F894FFCFD4
:1042D0000501FF6504F204CF049B0468040101B3E7
:1042E000012808140A321E3F4D363959040C04D6F1
:1042F000039D033003490362037B030102030405AA
:0643000006070809000099
:00000001FF
