:100000000C9409020C944D020C944D020C944D0278
:100010000C944D020C944D020C944D020C944D0224
:100020000C944D020C944D020C94B10B0C94830C67
:100030000C94B41B0C944D020C944D020C944D0284
:100040000C944D020C9420040C944D020C944D021F
:100050000C944D020C945F1C0C944D020C944D02B8
:100060000C944D020C944D020C944D020C944D02D4
:100070000C944D020C944D020C944D020C944D02C4
:100080000C944D020C944D020C944D020C944D02B4
:100090000C944D020C944D020C944D020C944D02A4
:1000A0000C944D020C944D020C944D02E80C0A0D78
:1000B000F50D0A0DF50D4C0D6F0DF50DC40DD70D99
:1000C000D110D110FF10FF105411811123142314EB
:1000D00099112314901290124C136013CA13111427
:1000E00000F0F1A100E100E300E200D100D200D075
:1000F00004861B82C01E1F20212223242526272D93
:100100002E2A2B141A0815171C180C12132F303115
:1001100039041607090A0B0D0E0F33340028E100CD
:100120001D1B061905111036373800E5E0E3E20023
:10013000002C00000000E6E7C1E4353A3B3C3D3EC0
:100140003F4041424344454C01C252C30101B20108
:100150004901464748C40150514F010101010101C5
:100160004A4B000101000165C5C6C7AAA9A84D4EAA
:1001700000010101010000C80000000001010101AF
:10018000010101010101015F6061015601010101ED
:1001900001010101015C5D5E0158010101010101E4
:1001A000010101595A5B575500010100010101018C
:1001B00001016285635400010101010000C90000D2
:1001C0000000010101010000000001010102020321
:1001D0000405050607090A0B0C0E0F11121415175A
:1001E000191B1D1F212325282A2C2F313436393B7A
:1001F0003E414346494C4F5255585A5D6164676AC7
:100200006D707376797C7F8386898C8F9295989BAD
:100210009EA2A5A7AAADB0B3B6B9BCBEC1C4C6C99B
:10022000CBCED0D3D5D7DADCDEE0E2E4E6E8EAEB09
:10023000EDEEF0F1F3F4F5F6F8F9FAFAFBFCFDFD5A
:10024000FEFEFEFFFFFFFFFFFFFFFEFEFEFDFDFCCB
:10025000FBFAFAF9F8F6F5F4F3F1F0EEEDEBEAE873
:10026000E6E4E2E0DEDCDAD7D5D3D0CECBC9C6C433
:10027000C1BEBCB9B6B3B0ADAAA7A5A29E9B9895C6
:10028000928F8C898683807C797673706D6A6764BF
:10029000615D5A5855524F4C494643413E3B3936B1
:1002A00034312F2C2A282523211F1D1B1917151423
:1002B00012110F0E0C0B0A090706050504030202B2
:1002C0000101010000000A03470048003600300029
:1002D000000012036700650065006B0068006100A4
:1002E00063006B00000004030904090254000301C9
:1002F00000A03209040000010301010009211101DD
:100300000001223F000705810308000A09040100DB
:100310000103010200092111010001224D0007051E
:10032000820308000A0904020001030000000921F9
:10033000110100012236000705830308000A12019B
:10034000100100000008EDFE6060010001020001E4
:1003500005010980A101850216010026B7001A01D6
:10036000002AB700751095018100C0050C0901A194
:10037000018503160100269C021A01002A9C0275C1
:100380001095018100C005010902A1010901A10028
:100390000509190129051500250195057501810239
:1003A0009501750381010501093009311581257F0A
:1003B00095027508810609381581257F9501750814
:1003C0008106050C0A38021581257F950175088183
:1003D00006C0C005010906A101050719E029E715B6
:1003E00000250195087501810295017508810105B7
:1003F000081901290595057501910295017503916B
:10040000010507190029FF150025FF9506750881CC
:1004100000C011241FBECFEFDAE0DEBFCDBF04B6AF
:1004200003FE24C08091650290916602A09167024C
:10043000B09168028730904BA740B04BB9F410924E
:10044000650210926602109267021092680214BE52
:1004500084B7877F84BF88E10FB6F89480936000EB
:10046000109260000FBEE0E0F8E3099511E0A0E013
:10047000B1E0E6E0F9E402C005900D92A03AB107C0
:10048000D9F722E0A0EAB1E001C01D92A536B2077B
:10049000E1F70E9449080C9481240C940000CF934A
:1004A000DF93EC0161111FC00E94ED1982728093ED
:1004B000A0019A81992351F0882319F085E390E0F7
:1004C00002C089E290E00E94AB1909C0882319F0AC
:1004D00085E390E002C089E290E00E94CC19DF91B0
:1004E000CF910C94291ADF91CF9108959EE0799FC6
:1004F000F001112496E4899FE00DF11D1124E60F0F
:10050000F11DEC50FF4F84910895E82FF0E0EE0FBD
:10051000FF1FE05AF0408591949108952FB12095E6
:10052000822F817090E0799B03C020E030E002C010
:1005300022E030E0282B392B669B03C080E090E05E
:1005400002C084E090E0282B392B86B1992787FDE3
:100550009095809590958827990F881F9927F3E0AB
:10056000880F991FFA95E1F7282B392B369B03C08A
:1005700080E090E002C080E190E0282B392B83B12D
:10058000992787FD9095809590958827990F881FCA
:10059000992775E0880F991F7A95E1F7282B392B59
:1005A0004C9B03C0E0E0F0E002C0E0E4F0E02E2B62
:1005B0003F2B199B03C0E0E0F0E002C0E0E8F0E070
:1005C000E22BF32B189B03C060E070E002C060E0F8
:1005D00071E0CF01862B972B1D9B03C040E050E0BC
:1005E00002C040E052E0842B952B1C9B03C040E0EE
:1005F00050E002C040E054E0842B952B29B1332712
:1006000027FD3095209530952227330F221F332761
:10061000322F2227330F330F330F822B932B4E9B16
:1006200003C020E030E002C020E030E1822B932BB9
:100630001B9B03C020E030E002C020E030E2822BB0
:10064000932B08958AB18C7D8AB98BB18C7D8BB93F
:1006500080B38F7380BB81B38F7381BB0895823069
:1006600089F028F4882341F0813049F008958330DF
:1006700061F0843069F00895509A58980895519A1D
:1006800059980895869A8E980895879A8F98089514
:10069000559A5D9808950E94220380B38C7F80BB99
:1006A00081B3836081BB6E98769A8AB18F728AB962
:1006B0008BB1806D8BB987B18F7387B988B1806C2E
:1006C00088B984B1847484B985B18B6B85B9EBEA40
:1006D000F1E0A1EAB1E0119211921D921D9281E028
:1006E000E53BF807C1F708950F931F93CF93DF936E
:1006F000C1EAD1E010E005E0812F0E942F0380EADB
:100700008A95F1F70E948E022881398128173907CE
:1007100021F099838883009300010E9422031F5FC8
:100720002296153049F7809100018823C1F081504D
:1007300080930001882339F08FE99FE00197F1F75A
:1007400000C000000CC0ABEAB1E0E1EAF1E0819149
:1007500091918D939D9391E0EB3AF907C1F781E078
:10076000DF91CF911F910F910895E82FF0E0EE0FE8
:10077000FF1FE555FE4F808191810895089581FF07
:1007800002C0229A01C022982A9808958091B80147
:10079000811116C081E08093B8018091810088604A
:1007A00080938100809181008160809381008FB768
:1007B000F89493E09093890090ED909388008FBF18
:1007C00008952E9A08952E980895EFE6F0E080811E
:1007D000826080830895EFE6F0E080818D7F8083E2
:1007E00008958093B701269A882321F00E94C603BA
:1007F0000C94E5030E94EB030C94E3038091B70192
:1008000008958091B701813011F485E516C08230DA
:1008100089F48091B5018F5F8093B501E82FF0E0F6
:10082000EA53FE4FE491E093B6018F3F41F41092FA
:10083000B5010895833019F48FEF8093B6010895C0
:100840001F920F920FB60F9211242F933F934F9345
:100850005F936F937F938F939F93AF93BF93EF9328
:10086000FF938091B9018F5F8093B901909102014C
:10087000891306C01092B9010E94E1030E9401048D
:100880009091B9018091B601981302C00E94E303D0
:10089000FF91EF91BF91AF919F918F917F916F9158
:1008A0005F914F913F912F910F900FBE0F901F902E
:1008B00018958091D10108958FB182958170089526
:1008C00020915B022430F1F422E02093E9002FEF25
:1008D0003091E800215035FD06C035ED3A95F1F72D
:1008E00000002111F5CF2091E80025FF0BC040E06A
:1008F00050E065E070E00E94A4098091E8008E77E6
:100900008093E80008959091C80095FFFCCF8093F4
:10091000CE0008951F93CF93DF9300D01F92CDB7E1
:10092000DEB72091C701211173C08A3821E09207F8
:1009300009F460C070F58D3C910509F459C0A8F424
:10094000863B910509F450C030F4853B910509F0D0
:1009500090C01BEE86C0873B910509F447C0883BD9
:10096000910509F086C01EEE7CC0893E9105D1F14B
:1009700030F4823E910509F07CC018EE72C08A3EC8
:10098000910509F46DC08338914009F072C011EFF0
:1009900068C0843222E0920799F1A8F4843921E0FA
:1009A000920751F130F48239914009F062C013EF9F
:1009B00058C0813222E0920709F18332924009F057
:1009C00058C016EF4EC0863222E09207E9F0D0F010
:1009D000873222E09207D1F08A32924009F049C072
:1009E0001BEF3FC01AEE3DC01CEE3BC01DEE39C0F0
:1009F0001FEE37C012EF35C014EF33C015EF31C012
:100A000017EF2FC018EF2DC019EF2BC01AEF29C018
:100A100020915B02243081F523E029839B838A8324
:100A20002093E9008FEF9091E800815095FD06C07A
:100A300095ED9A95F1F700008111F5CF8091E800CE
:100A400085FF1AC040E050E063E070E0CE010196FF
:100A50000E94A4098091E8008E778093E8000CC082
:100A600019EE8AEA0E94830480E00E948304812FA9
:100A700001C088EA0E9483040F900F900F90DF91CD
:100A8000CF911F9108950F931F93CF93DF9300D0C1
:100A90001F92CDB7DEB78C018438910551F5809156
:100AA000C7018093C4010E945C04882349F081E05F
:100AB0009091C701913009F480E08093C70102C092
:100AC0001092C7018091C701811178C00E94E61B76
:100AD0000E94FE1B6093BC017093BD018093BE0118
:100AE0009093BF018091C7018093C4011092D101FE
:100AF00065C08638910599F48091C7018093C4013F
:100B000082E08093C7011092C6011092C501E4E40F
:100B1000F2E0119282E0E735F807D9F727C087386D
:100B2000910561F48091C3018F5F8093C30182308E
:100B300009F044C086EA0E94830440C088389105C9
:100B400021F487EA0E94830411C085389105B1F130
:100B50008938910559F48091C70181112FC0809186
:100B6000D10192E089278093D10128C080915B0256
:100B7000843021F582E089831B830A8383E080939C
:100B8000E9008FEF9091E800815095FD06C095ED4A
:100B90009A95F1F700008111F5CF8091E80085FF6B
:100BA0000DC040E050E063E070E0CE0101960E948D
:100BB000A4098091E8008E778093E8000F900F9051
:100BC0000F90DF91CF911F910F910895DF92EF92D7
:100BD000FF920F931F93CF93DF93CDB7DEB76A9742
:100BE0000FB6F894DEBF0FBECDBF8C011092C301CB
:100BF0008091C70181113CC00E94FE1B6093BC0123
:100C00007093BD018093BE019093BF01DD24D39406
:100C1000F8018081811101C0D12C80E090E0282F63
:100C20002195F801E80FF91F3781332321F087E080
:100C3000D82ED21A05C001978A3FFFEF9F0779F798
:100C400088EA8D0D0E948304E12CF12C8E2DED1489
:100C500008F0DFC0F801811102C0808103C0EE0DF1
:100C6000FF1D81810E948304FFEFEF1AFF0AEECF80
:100C7000823009F09AC08091C601811196C0F801B6
:100C8000208121FD04C025FB222720F901C021E09D
:100C9000F8018281893209F47FC0883209F46BC07F
:100CA0008A3271F4E091C501EE2311F0E15001C0E8
:100CB000E0E0E093C501F0E0EC5BFD4F108275C011
:100CC00021709CEF980F9A3130F4222311F0835C4D
:100CD00045C0835A43C092EE980F9A30C0F43AE070
:100CE000EAE1F1E0DE01119601900D923A95E1F70B
:100CF000222339F0E1E0F0E0EC0FFD1FE90FF11DD8
:100D000025C0873211F08D5E27C080E327C08C524A
:100D10008D3008F04AC09DE0E4E2F1E0DE011E966D
:100D200001900D929A95E1F79DE0E1E3F1E0DE019B
:100D3000119601900D929A95E1F790E0222341F0EF
:100D4000E1E0F0E0EC0FFD1FE80FF91F808104C027
:100D5000FE01E80FF91F8685882339F19091C501BE
:100D6000E92FF0E0EC5BFD4F808381E0890F8093F9
:100D7000C5018331D0F08091C501882369F085EAEF
:100D80000E94830404E412E0F80181918F01811133
:100D900038C080E00E9483048091C4018093C70121
:100DA0001092C6011092C50134C080915B0284305C
:100DB00081F581E08093E9008FEF9091E800815008
:100DC00095FD06C025ED2A95F1F700008111F5CFBC
:100DD0008091E80085FF1DC040E050E068E070E0D1
:100DE000C8010E94A4098091E8008E778093E800F2
:100DF00088E0F801A9ECB1E001900D928A95E1F745
:100E000008C00E948304F2E007351F0709F0BCCF39
:100E1000C0CF6A960FB6F894DEBF0FBECDBFDF918C
:100E2000CF911F910F91FF90EF90DF900895109256
:100E3000CD0089E18093CC0088E18093C9008EE0E9
:100E40008093CA0008950F931F93CF93DF93EC0113
:100E50008C01FE0101900020E9F73197EC1BFD0B9E
:100E6000C8018C1B9D0B8E179F0730F4F8018191F0
:100E70008F010E948304EDCFDF91CF911F910F91DD
:100E8000089587E591E00C94230781E691E00C94A6
:100E900023078EE691E00C942307CF9386E791E039
:100EA0000E942307C091C701C13081F40E94E61B54
:100EB0001092C1010E94FE1B609340027093410298
:100EC0008093420290934302C093C20180E090E07D
:100ED000CF910C94F10380E891E00E9423070C94D9
:100EE000B01B089589E891E00E9423071092BB018E
:100EF0001092C2018091C7018093C40181E0809368
:100F0000C7018093C0010E94682242E061EC81E049
:100F10000E94B00A42E061EC82E00E94B00A42E026
:100F200061EC83E00C94B00A80915D02833009F497
:100F300053C030F4813071F0823009F491C00895CB
:100F40008A3009F47DC08B3009F45EC0893009F025
:100F50009FC020C080915C02813A09F099C08091C5
:100F6000E800877F8093E8008091600290916102A1
:100F7000892B21F060E080E090E003C068E089EC1C
:100F800091E070E00E94ED098091E8008B778093FA
:100F9000E800089580915C02813209F079C0809167
:100FA000600290916102892B09F072C08091E80083
:100FB000877F8093E8008091E80082FD05C08091E2
:100FC0005B028111F8CF64C08091F1008093D10160
:100FD0008091E8008B7758C080915C02813A09F0DB
:100FE00057C08091600290916102892B09F050C036
:100FF0008091E800877F8093E8008091E80080FF7F
:10100000FCCF809111013BC080915C02813209F0DC
:101010003FC08091600290916102892BC9F5809157
:10102000E800877F8093E8000E94E50A90915E02C5
:1010300081E0911101C080E0809311010C9444146F
:1010400080915C02813221F58091E800877F809356
:10105000E8000E94E50A80915F028093C80108952C
:1010600080915C02813AA1F48091E800877F8093AF
:10107000E8008091E80080FFFCCF8091C801809358
:10108000F1008091E8008E778093E8000C94E50AE7
:1010900008950F931F93CF9384B7877F84BF88E110
:1010A0000FB6F89480936000109260000FBE90E03D
:1010B00080E80FB6F89480936100909361000FBEB2
:1010C00085BF85BF84988C980E94360B0E94930B35
:1010D0008091E20084608093E2000E94610E0E9491
:1010E00017070E945C048093C001811110C00E9408
:1010F000E61B0E94FE1B6093BC017093BD018093B0
:10110000BE019093BF018091C7018093C401789480
:101110000E94630E0E945C04811104C080E090E094
:101120000E94F10383E091E00E940D0EC1E08091E6
:10113000C201882309F443C06091400270914102CA
:1011400080914202909143020E94331C65367105E2
:1011500081059105A0F10E945C048823C1F0809173
:10116000C1018F5F8093C1010E94FE1B609340020A
:101170007093410280934202909343028091C10197
:101180008B30E8F01092C201C093BB0118C00E94DE
:10119000E61B0E94FE1B6093BC017093BD0180930F
:1011A000BE019093BF018091C7018093C40110924A
:1011B000C7011092C2011092C0011092D10180911A
:1011C000C001811127C06091BC017091BD01809167
:1011D000BE019091BF010E94331C00910D0110913E
:1011E0000E0120910F0130911001061717072807F3
:1011F000390780F40E94FE038093BA0180E090E0FA
:101200000E94F1038FE39CE90197F1F700C0000011
:10121000C093BB018091BB01882321F180915B02C7
:10122000853001F50E94731B0E949B1B8823B1F33C
:101230001092BB018091C001882319F00E948E0991
:10124000EDCF8091BA0181110E9468220E94E61BB5
:101250000E94FE1B6093BC017093BD018093BE0190
:101260009093BF010E946B0E62CF292F332723304A
:101270003105A9F06CF42130310509F442C0223067
:10128000310509F043C084E590E02AEE32E042C027
:1012900021323105C9F02232310519F137C09927C1
:1012A0008130910541F08230910541F0892B71F533
:1012B000E6EEF2E005C0E2EDF2E002C0E6ECF2E0BC
:1012C000849190E09F0126C0633000F5E62FF0E0A6
:1012D000EE0FFF1FE95BFE4F2081318189E090E036
:1012E00019C0633098F4E62FF0E0DF01AA0FBB1FAE
:1012F000AF5BBE4F2D913C91E25CFE4F808190E050
:1013000009C082E190E02EE333E004C080E090E089
:1013100020E030E0FA0131832083089580E189BD27
:1013200082E189BD09B400FEFDCF8091D8008F7D98
:101330008093D8008091E00082608093E0008091EB
:10134000E00081FDFCCF0895CF92DF92EF92FF92F3
:101350000F931F93CF93DF937C018B01EA010E94CF
:10136000060B811131C0209731F088819981081BCB
:10137000190BE80EF91EC12CD12C0115110519F11C
:101380008091E80085FD14C08091E8008E778093FD
:10139000E800209741F0888199818C0D9D1D9983EB
:1013A000888385E011C00E94060B882331F30CC0AE
:1013B000F70181917F018093F10001501109FFEF46
:1013C000CF1ADF0ADACF80E0DF91CF911F910F9122
:1013D000FF90EF90DF90CF900895209162023091BE
:1013E00063022617370748F06115710539F420911B
:1013F000E8002E772093E80001C0B901FC0120E04D
:1014000061157105B9F180915B02882309F440C030
:10141000853009F43FC08091E80083FD3DC0809194
:10142000E80082FF06C08091E80082FF26C080E0CD
:1014300008958091E80080FFE3CF2091F300809130
:10144000F20090E0922B6115710551F08830910502
:1014500038F421912093F100615071090196F3CF86
:1014600021E0089709F020E08091E8008E778093D2
:10147000E800C6CF2111C7CFD6CF80915B02882369
:1014800039F0853039F08091E80083FFCCCF04C07B
:1014900082E0089583E0089581E00895209162023A
:1014A000309163022617370748F06115710539F44A
:1014B0002091E8002E772093E80001C0B901FC01DB
:1014C00020E061157105C1F180915B02882309F468
:1014D00041C0853009F440C08091E80083FD3EC0E2
:1014E0008091E80082FF06C08091E80082FF27C05B
:1014F00080E008958091E80080FFE3CF2091F30021
:101500008091F20090E0922B6115710559F08830BE
:10151000910540F424912093F100319661507109B6
:101520000196F2CF21E0089709F020E08091E800D1
:101530008E778093E800C5CF2111C6CFD5CF80919B
:101540005B02882339F0853039F08091E80083FF11
:10155000CBCF04C082E0089583E0089581E0089530
:10156000982F973058F59093E900981739F07091BB
:10157000EC002091ED005091F00003C0242F762F55
:1015800050E021FF19C03091EB003E7F3093EB001B
:101590003091ED003D7F3093ED003091EB003160F4
:1015A0003093EB007093EC002093ED005093F0002B
:1015B0002091EE0027FF07C09F5FD3CF8F708093ED
:1015C000E90081E0089580E0089580915C0287FD44
:1015D00005C08091E80080FF0EC012C08091E80035
:1015E00082FD05C080915B028111F8CF0895809142
:1015F000E8008B7708C080915B028111EACF0895E3
:101600008091E8008E778093E80008958091E4004F
:101610009091E50045E62091EC0020FF21C020914B
:10162000E80020FD21C020915B02222389F02530B3
:1016300089F02091EB0025FD0FC02091E40030914E
:10164000E5002817390739F3415041F0C901E3CFCC
:1016500082E0089583E0089581E0089584E008958C
:101660002091E80022FFDFCF80E008950E94A40BC4
:101670000E94AC0BE0EEF0E0808181608083E8EDB9
:10168000F0E080818F77808319BCA7EDB0E08C916A
:101690008E7F8C9380818F7E808310925A02089572
:1016A0000F931F93CF93DF930E94A40B0E94AC0B68
:1016B000C8EDD0E088818F778883888180688883AF
:1016C00088818F7D888319BC10925B02109257022B
:1016D000109259021092580200EE10E0F801808139
:1016E0008B7F808388818160888342E060E080E036
:1016F0000E94B00AE1EEF0E080818E7F8083E2EE0E
:10170000F0E0808181608083808188608083F8013F
:1017100080818E7F8083888180618883DF91CF91F3
:101720001F910F910895E8EDF0E080818F7E808316
:10173000E7EDF0E080818160808384E082BF81E01A
:1017400080935A020C94500BE8EDF0E080818E7F7C
:1017500080831092E20008951092DA001092E10066
:1017600008951F920F920FB60F9211242F933F935B
:101770004F935F936F937F938F939F93AF93BF9399
:10178000EF93FF938091E10082FF0BC08091E20014
:1017900082FF07C08091E1008B7F8093E1000E946F
:1017A00071078091DA0080FF1FC08091D80080FF10
:1017B0001BC08091DA008E7F8093DA008091D9007F
:1017C00080FF0DC080E189BD82E189BD09B400FEC2
:1017D000FDCF81E080935B020E94410705C019BCE8
:1017E00010925B020E9445078091E10080FF19C0C2
:1017F0008091E20080FF15C08091E2008E7F80938F
:10180000E2008091E20080618093E2008091D80044
:1018100080628093D80019BC85E080935B020E94AF
:101820004D078091E10084FF30C08091E20084FF89
:101830002CC080E189BD82E189BD09B400FEFDCFE5
:101840008091D8008F7D8093D8008091E1008F7EB9
:101850008093E1008091E2008F7E8093E20080918E
:10186000E20081608093E20080915702882311F0AA
:1018700084E007C08091E30087FF02C083E001C0DD
:1018800081E080935B020E946B078091E10083FFFF
:1018900029C08091E20083FF25C08091E100877F0D
:1018A0008093E10082E080935B0210925702809166
:1018B000E1008E7F8093E1008091E2008E7F809333
:1018C000E2008091E20080618093E20042E060E00B
:1018D00080E00E94B00A8091F00088608093F00060
:1018E0000E944907FF91EF91BF91AF919F918F9116
:1018F0007F916F915F914F913F912F910F900FBE0C
:101900000F901F9018951F920F920FB60F921124EF
:101910002F933F934F935F936F937F938F939F93F7
:10192000AF93BF93CF93EF93FF93C091E900CF7034
:101930008091EC001092E9008091F000877F809305
:10194000F00078940E94BF0C1092E9008091F000A2
:1019500088608093F000C093E900FF91EF91CF91F0
:10196000BF91AF919F918F917F916F915F914F91B7
:101970003F912F910F900FBE0F901F9018951F93BE
:10198000CF93DF93CDB7DEB7AA970FB6F894DEBF3B
:101990000FBECDBFECE5F2E08091F100819322E033
:1019A000E436F207C9F70E9494078091E80083FFAC
:1019B0001CC120915C0230915D02832F90E08A303F
:1019C000910508F012C1FC01EA5AFF4F0C9436242D
:1019D000203881F0223809F008C1809160028F70B0
:1019E0008093E9008091EB0085FB882780F91092B5
:1019F000E90006C0809158029091590291118260CD
:101A00009091E800977F9093E8008093F100109206
:101A1000F100C5C0822F8D7F09F0E7C0222319F0A5
:101A2000223061F0E2C080915E02813009F0DDC0B9
:101A3000333009F080E08093590228C080915E0223
:101A4000811124C0209160022F7009F4CEC0209330
:101A5000E9008091EB0080FF19C08091EB003330EA
:101A600011F4806211C080618093EB0081E090E00E
:101A7000022E01C0880F0A94EAF78093EA001092C0
:101A8000EA008091EB0088608093EB001092E900FF
:101A90008091E800877F86C02111A7C010915E0267
:101AA0001F778091E3008078812B8093E300809101
:101AB000E800877F8093E8000E94E50A8091E800B3
:101AC00080FFFCCF8091E30080688093E3001123C6
:101AD00011F083E001C082E080935B0286C0205851
:101AE000223008F082C080915E0290915F028C3DAE
:101AF00023E0920779F583E08A838AE289834FB7EE
:101B0000F894DE01139620E03EE051E2E32FF0E08E
:101B100050935700E49120FF03C0E295EF703F5FC0
:101B2000EF708E2F90E0EA3010F0C79601C0C0969B
:101B30008D939D932F5F243149F74FBF8091E8002B
:101B4000877F8093E8006AE270E0CE0101960E94F0
:101B5000ED0914C0AE014F5F5F4F609160020E94BB
:101B60003509009709F441C02091E800277F2093B0
:101B7000E800BC0189819A810E944E0A8091E800A8
:101B80008B778093E80031C0203879F58091E800A8
:101B9000877F8093E800809157028093F1008091C5
:101BA000E8008E778093E8000E94E50A1EC02111AC
:101BB0001CC090915E029230C0F48091E800877F53
:101BC0008093E800909357020E94E50A80915702A3
:101BD000811104C08091E30087FF02C084E001C04E
:101BE00081E080935B020E9472078091E80083FF8E
:101BF0000AC08091E800877F8093E8008091EB0025
:101C000080628093EB00AA960FB6F894DEBF0FBEF9
:101C1000CDBFDF91CF911F9108959093D70180930D
:101C2000D6010895E091D601F091D701309721F0C7
:101C30000190F081E02D099480E00895E091D601B3
:101C4000F091D701309721F00280F381E02D0994C3
:101C50000895E091D601F091D701309721F00480EA
:101C6000F581E02D099408952091D4013091D5019A
:101C70008217930771F09093D5018093D401E0917E
:101C8000D601F091D701309721F00680F781E02D41
:101C9000099408952091D2013091D30182179307BE
:101CA00071F09093D3018093D201E091D601F0912D
:101CB000D701309721F00084F185E02D0994089533
:101CC00008950C94600E0E94DD1B0E944B030E943D
:101CD000EE1C0C9468225F926F927F928F929F927B
:101CE000AF92BF92CF92DF92EF92FF920F931F932A
:101CF000CF93DF93CDB7DEB72A970FB6F894DEBF48
:101D00000FBECDBF0E94740399EDC92E91E0D92E6C
:101D100000E010E0AA24A394B12C502E802F0E9442
:101D2000B5033C01F601E190F1906F01E826F92638
:101D3000E114F104B1F40F5F1F4F0530110569F78D
:101D40008FEF89838A831B820E94F21B8160782F28
:101D50009D838C8349815A816B818D810E94240FE0
:101D60003AC080912E0281FD0E94BE0320E030E047
:101D70004501022E02C0880C991C0A94E2F7C401A6
:101D80008E219F21892B09F12E835F826820792083
:101D900081E0672809F480E088870E94F21B816057
:101DA000782F9A8789874E815F8168858A850E940E
:101DB000240FF801EE0FFF1FE752FE4F8081918143
:101DC000882599259183808306C02F5F3F4F2E3051
:101DD000310571F6B0CF0E94B31F1091D8010E9457
:101DE000120E1817D9F00E94120E8093D8012A966D
:101DF0000FB6F894DEBF0FBECDBFDF91CF911F911C
:101E00000F91FF90EF90DF90CF90BF90AF909F9099
:101E10008F907F906F905F900C94BF032A960FB6BF
:101E2000F894DEBF0FBECDBFDF91CF911F910F9110
:101E3000FF90EF90DF90CF90BF90AF909F908F90EA
:101E40007F906F905F900895CF93DF93CDB7DEB70B
:101E50002B970FB6F894DEBF0FBECDBF4F835887C8
:101E600069877A878B87DE01119686E0FD011192E2
:101E70008A95E9F785E0FE01379601900D928A95E3
:101E8000E1F749815A816B817C818D819E810E941D
:101E900010172B960FB6F894DEBF0FBECDBFDF91A3
:101EA000CF910895CF93C82F882309F4C7C08238F3
:101EB00059F40E94120E81FDC1C089E30E94AB1942
:101EC0000E94291A89E30CC0833879F40E94120E0B
:101ED00080FDB4C083E50E94AB190E94291A83E5F6
:101EE0000E94CC19CF910C94291A843859F40E947D
:101EF000120E82FDA3C087E40E94AB190E94291A2A
:101F000087E4EECF8CEF8C0F813A78F4C93321F45B
:101F100089E890E00E94340E8C2F0E94D321811119
:101F20008DC08C2F0E94AB19DDCF80E28C0F8830E2
:101F300048F4C77081E001C0880FCA95EAF70E9493
:101F4000F019D0CF8BE58C0F833078F4C53A29F0A7
:101F5000C63A31F482E890E005C081E890E002C022
:101F600083E890E0CF910C94340E88E58C0F833198
:101F700008F064C0C83A39F1C93A41F1CA3A49F1A6
:101F8000CB3A51F1CC3A59F1CD3A61F1C03B69F10C
:101F9000CE3A71F1CF3A79F1C13B81F1C23B89F17F
:101FA000C33B91F1C43B99F1C53BA1F1C63BA9F1FB
:101FB000C73BB1F1C83BB9F1C93BC1F1CA3BC9F557
:101FC0008AE292E038C082EE90E035C089EE90E07F
:101FD00032C08AEE90E02FC085EB90E02CC086EBFB
:101FE00090E029C087EB90E026C08CEC90E023C005
:101FF0008DEC90E020C083E891E01DC08AE891E07C
:102000001AC082E991E017C084E991E014C081E22E
:1020100092E011C083E292E00EC084E292E00BC035
:1020200085E292E008C086E292E005C087E292E095
:1020300002C080E090E0CF910C944A0ECF910895B9
:10204000CF93C82F882309F455C0823859F40E94D1
:10205000120E81FF4FC089E30E94AB190E94291A1A
:1020600089E30CC0833879F40E94120E80FF42C0CD
:1020700083E50E94AB190E94291A83E50E94CC19BE
:10208000CF910C94291A843859F40E94120E82FFC1
:1020900031C087E40E94AB190E94291A87E4EECF71
:1020A0008CEF8C0F813A40F4C93321F485E890E03D
:1020B0000E94340E8C2FE2CF80E28C0F883048F4DF
:1020C000C77081E001C0880FCA95EAF70E94F6192F
:1020D000D7CF8BE58C0F833028F480E090E0CF9150
:1020E0000C94340EC85AC33128F480E090E0CF91AC
:1020F0000C944A0ECF910895882321F00E94F01984
:102100000C94291A0895882321F00E94F6190C9442
:10211000291A0895CF92DF92EF92FF920F931F93A7
:10212000CF93DF93CDB7DEB728970FB6F894DEBF15
:102130000FBECDBF8C0185E0F801DE011196019044
:102140000D928A95E1F7F80140813181F280258175
:1021500022952F7083819481892B31F03F3F31F498
:1021600081E04F3F19F403C081E001C080E080FDB1
:102170006AC349833A8389819A812F830E946919AE
:102180009E8388870E9468190E943B184E81E42F25
:10219000E295EF70F0E0E05AFF4F2F8168850C94D4
:1021A0003624842F807F142F1F70882311F01295FE
:1021B000107FFF2059F0112309F449C2812F68874D
:1021C0000E94001A0E94291A688541C2862F0E9427
:1021D0002010112309F437C3812F0E94061A289674
:1021E0000FB6F894DEBF0FBECDBFDF91CF911F9128
:1021F0000F91FF90EF90DF90CF900C94291A342F1D
:10220000307F842F8F70303211F08295807F66236B
:1022100019F0613009F12AC0FF20A1F0222381F1D9
:10222000213071F528960FB6F894DEBF0FBECDBFF2
:10223000DF91CF911F910F91FF90EF90DF90CF90A2
:102240000C94101A222319F0213009F4FCC28E8359
:102250000E94131A8E817FC1FF2021F0263008F0E2
:10226000F2C20EC0253008F0EEC275C1FF20C1F0E9
:10227000222331F0F801958190FFE9C19F70958389
:1022800028960FB6F894DEBF0FBECDBFDF91CF9179
:102290001F910F91FF90EF90DF90CF900C947C10E6
:1022A000222309F458C1E7C1242F269526952370CF
:1022B00030E02115310521F02130310551F0C3C244
:1022C000FF2021F0862F942F93708DC280E090E044
:1022D0008AC2FF2021F0862F942F937002C080E0E5
:1022E00090E028960FB6F894DEBF0FBECDBFDF9109
:1022F000CF911F910F91FF90EF90DF90CF900C94B2
:102300004A0E862FFF2019F00E94BB1E02C00E94B9
:10231000231F28960FB6F894DEBF0FBECDBFDF9106
:10232000CF911F910F91FF90EF90DF90CF900C9481
:10233000A81F842F837009F076C0F11084C2262F65
:10234000229526952770220F220F862F8F70C82E78
:10235000D12CE12CF12C022E04C0CC0CDD1CEE1C87
:10236000FF1C0A94D2F764FF10C06FE070E080E0B9
:1023700090E004C0660F771F881F991F2A95D2F737
:10238000609570958095909503C060E070E0CB01FA
:10239000242F269526952370422F50E04230510578
:1023A000D1F04330510559F16C297D298E299F299F
:1023B0004130510541F128960FB6F894DEBF0FBEAB
:1023C000CDBFDF91CF911F910F91FF90EF90DF90E4
:1023D000CF900C9460186C297D298E299F2928960E
:1023E0000FB6F894DEBF0FBECDBFDF91CF911F9126
:1023F0000F91FF90EF90DF90CF900C947A180E948D
:102400006018C701B60128960FB6F894DEBF0FBE5C
:10241000CDBFDF91CF911F910F91FF90EF90DF9093
:10242000CF900C944618FF2019F0842F817001C0C2
:102430008695882309F407C2262F229526952770B2
:10244000220F220F862F8F70C82ED12CE12CF12C59
:10245000022E04C0CC0CDD1CEE1CFF1C0A94D2F72B
:1024600064FF10C06FE070E080E090E004C0660F91
:10247000771F881F991F2A95D2F7609570958095D0
:10248000909503C060E070E0CB01242F269526953F
:102490002370422F50E042305105D1F043305105B6
:1024A00059F16C297D298E299F294130510541F12F
:1024B00028960FB6F894DEBF0FBECDBFDF91CF9147
:1024C0001F910F91FF90EF90DF90CF900C943419F3
:1024D0006C297D298E299F2928960FB6F894DEBF96
:1024E0000FBECDBFDF91CF911F910F91FF90EF9065
:1024F000DF90CF900C944E190E943419C701B60199
:1025000028960FB6F894DEBF0FBECDBFDF91CF91F6
:102510001F910F91FF90EF90DF90CF900C941A19BC
:10252000603F49F118F4603E48F48CC0623F09F402
:1025300051C0E0F1633F09F461C084C0162F1F70E1
:10254000842F8F71FF2021F00E94B318812F98CE25
:102550000E94D418812F28960FB6F894DEBF0FBEC4
:10256000CDBFDF91CF911F910F91FF90EF90DF9042
:10257000CF900C948310FF20A9F0253008F063C1A0
:10258000842F8F7128960FB6F894DEBF0FBECDBF93
:10259000DF91CF911F910F91FF90EF90DF90CF903F
:1025A0000C94F918263008F04EC1EACFFF20A1F0B4
:1025B000842F8F7128960FB6F894DEBF0FBECDBF63
:1025C000DF91CF911F910F91FF90EF90DF90CF900F
:1025D0000C94B318FF2061F3842F8F7128960FB6E7
:1025E000F894DEBF0FBECDBFDF91CF911F910F9149
:1025F000FF90EF90DF90CF900C94D418FF2091F0D3
:10260000842F8F7128960FB6F894DEBF0FBECDBF12
:10261000DF91CF911F910F91FF90EF90DF90CF90BE
:102620000C949E1828960FB6F894DEBF0FBECDBF4F
:10263000DF91CF911F910F91FF90EF90DF90CF909E
:102640000C949418FF20A1F0222309F4B1CF862F17
:1026500028960FB6F894DEBF0FBECDBFDF91CF91A5
:102660001F910F91FF90EF90DF90CF900C94520F3D
:10267000222309F4B1CF862F28960FB6F894DEBF37
:102680000FBECDBFDF91CF911F910F91FF90EF90C3
:10269000DF90CF900C9420104F70C8010E94701BE7
:1026A00028960FB6F894DEBF0FBECDBFDF91CF9155
:1026B0001F910F91FF90EF90DF90CF900C94BD177A
:1026C000F110C1C0942F9F70492F50E04230510546
:1026D00009F440C0BCF44115510561F14130510588
:1026E00009F0B1C028960FB6F894DEBF0FBECDBF7B
:1026F000DF91CF911F910F91FF90EF90DF90CF90DE
:102700000C94902243305105A9F14430510509F051
:102710009AC0862F28960FB6F894DEBF0FBECDBFA5
:10272000DF91CF911F910F91FF90EF90DF90CF90AD
:102730000C94E42228960FB6F894DEBF0FBECDBFEE
:10274000DF91CF911F910F91FF90EF90DF90CF908D
:102750000C94792228960FB6F894DEBF0FBECDBF39
:10276000DF91CF911F910F91FF90EF90DF90CF906D
:102770000C94AC2228960FB6F894DEBF0FBECDBFE6
:10278000DF91CF911F910F91FF90EF90DF90CF904D
:102790000C94BF22942F9F70892F90E08230910576
:1027A000A1F02CF4009779F1019739F04CC08330F7
:1027B000910581F0049799F046C0FF2019F084E854
:1027C00090E011C085E890E00EC0FF20D9F386E8C4
:1027D00090E009C0FF20B1F387E890E004C0FF203B
:1027E00089F388E890E028960FB6F894DEBF0FBE14
:1027F000CDBFDF91CF911F910F91FF90EF90DF90B0
:10280000CF900C94340EFF20F1F090913F0294FB96
:10281000882780F921E0822780FB94F990933F027A
:1028200012C04F70C80128960FB6F894DEBF0FBED5
:10283000CDBFDF91CF911F910F91FF90EF90DF906F
:10284000CF900C944F0228960FB6F894DEBF0FBEBF
:10285000CDBFDF91CF911F910F91FF90EF90DF904F
:10286000CF9008950E940D1A0E94DF190E94291A24
:102870000E9454200E94A81F80E090E00E94340E25
:1028800080E090E00C944A0E0E94FD190C943214E2
:102890000E946919292F22952F7030E02C303105C4
:1028A0004CF42A3031056CF42250310922303105C4
:1028B00090F407C02C30310551F02F30310539F03C
:1028C0000AC0803E10F0803F31F481E0089593FB10
:1028D000882780F9089580E00895CF93DF9300D092
:1028E00000D01F92CDB7DEB70F900F900F900F90D2
:1028F0000F90DF91CF910895CF93DF9300D000D058
:1029000000D0CDB7DEB726960FB6F894DEBF0FBE67
:10291000CDBFDF91CF9108951F93CF93DF93C091E7
:10292000E30116E08091E401C81799F0D0E01C9F04
:10293000F0011D9FF00D1124EB51FE4F408151819C
:1029400062817381848195810E947C142196C77075
:10295000E9CFDF91CF911F910895409115025091D9
:1029600016026091170270911802809119029091DD
:102970001A020C947C14CF9380911A0282958F7066
:1029800009F05FC080911702882309F45AC0209192
:10299000E301A091E401609115027091160280910B
:1029A00018029091190231E06F3F09F030E0B32F27
:1029B000C6E02A1709F445C0009721F07F3F21F4B3
:1029C0004B2F03C041E001C040E030E040FD35C086
:1029D000C29FF001C39FF00D1124EB51FE4F4181C6
:1029E00074132BC04081641328C04281411125C05B
:1029F000438154814817590710F441505109481B2D
:102A0000590B483C5105C8F480911A028F708061BF
:102A100080931A0286E0829FF001839FF00D1124BB
:102A2000E651FE4F80818F708061808385E192E066
:102A30000E948A10CF910C948C142F5F3F4F277007
:102A4000B8CFCF910895CF92DF92EF92FF920F937C
:102A50001F93CF93DF93CDB7DEB762970FB6F8948D
:102A6000DEBF0FBECDBF8C0185E0F801DE011D96F3
:102A700001900D928A95E1F7D8014C9111965C91E5
:102A8000119712966C9112971396ED90FC901497F3
:102A900070911502E09116022091180230911902EE
:102AA0002115310531F0EF3F31F481E07F3F19F41A
:102AB00003C081E001C080E0B82FB170CB2E80FD53
:102AC0006CC1D0901702DD2009F4F5C0F0911A0214
:102AD000E216F30638F0C701821B930B883C910580
:102AE00048F09BC0209530952E0D3F1D283C3105A8
:102AF00008F093C08F2F807F09F052C0E51314C0F7
:102B0000741312C0D62E61110FC0FF70F061F093E4
:102B10001A020E94AD1485E192E00E948A10809111
:102B20001A02F80185836CC1EF2831F05F3F31F460
:102B300081E04F3F19F403C081E001C080E080FDD7
:102B400003C081E0862701C080E0F82FF170FF2EDE
:102B500080FF1CC08091E3012091E40136E08217E0
:102B600009F428C190E0389FF001399FF00D11243D
:102B7000EB51FE4F7181571306C07081471303C09C
:102B80007281671303C001968770E9CFD62E662342
:102B900009F436C180911A02816080931A0253C0F1
:102BA000E51308C0741306C0611104C0D80115965E
:102BB000FC93AEC04D875E878D859E856A8B0E9493
:102BC00048146A89882329F1D62E662311F12091B1
:102BD0001A02822F82958F7090E002970CF460C0E9
:102BE000809115029091160298878F831986FB8633
:102BF000EA862C87CE01079651C0E51731F14D8743
:102C00005E878D859E856A8B0E9448146A89811132
:102C10002EC0C8010E948A10A4C08F2F807F69F740
:102C20007E2DF98AE88A89890E946D1485E192E0F7
:102C30000E948A10E5E1F2E086E0DF011D928A95AC
:102C4000E9F70E94AD14D12CDBC07413D8CF611109
:102C5000D6CFD8011596FC93C8010E948A10E5E1F1
:102C6000F2E086E0DF011D928A95E9F7C9C0D62E11
:102C7000662379F220911A02822F82958F7090E05C
:102C8000029774F080911502909116029A838983BD
:102C90001B82FD82EC822E83CE0101960E948A1057
:102CA00086E0F801A5E1B2E001900D928A95E1F786
:102CB0000E94BB146FC0E216F30628F0C701821B06
:102CC000930B9C0104C0209530952E0D3F1D283C90
:102CD000310508F052C0D62E662309F49ACFE513C9
:102CE0002CC074132AC080911A0280FD1DC0982F39
:102CF00092959F70C9F0D80115968C9315979F30C7
:102D000039F09F5F9295907F8F70892B15968C93E9
:102D1000C8010E948A1086E0F801A5E1B2E00190A6
:102D20000D928A95E1F736C086E0F801A5E1B2E0A0
:102D300001900D928A95E1F763C04D875E878D857E
:102D40009E850E944814882379F086E0F801A5E169
:102D5000B2E001900D928A95E1F70E94BB140E94A7
:102D6000AD14DD24D3944CC080911A02816080930D
:102D70001A02C8010E948A1043C07E2DF98AE88A8F
:102D800089890E946D14E5E1F2E086E0DF011D9281
:102D90008A95E9F70E94AD1433C0662309F439CF50
:102DA0004D875E878D859E850E944814882309F48F
:102DB00030CFCBCF4D875E878D859E850E94691968
:102DC000292F22952F7030E0223031052CF49F708E
:102DD00041F0811106C00CC0243031052CF49F70E5
:102DE00049F4805E883020F0C8010E948A10CF2C00
:102DF000DC2C06C0D80115969C91907F91F7F8CFF6
:102E00008D2D62960FB6F894DEBF0FBECDBFDF9159
:102E1000CF911F910F91FF90EF90DF90CF90089589
:102E20001F93CF93DF93CDB7DEB72C970FB6F894EF
:102E3000DEBF0FBECDBF4F83588769877A878B87E8
:102E40009C87CE0107960E9423158823C1F02F810D
:102E500038858A859B85892B31F03F3F11F080E0D2
:102E600003C02F3FE1F781E0811147C04F815885B2
:102E700069857A858B859C850E947C143EC086E09E
:102E8000FE013796DE01119601900D928A95E1F7C9
:102E9000FF81E8854A855B854115510531F0EF3F9B
:102EA00031F481E0FF3F19F403C081E001C080E00C
:102EB00080FD23C02091E40130E0C90101968770B4
:102EC00099276091E30170E086179707F1F1F98384
:102ED000EA835D834C8396E0929FD001939FB00D6F
:102EE0001124AB51BE4FFE01319601900D929A957F
:102EF000E1F78093E4010E948C1416E08091E301D5
:102F00009091E401891779F1189FC00111248B5128
:102F10009E4F0E942315882331F1E091E3011E9F0B
:102F2000F0011124EB51FE4F408151816281738188
:102F3000848195810E947C148091E30190E0019648
:102F4000877099278093E301D9CF0E94441410928F
:102F5000E4011092E301E5E1F2E086E0DF011D9279
:102F60008A95E9F7CACF2C960FB6F894DEBF0FBE4C
:102F7000CDBFDF91CF911F910895EF92FF920F93F4
:102F80001F93CF93DF93FC01009709F46DC0F12CE0
:102F9000EE24E394EF0121968491843740F4843049
:102FA00008F053C0813081F0823021F15DC0853757
:102FB00009F445C0B0F19CE7980F903708F054C071
:102FC0008F770E94201043C08F010E5F1F4FFE01BC
:102FD000849190E2980F983050F48770FE2D01C0D4
:102FE000FF0F8A95EAF78F2F0E94001A15C00E94E2
:102FF000520F12C08F010E5F1F4FFE01849190E2AD
:10300000980F983058F48770FE2D01C0FF0F8A95F5
:10301000EAF78F2F0E94061AE80119C00E942010BB
:10302000FBCFCF010296FE01C491CC2361F0EFE902
:10303000FFE03197F1F700C00000C150F6CFCF019B
:103040000296FE01F490EC0102C00E94520F8F2DF7
:10305000882341F0EFE9FFE03197F1F700C000006D
:103060008150F6CFFE0196CFDF91CF911F910F9146
:10307000FF90EF900895089560931F0270932002CF
:1030800080932102909322020C9432140F931F9389
:1030900000911F0210912002209121023091220202
:1030A000062B172B282B392B00931F02109320027D
:1030B00020932102309322021F910F910C9432141D
:1030C0000F931F9300911F02109120022091210263
:1030D00030912202062317232823392300931F024D
:1030E0001093200220932102309322021F910F910E
:1030F0000C9432140F931F9300911F021091200221
:1031000020912102309122020627172728273927EC
:1031100000931F0210932002209321023093220279
:103120001F910F910C94321410921B0210921C02EA
:1031300010921D0210921E020C94321441E050E0D5
:1031400060E070E004C0440F551F661F771F8A952A
:10315000D2F740931B0250931C0260931D027093A0
:103160001E020C94321441E050E060E070E004C0B4
:10317000440F551F661F771F8A95D2F780911B0257
:1031800090911C02A0911D02B0911E02842B952BE0
:10319000A62BB72B80931B0290931C02A0931D02B9
:1031A000B0931E020C94321441E050E060E070E0F5
:1031B00004C0440F551F661F771F8A95D2F74095AC
:1031C00050956095709580911B0290911C02A09182
:1031D0001D02B0911E0284239523A623B72380935A
:1031E0001B0290931C02A0931D02B0931E020C942C
:1031F000321441E050E060E070E004C0440F551F1D
:10320000661F771F8A95D2F780911B0290911C024E
:10321000A0911D02B0911E0284279527A627B727EB
:1032200080931B0290931C02A0931D02B0931E0278
:103230000C9432140F931F9300911B0210911C02E7
:1032400020911D0230911E02062B172B282B392BA3
:1032500000931B0210931C0220931D0230931E0248
:103260001F910F910C9432140F931F9300911B0226
:1032700010911C0220911D0230911E02062317237B
:103280002823392300931B0210931C0220931D0254
:1032900030931E021F910F910C9432140F931F93C1
:1032A00000911B0210911C0220911D0230911E0200
:1032B000062717272827392700931B0210931C0283
:1032C00020931D0230931E021F910F910C94321413
:1032D0000895CF92DF92EF92FF920F931F93CF93B7
:1032E000DF93EC01C0901F02D0902002E0902102F9
:1032F000F090220280911B0290911C02A0911D026D
:10330000B0911E02C82AD92AEA2AFB2A0FE110E04E
:10331000B701A601002E04C076956795579547958D
:103320000A94D2F740FF07C0BE01802F0E94FD1A09
:103330008130910539F40150110950F7BE0180E048
:103340000E94FD1ADF91CF911F910F91FF90EF9096
:10335000DF90CF900895409112015091130120E029
:1033600030E09FEFFA01E20FF31F6281681799F0D6
:103370009F3F19F4611101C0922F2F5F3F4F2630FC
:10338000310581F79F3F39F0FA01E90FF11D97FDF3
:10339000FA95828308950895409112015091130186
:1033A00020E030E0FA01E20FF31F9281981301C090
:1033B00012822F5F3F4F26303105A1F7089581E03B
:1033C00090E0E0911201F0911301E80FF91F1082D3
:1033D000019688309105A9F7089580912D020895EE
:1033E00090912D02982B90932D02089580959091A5
:1033F0002D02982390932D02089510922D02089586
:1034000090912C02982B90932C0208958095909186
:103410002C02982390932C02089510922C02089568
:10342000809323020895109223020895409112017F
:103430005091130120E030E080E0FA01E20FF31F29
:10344000918191118F5F2F5F3F4F27303105A9F791
:103450000895E0911201F091130180912D02808373
:10346000E0911201F0911301808190912C02892B3F
:10347000808390912302992361F0E0911201F091F1
:1034800013018081892B80830E94161A811110926A
:10349000230280911201909113010C941E0E8D3B1A
:1034A00060F4883A00F5853AA8F4843088F48130D5
:1034B00009F05BC081E090E00895803E08F455C0BB
:1034C000883E30F0803F08F450C090E09065089549
:1034D00090E00895853A09F44BC0863A09F04BC054
:1034E00082E890E40895883A09F448C0893A09F4DA
:1034F00048C08A3A09F448C08B3A09F448C08C3A6B
:1035000009F448C08B3B09F448C08C3B09F448C01F
:103510008D3A09F448C0803B09F448C08E3A09F45A
:1035200048C08F3A09F448C0813B09F448C0823B47
:1035300009F448C0833B09F448C0843B09F448C0FF
:10354000853B09F448C0863B09F448C0873B09F431
:1035500048C0883B09F448C0893B09F448C08A3B0D
:1035600009F048C08AE296E4089580E090E008956A
:1035700081E890E4089583E890E4089582EE94E46D
:10358000089589EE94E408958AEE94E4089585EB15
:1035900094E4089586EB94E4089583EB94E408950D
:1035A00084EB94E4089587EB94E408958CEC94E420
:1035B00008958DEC94E4089583E895E408958AE8ED
:1035C00095E4089582E995E4089584E995E40895E1
:1035D00081E296E4089583E296E4089584E296E415
:1035E000089585E296E4089586E296E4089587E2D8
:1035F00096E4089580E094E408950E947602803E67
:10360000A8F4803C00F5813309F45CC038F48932B9
:1036100009F452C08A3209F45BC05FC08933B1F04B
:103620008238A1F0853309F441C057C0833E41F18F
:1036300028F4803E99F0823EB9F04FC0863E31F1C9
:10364000873E71F14AC00E948502089590913F0221
:1036500090FD02C091FF41C080EE3FC080913F02CB
:1036600080FFFACF89E339C080913F0282FF0CC00E
:1036700080913F0284FF02C080E02FC083EE2DC006
:1036800080913F0282FFF4CF82EE27C080913F02FB
:1036900083FF0AC080913F0284FDEECF87EE1DC0FC
:1036A00080913F0283FFF6CF86EE17C080913F02E4
:1036B00085FF06C089E211C080913F0285FFFACFE5
:1036C00085E30BC080913F0286FF06C08AE205C0F9
:1036D00080913F0286FFFACF81E30E944F1A08953E
:1036E00080E090E0089580915B02843009F11092AF
:1036F0002F0220E488E190E00FB6F894A89580931B
:1037000060000FBE2093600083B7817F846083BF19
:1037100083B7816083BF7894889583B78E7F83BF9A
:1037200088E10FB6F89480936000109260000FBE9D
:10373000089508950895CF930E94991B0E947403E1
:103740000E949A1BC0E08C2F0E94B503892B29F49C
:10375000CF5FC530C1F780E001C081E0CF9108950F
:103760000E9444140C9468221F920F920FB60F927D
:1037700011248F939F93AF93BF9380912F02811158
:1037800013C08091300290913102A0913202B09129
:1037900033024196A11DB11D8093300290933102F6
:1037A000A0933202B0933302BF91AF919F918F915A
:1037B0000F900FBE0F901F90189582E084BD93E08C
:1037C00095BD9AEF97BD80936E0008958FB7F894DA
:1037D0001092300210923102109232021092330293
:1037E0008FBF08952FB7F8948091300290913102E5
:1037F000A0913202B09133022FBF08952FB7F894F1
:1038000060913002709131028091320290913302C6
:103810002FBF0895CF92DF92EF92FF920F931F93E5
:103820002FB7F894409130025091310260913202EA
:10383000709133022FBF6A017B01EE24FF248C01BB
:1038400020E030E0C016D106E206F30610F4415045
:103850005109481B590BCA011F910F91FF90EF901E
:10386000DF90CF900895CF92DF92EF92FF920F9367
:103870001F934FB7F89400913002109131022091BC
:103880003202309133024FBF68017901C61AD70A5C
:10389000E80AF90A061717072807390718F0C701B9
:1038A000B60106C0C701B6016150710981099109CD
:1038B0001F910F91FF90EF90DF90CF9008951F928E
:1038C0000F920FB60F9211248F939F93AF93BF93D4
:1038D0008091300290913102A0913202B091330276
:1038E0000196A11DB11D8093300290933102A093E7
:1038F0003202B0933302BF91AF919F918F910F909D
:103900000FBE0F901F9018950E94360BF8942FEF62
:1039100087EA91E6215080409040E1F700C0000026
:1039200087E090EBDC018093650290936602A093A0
:103930006702B09368022CE088E190E00FB6F8943B
:10394000A895809360000FBE20936000FFCFCF92B8
:10395000DF92EF92FF920F931F93CF93DF93C82EC6
:10396000D12C01E010E08D2D0E94B5037C01C0E058
:10397000D0E098010C2E02C0220F331F0A94E2F708
:103980002E213F21232B29F42196CE30D10589F712
:1039900009C06C2F7D2D80E00E947602C812F4CF02
:1039A00081E005C0D39485E0D812DDCF80E0DF91BF
:1039B000CF911F910F91FF90EF90DF90CF900895DE
:1039C000CF93C82F8CE20E94A71C882321F08C2F54
:1039D000CF910C94A71C80E0CF910895CF930E94C3
:1039E0001E1E811102C00E94FF1DC5E6C15049F094
:1039F0000E9474038FE39CE90197F1F700C0000077
:103A0000F5CF89E20E94E01C8111F7C08AE20E9492
:103A1000E01C81110E94FF1D85E00E94E01C8111C5
:103A20000E94841C0E94291E80932E0287E00E941F
:103A3000E01C882399F18BE10E94E01C882351F05F
:103A400090912E0291FB882780F921E0822780FB4C
:103A500091F922C08EE00E94E01C882351F09091E1
:103A60002E0292FB882780F921E0822780FB92F9C1
:103A700013C080E10E94E01C90912E02882341F047
:103A800093FB882780F921E0822780FB93F904C00B
:103A9000892F809580FB90F990932E020E942D1E15
:103AA00080933F0280EE0E94E01C882341F08091C9
:103AB0003F02982F909590FB80F980933F0289E315
:103AC0000E94E01C882359F090913F0291FB8827C7
:103AD00080F921E0822780FB91F990933F0282EEEA
:103AE0000E94E01C882359F090913F0292FB8827A6
:103AF00080F921E0822780FB92F990933F0286EEC5
:103B00000E94E01C882359F090913F0293FB882784
:103B100080F921E0822780FB93F990933F0283EEA6
:103B20000E94E01C882359F090913F0294FB882763
:103B300080F921E0822780FB94F990933F0285E38E
:103B40000E94E01C882359F090913F0295FB882742
:103B500080F921E0822780FB95F990933F0281E371
:103B60000E94E01C882359F090913F0296FB882721
:103B700080F921E0822780FB96F990933F0281E152
:103B80000E94E01C882359F090913F0297FB882700
:103B900080F921E0822780FB97F990933F0287E22A
:103BA0000E94E01CC82F8EE10E94E01C8111C260BF
:103BB0008FE10E94E01C8111C46080E20E94E01C41
:103BC0008111C86081E20E94E01C8111C06182E223
:103BD0000E94E01C8111C06283E20E94E01C8111FE
:103BE000C06484E20E94E01C8111C0686C2F70E008
:103BF00080E090E0CF910C943C18CF9108956DEE49
:103C00007EEF80E090E00E946C2460E082E090E033
:103C10000E945E2460E083E090E00E945E2460E009
:103C200084E090E00E945E2460E085E090E00E94E5
:103C30005E2460E086E090E00C945E2480E090E0FA
:103C40000E94582421E08D3E9E4F09F020E0822FF3
:103C5000089582E090E00C94502484E090E00C946D
:103C6000502486E090E00C945024682F86E090E089
:103C70000C945E248091360280FF0BC06091170186
:103C800085E0689FB00111247595679575956795D6
:103C90002AC081FF09C06091170185E0689FB001CB
:103CA0001124759567951FC082FF07C060911701A9
:103CB00085E0689FB001112416C04091370244236B
:103CC000C9F060911601461788F72091170185E029
:103CD000289F90011124429FC001439F900D112401
:103CE00070E00E9422246038710540F4611571056E
:103CF00039F002C065E070E0862F08958FE70895DF
:103D000081E008958091360280FF08C0609115011E
:103D100070E0759567957595679521C081FF06C020
:103D20006091150170E07595679519C082FF04C018
:103D30006091150170E010C0809137028823C1F0B6
:103D4000609114018617A0F790911501989FC0010A
:103D5000112470E00E9422246038710528F4611556
:103D6000710521F0862F08958FE7089581E0089569
:103D700061E070E0F4CF803F21F40E943A1E81950B
:103D800004C0813F29F40E943A1E80933A020895AC
:103D9000823F21F40E943A1E819504C0833F29F49A
:103DA0000E943A1E809339020895893F19F40E94B7
:103DB000821E05C08A3F31F40E94821E8195809345
:103DC0003B0208958B3F21F40E94821E819504C01E
:103DD0008C3F29F40E94821E80933C020895843F08
:103DE00021F480913802816017C0853F21F48091D1
:103DF0003802826011C0863F21F4809138028460CD
:103E00000BC0873F21F480913802886005C0883F4D
:103E100031F48091380280618093380208958D3F9B
:103E200021F48091360281600BC08E3F21F4809195
:103E30003602826005C08F3F29F48091360284608B
:103E4000809336020895803F39F480913A0287FFCB
:103E50006CC010923A0269C0813F29F480913A0205
:103E60001816BCF362C090913902823F29F497FF83
:103E70005CC01092390259C0833F19F41916CCF373
:103E800054C0893F41F480913B0218160CF04DC09C
:103E900010923B024AC08A3F29F480913B0287FF7F
:103EA00044C0F6CF8B3F39F480913C0287FF3DC080
:103EB00010923C023AC08C3F29F480913C021816C3
:103EC000BCF333C0843F21F4809138028E7F17C049
:103ED000853F21F4809138028D7F11C0863F21F407
:103EE000809138028B7F0BC0873F21F4809138028C
:103EF000877F05C0883F31F4809138028F7E8093A0
:103F0000380213C08D3F21F4809136028E7F0BC0A2
:103F10008E3F21F4809136028D7F05C08F3F29F4BA
:103F2000809136028B7F8093360280913902811115
:103F30000EC080913A0281110AC080913B0281112A
:103F400006C080913C02811102C010923702089590
:103F500088E392E00E94290E0E94F21B90933502A2
:103F60008093340208951F93CF93DF93809134029E
:103F7000909135020E940A1C40913702442321F09F
:103F80002091180130E006C0209119015AE0259FC8
:103F9000900111248217930708F482C0809139029E
:103FA00010913A02D0913B02C0913C02811107C0AE
:103FB000111105C0D11103C0CC2309F471C04F3FCA
:103FC00019F04F5F40933702181624F40E943A1EEE
:103FD000809339028091390287FF05C00E943A1E02
:103FE000819580933902111624F40E943A1E809321
:103FF0003A0280913A0287FF05C00E943A1E8195DD
:1040000080933A0260913902662339F110913A02A5
:10401000112319F1772767FD7095872F972F0E943D
:10402000332323E333E343E35FE30E9497230E94B8
:10403000002360933902612F772767FD7095872FE2
:10404000972F0E94332323E333E343E35FE30E948C
:1040500097230E94002360933A021D1624F40E94C5
:10406000821E80933B0280913B0287FF05C00E9425
:10407000821E819580933B021C1624F40E94821EAE
:1040800080933C0280913C0287FF05C00E94821E03
:10409000819580933C02DF91CF911F910C94A81FD2
:1040A000DF91CF911F910895E8E3F2E085E0DF0111
:1040B0001D928A95E9F71092370210923602089500
:1040C000833081F128F4813059F08230D1F00895A5
:1040D000853009F449C0B8F1863009F456C0089516
:1040E00020911901862F90E0820F911D8F3F91053D
:1040F00020F4620F6093190108958FEF80931901E6
:10410000089520911801862F90E0820F911D8F3F16
:10411000910520F4620F6093180108958FEF80934A
:104120001801089520911701862F90E0820F911DAC
:104130008F3F910520F4620F6093170108958FEF70
:1041400080931701089520911601862F90E0820F29
:10415000911D8F3F910520F4620F60931601089521
:104160008FEF80931601089520911501862F90E01E
:10417000820F911D8F3F910520F4620F609315010E
:1041800008958FEF80931501089520911401862FD3
:1041900090E0820F911D8F3F910520F4620F609394
:1041A000140108958FEF809314010895833011F165
:1041B00028F4813049F0823091F00895853081F102
:1041C00020F18630C1F1089580911901681720F41B
:1041D000861B80931901089510921901089580910A
:1041E0001801681720F4861B809318010895109217
:1041F0001801089580911701681720F4861B809399
:1042000017010895109217010895809116016817FB
:1042100020F4861B809316010895109216010895CC
:1042200080911501681720F4861B8093150108956D
:1042300010921501089580911401681720F4861BCF
:10424000809314010895109214010895873218F58F
:104250008E3108F08FC08E3009F46CC068F487305E
:1042600009F451C018F48630B1F12CC0883061F1E6
:104270008B3009F492C026C0863109F48EC020F438
:10428000803109F461C01EC0893109F486C08B31C8
:1042900009F446C017C0883309F47FC048F4893256
:1042A00009F463C0853309F460C0873259F45DC0F6
:1042B000833409F45AC020F48A3308F05DC002C088
:1042C000883499F080E008950E94291E0E942D1ED6
:1042D0000E94311E62C080912E02817F8E7F80936A
:1042E0002E0281E080933D0208950E9444142FEF36
:1042F00083ED90E3215080409040E1F700C0000042
:104300000E94841C4AC090912E02892F817090FFD8
:1043100003C0917F9E7F26C0916090932E023DC086
:1043200090912E0291FB882780F921E0822780FB63
:1043300091F913C090912E0292FB882780F921E019
:10434000822780FB92F909C090912E0293FB882767
:1043500080F921E0822780FB93F990932E02882335
:10436000E1F0916090932E02089561E070E080E0AA
:1043700090E00FC023EE01C027EC280F61E070E051
:1043800080E090E004C0660F771F881F991F2A9570
:10439000D2F70E943C180E94441481E0089580E006
:1043A000089580E00895CF93C82F80913D02813019
:1043B00069F018F08230B1F181C0A0911201B09182
:1043C00013018C91823209F07BC007C0A0911201C9
:1043D000B09113018C91823249F48C2F0E94CF212D
:1043E00081111DC08C2F0E9426211AC08C2F0E9483
:1043F000D121811114C0C43179F048F4CB3079F067
:10440000C03109F061C082E080933D0208C0C9322A
:1044100019F0C83321F058C010923D0255C081E018
:10442000817054C0C93291F120F5C43179F1B0F4F2
:10443000C73009F047C08EE18093190182E3809371
:1044400018018AE08093170184E18093160188E0C7
:104450008093150188E28093140134C0CE51C63098
:1044600088F5EC2FF0E0E35BFE4F808180933E0205
:1044700029C0CE34E9F020F4CB3421F56AE013C032
:10448000C13579F0C235F1F461E00DC080913E0292
:10449000882319F010923E0215C081E080933D02FE
:1044A00015C061E006C080913E020E9460200AC0F3
:1044B0006AE080913E020E94D62004C010923D0224
:1044C00080E004C081E002C080E0AACFCF910895CF
:1044D0000E941E1E811102C00E94FF1D0E94311EFB
:1044E0008093640280FF02C0869501C080E00C9436
:1044F000F10380916402982F9695292F30E02330A4
:1045000031054CF49F5F990F8170892B81608093F6
:1045100064020E94351E8091640286950C94F1031A
:1045200080916402982F969591F09158990F81701F
:10453000892B809364028E7F91E009F490E0809152
:10454000640290FB80F9809364020E94351E809182
:10455000640286950C94F10380916402982F9095E3
:1045600090FB80F9809364020E94351E8091640262
:1045700080FF02C0869501C080E00C94F103309169
:104580006402232F26952F5F2F77822F90E03170C2
:1045900004972CF4220F232B2093640202C0309343
:1045A0006402809164028E7F91E009F490E0809132
:1045B000640290FB80F9809364020E94351E809112
:1045C000640286950C94F10320916402922F9695D3
:1045D0009827990F822F8170892B809364028E7F98
:1045E00091E009F490E08091640290FB80F980935F
:1045F00064020E94351E8091640286950C94F1033A
:1046000004D06894B1118DC0089570D088F09F5780
:1046100090F0B92F9927B751A0F0D1F0660F771F0E
:10462000881F991F1AF0BA95C9F712C0B13081F0EE
:1046300077D0B1E0089574C0672F782F8827B85FCE
:1046400039F0B93FCCF3869577956795B395D9F74F
:104650003EF490958095709561957F4F8F4F9F4F59
:104660000895E89409C097FB3EF490958095709565
:1046700061957F4F8F4F9F4F9923A9F0F92F96E9AE
:10468000BB279395F695879577956795B795F11123
:10469000F8CFFAF4BB0F11F460FF1BC06F5F7F4FC0
:1046A0008F4F9F4F16C0882311F096E911C07723D2
:1046B00021F09EE8872F762F05C0662371F096E8DB
:1046C000862F70E060E02AF09A95660F771F881FAA
:1046D000DAF7880F9695879597F9089557FD9058C2
:1046E000440F551F59F05F3F71F04795880F97FBB6
:1046F000991F61F09F3F79F0879508951216130670
:104700001406551FF2CF4695F1DF08C0161617069E
:104710001806991FF1CF86957105610508940895D3
:10472000E894BB2766277727CB0197F908950BD02C
:1047300078C069D028F06ED018F0952309F05AC0DF
:104740005FC01124EECFCADFA0F3959FD1F3950F80
:1047500050E0551F629FF001729FBB27F00DB11D05
:10476000639FAA27F00DB11DAA1F649F6627B00D95
:10477000A11D661F829F2227B00DA11D621F739F7E
:10478000B00DA11D621F839FA00D611D221F749F8C
:104790003327A00D611D231F849F600D211D822FD3
:1047A000762F6A2F11249F5750408AF0E1F088231A
:1047B0004AF0EE0FFF1FBB1F661F771F881F915027
:1047C0005040A9F79E3F510570F014C0AACF5F3F3B
:1047D000ECF3983EDCF3869577956795B795F7955A
:1047E000E7959F5FC1F7FE2B880F911D96958795E2
:1047F00097F9089597F99F6780E870E060E0089561
:104800009FEF80EC089500240A94161617061806E8
:104810000906089500240A941216130614060506C4
:104820000895092E0394000C11F4882352F0BB0F55
:1048300040F4BF2B11F460FF04C06F5F7F4F8F4FB8
:104840009F4F089597FB072E16F4009407D077FD2D
:1048500009D00E943C2407FC05D03EF49095819538
:104860009F4F0895709561957F4F0895EE0FFF1F3C
:104870000590F491E02D0994AA1BBB1B51E107C0E0
:10488000AA1FBB1FA617B70710F0A61BB70B881FE0
:10489000991F5A95A9F780959095BC01CD0108956F
:1048A000F999FECF92BD81BDF89A992780B50895F8
:1048B000A8E1B0E042E050E00C947324262FF9996F
:1048C000FECF1FBA92BD81BD20BD0FB6F894FA9AF3
:1048D000F99A0FBE019608950E945E24272F0C942A
:1048E0005F24DC01CB01FC01F999FECF06C0F2BDCB
:1048F000E1BDF89A319600B40D9241505040B8F79E
:064900000895F894FFCFBA
:104906000501FF5904E605600443058A04804F1239
:10491600000124022808140A321E21402324255EA1
:10492600262A2829202D3D5B5D5C203B27602C2E06
:104936002F205F2B7B7D7C203A227E3C3E3F3F4DE5
:1049460036D30386035003FC0215032E030102032C
:1049560004050607080900436F6E6E65637423201D
:1049660000446973636F6E6E65637423200052653D
:1049760073657423200053757370656E642320007D
:1049860057616B655570232000436F6E66696775C6
:10499600726174696F6E4368616E67656423200097
:00000001FF
