:100000000C94EF010C9433020C9433020C943302E1
:100010000C9433020C9433020C9433020C9433028C
:100020000C9433020C9433020C94BD080C948F0989
:100030000C94E5180C9433020C9433020C943302A4
:100040000C9433020C940D040C9433020C94330280
:100050000C9433020C944C190C9433020C9433021C
:100060000C9433020C9433020C9433020C9433023C
:100070000C9433020C9433020C9433020C9433022C
:100080000C9433020C9433020C9433020C9433021C
:100090000C9433020C9433020C9433020C9433020C
:1000A0000C9433020C9433020C943302F409160AB4
:1000B000010B160A010B580A7B0A010BD00AE30A4E
:1000C000CB0DCB0DF90DF90D4E0E7B0E1D111D1133
:1000D000930E1D118A0F8A0F46105A10C4100B116F
:1000E000F1A1293A3B3C3D3E3F4041424344454714
:1000F00049351E1F20212223242526272D2E2A4C58
:100100002B141A0815171C180C12132F30314B39E9
:10011000041607090A0B0D0E0F333400284EE100B8
:100120001D1B0619051110363738E552C0E0E3E211
:1001300000002C000046E600E450514F0000000093
:100140000101010202030405050607090A0B0C0E52
:100150000F1112141517191B1D1F212325282A2CD6
:100160002F313436393B3E414346494C4F52555866
:100170005A5D6164676A6D707376797C7F83868966
:100180008C8F9295989B9EA2A5A7AAADB0B3B6B945
:10019000BCBEC1C4C6C9CBCED0D3D5D7DADCDEE075
:1001A000E2E4E6E8EAEBEDEEF0F1F3F4F5F6F8F967
:1001B000FAFAFBFCFDFDFEFEFEFFFFFFFFFFFFFF67
:1001C000FEFEFEFDFDFCFBFAFAF9F8F6F5F4F3F19C
:1001D000F0EEEDEBEAE8E6E4E2E0DEDCDAD7D5D3F8
:1001E000D0CECBC9C6C4C1BEBCB9B6B3B0ADAAA748
:1001F000A5A29E9B9895928F8C898683807C797628
:1002000073706D6A6764615D5A5855524F4C494628
:1002100043413E3B393634312F2C2A282523211FD8
:100220001D1B1917151412110F0E0C0B0A090706C6
:100230000505040302020101010000000E03650030
:100240007000620074003700350000001203650082
:100250006E006A006F007900700062007400000098
:100260000403090409026D00040100A0320904001E
:10027000000103010100092111010001223F0007D3
:1002800005810308000A09040100010301020009B5
:100290002111010001224D000705820308000A090F
:1002A00004020001030000000921110100012236AF
:1002B000000705830308000A090403000103000086
:1002C00000092111010001223900070584031000F3
:1002D000011201100100000008EDFE0312120001DE
:1002E00002000105010906A101050719E029E7152A
:1002F0000025019508750181020508190129059558
:1003000005750191029501750391010507190029F1
:100310007715002501957875018102C005010980D6
:10032000A101850216010026B7001A01002AB700B4
:10033000751095018100C0050C0901A10185031606
:100340000100269C021A01002A9C02751095018169
:1003500000C005010902A1010901A1000509190157
:100360002905150025019505750181029501750383
:1003700081010501093009311581257F9502750834
:10038000810609381581257F950175088106050CC0
:100390000A38021581257F950175088106C0C005C0
:1003A000010906A101050719E029E71500250195B6
:1003B0000875018102950175088101050819012957
:1003C00005950575019102950175039101050719C0
:1003D0000029FF150025FF950675088100C011242E
:1003E0001FBECFEFDAE0DEBFCDBF04B603FE24C0F0
:1003F0008091EC019091ED01A091EE01B091EF019F
:100400008730904BA740B04BB9F41092EC0110929A
:10041000ED011092EE011092EF0114BE84B7877FB8
:1004200084BF88E10FB6F89480936000109260005A
:100430000FBEE0E0F8E3099511E0A0E0B1E0ECE0E8
:10044000F3E402C005900D92A633B107D9F721E07D
:10045000A6E3B1E001C01D92AC3EB207E1F70E94F5
:1004600003060C9484210C940000CF93DF93EC01DD
:1004700061111FC00E941E178272809336019A81FB
:10048000992351F0882319F085E390E002C089E2B6
:1004900090E00E94A51609C0882319F085E390E03A
:1004A00002C089E290E00E94E116DF91CF910C94A6
:1004B0005A17DF91CF9108959FE0799FF0011124A1
:1004C0009AE5899FE00DF11D1124E60FF11DEE5113
:1004D000FF4F84910895E82FF0E0EE0FFF1FE05AE0
:1004E000F0408591949108958AB18C7D8AB98BB141
:1004F0008C7D8BB980B38F7180BB81B38F7181BBD1
:10050000089580E885BF85BF0E94740280B38C7E09
:1005100080BB81B3836181BB6E98769A8AB18F72FA
:100520008AB98BB1806D8BB987B18F7387B988B168
:10053000806C88B984B1847484B985B18B6B85B9BA
:10054000E3E4F1E0A7E3B1E0119211921D921D9254
:1005500081E0EF34F807C1F70895FF920F931F93DE
:10056000CF93DF93C7E3D1E010E001E0A5E0FA2EDE
:10057000133099F028F4113051F0123059F004C0C2
:10058000143071F0153079F0859A8D980EC0509A1C
:1005900058980BC0519A599808C0869A8E9805C0F1
:1005A000879A8F9802C0559A5D9880EA8A95F1F7EC
:1005B0002FB12170202730E0799B03C080E090E0CC
:1005C00002C082E090E0282B392B669B03C080E0BC
:1005D00090E002C084E090E0282B392B86B1992767
:1005E00087FD9095809590958827990F881F99276A
:1005F000F3E0880F991FFA95E1F7282B392B369BEA
:1006000003C080E090E002C080E190E0282B392B0D
:1006100083B1992787FD9095809590958827990FAC
:10062000881F992775E0880F991F7A95E1F7282B85
:10063000392B4C9B03C060E070E002C060E470E0C6
:10064000262B372B199B03C060E070E002C060E8E6
:1006500070E0262B372B189B03C040E050E002C00F
:1006600040E051E0242B352B1D9B03C080E090E03F
:1006700002C080E092E0282B392B1C9B03C080E055
:1006800090E002C080E094E0282B392B89B19927B3
:1006900087FD9095809590958827990F881F9927B9
:1006A000982F8827990F990F990F282B392B4E9B3C
:1006B00003C080E090E002C080E090E1282B392B5D
:1006C0001B9B03C080E090E002C080E090E2282BFA
:1006D000392B7C9B03C080E090E002C080E090E476
:1006E000282B392B888199818217930721F0398330
:1006F0002883F09200010E9474021F5F2296163038
:1007000009F036CF809100018823C1F08150809399
:100710000001882339F08FE99FE00197F1F700C0CD
:1007200000000CC0A3E4B1E0E7E3F1E08191919116
:100730008D939D9391E0E334F907C1F781E0DF9158
:10074000CF911F910F91FF900895E82FF0E0EE0FE9
:10075000FF1FED5BFE4F808191810895089581FF19
:1007600002C0229A01C022982A98089580915201CD
:10077000811116C081E080935201809181008860D0
:1007800080938100809181008160809381008FB788
:10079000F89493E09093890090ED909388008FBF38
:1007A00008952E9A08952E980895EFE6F0E080813E
:1007B000826080830895EFE6F0E080818D7F808302
:1007C000089580935101269A882321F00E94B60350
:1007D0000C94D5030E94DB030C94D3038091510148
:1007E000813011F485E516C0823089F480914F0183
:1007F0008F5F80934F01E82FF0E0E45CFE4FE491BF
:10080000E09350018F3F41F410924F0108958330DF
:1008100019F48FEF8093500108951F920F920FB635
:100820000F9211242F933F934F935F936F937F9376
:100830008F939F93AF93BF93EF93FF938091530157
:100840008F5F8093530190910201891306C010922B
:1008500053010E94D1030E94EE03909153018091B5
:100860005001981302C00E94D303FF91EF91BF91F2
:10087000AF919F918F917F916F915F914F913F9138
:100880002F910F900FBE0F901F90189580916501CA
:100890000895CF93DF9300D01F92CDB7DEB720919C
:1008A000E201243019F523E029839B838A83209376
:1008B000E9008FEF9091E800815095FD06C095ED1D
:1008C0009A95F1F700008111F5CF8091E80085FF3E
:1008D0000DC040E050E063E070E0CE0101960E9460
:1008E000B0068091E8008E778093E8000F900F901B
:1008F0000F90DF91CF910895CF93DF9300D01F9297
:10090000CDB7DEB72091E201243021F522E0298322
:100910009B838A8383E08093E9008FEF9091E800C6
:10092000815095FD06C095ED9A95F1F70000811173
:10093000F5CF8091E80085FF0DC040E050E063E016
:1009400070E0CE0101960E94B0068091E8008E779B
:100950008093E8000F900F900F90DF91CF91089552
:100960002091E2012430F1F422E02093E9002FEFFE
:100970003091E800215035FD06C035ED3A95F1F78C
:1009800000002111F5CF2091E80025FF0BC040E0C9
:1009900050E065E070E00E94B0068091E8008E773C
:1009A0008093E8000895CF93DF93EC018091E201FA
:1009B000843009F042C090910E019923B9F08093E0
:1009C000E9008FEF9091E800815095FD06C095E118
:1009D0009A95F1F700008111F5CF8091E80085FF2D
:1009E0002CC040E050E060E170E017C081E08093EF
:1009F000E9008FEF9091E800815095FD06C095EDDC
:100A00009A95F1F700008111F5CF8091E80085FFFC
:100A100014C040E050E068E070E0CE010E94B006F3
:100A20008091E8008E778093E80080E1FE01A5E5E3
:100A3000B1E001900D928A95E1F7DF91CF91089591
:100A40008091E101811109C00E9442080E949F0823
:100A50008091E20084608093E20008951092E101A9
:100A6000089508950C94CB180C94E11842E061ECC1
:100A700081E00E94BC0742E061EC82E00E94BC077A
:100A800042E061EC83E00E94BC0742E161EC84E05B
:100A90000C94BC078091E401833009F455C030F414
:100AA000813071F0823009F495C008958A3009F4DC
:100AB00081C08B3009F460C0893009F0A3C020C028
:100AC0008091E301813A09F09DC08091E800877F21
:100AD0008093E8008091E7019091E801892B21F053
:100AE00060E080E090E003C060E185E591E070E0C7
:100AF0000E94F9068091E8008B778093E8000895C2
:100B00008091E301813209F07DC08091E7019091ED
:100B1000E801009719F0039709F074C08091E8008C
:100B2000877F8093E8008091E80082FD05C0809176
:100B3000E2018111F8CF66C08091F10080936501D8
:100B40008091E8008B775AC08091E301813A09F0E7
:100B500059C08091E7019091E801892B09F052C0BA
:100B60008091E800877F8093E8008091E80080FF13
:100B7000FCCF80910D013DC08091E301813209F0ED
:100B800041C08091E7019091E801892BD9F58091CE
:100B9000E800877F8093E8000E94F1079091E501CB
:100BA00081E0911101C080E080930D0180930E01DE
:100BB0000C943E118091E301813221F58091E8008F
:100BC000877F8093E8000E94F1078091E60180937F
:100BD000540108958091E301813AA1F48091E800E5
:100BE000877F8093E8008091E80080FFFCCF8091B0
:100BF00054018093F1008091E8008E778093E800A3
:100C00000C94F107089584B7877F84BF88E10FB6FD
:100C1000F89480936000109260000FBE90E080E82E
:100C20000FB6F89480936100909361000FBE0E940C
:100C30006E0B0E9442080E949F088091E20084602F
:100C40008093E20078948091E2018430E1F70E9481
:100C5000700B83E091E00E941A0B8091E2018530D5
:100C600069F40E94A4188091E0018823B1F30E94E6
:100C7000CC18882391F30E949A06EFCF0E94780B3C
:100C8000ECCF292F332723303105A9F06CF4213024
:100C9000310509F442C02230310509F043C08DE628
:100CA00090E024E632E042C021323105C9F0223220
:100CB000310519F137C099278130910541F0823013
:100CC000910541F0892B71F5E0E6F2E005C0ECE416
:100CD000F2E002C0ECE3F2E0849190E09F0126C0D4
:100CE000643000F5E62FF0E0EE0FFF1FED5DFE4FE4
:100CF0002081318189E090E019C0643098F4E62FBA
:100D0000F0E0DF01AA0FBB1FA55EBE4F2D913C9105
:100D1000E95EFE4F808190E009C082E190E021ED24
:100D200032E004C080E090E020E030E0FA0131835E
:100D30002083089580E189BD82E189BD09B400FE68
:100D4000FDCF8091D8008F7D8093D8008091E00006
:100D500082608093E0008091E00081FDFCCF0895E7
:100D6000CF92DF92EF92FF920F931F93CF93DF9377
:100D70007C018B01EA010E941208811131C0209789
:100D800031F088819981081B190BE80EF91EC12CDE
:100D9000D12C0115110519F18091E80085FD14C0D1
:100DA0008091E8008E778093E800209741F0888159
:100DB00099818C0D9D1D9983888385E011C00E94C7
:100DC0001208882331F30CC0F70181917F018093D1
:100DD000F10001501109FFEFCF1ADF0ADACF80E0EE
:100DE000DF91CF911F910F91FF90EF90DF90CF9007
:100DF00008952091E9013091EA012617370748F05C
:100E00006115710539F42091E8002E772093E800F0
:100E100001C0B901FC0120E061157105B9F18091B3
:100E2000E201882309F440C0853009F43FC0809175
:100E3000E80083FD3DC08091E80082FF06C08091FC
:100E4000E80082FF26C080E008958091E80080FFDE
:100E5000E3CF2091F3008091F20090E0922B611596
:100E6000710551F08830910538F421912093F100FB
:100E7000615071090196F3CF21E0089709F020E055
:100E80008091E8008E778093E800C6CF2111C7CF0C
:100E9000D6CF8091E201882339F0853039F08091F6
:100EA000E80083FFCCCF04C082E0089583E008957A
:100EB00081E008952091E9013091EA012617370772
:100EC00048F06115710539F42091E8002E772093E0
:100ED000E80001C0B901FC0120E061157105C1F114
:100EE0008091E201882309F441C0853009F440C0B3
:100EF0008091E80083FD3EC08091E80082FF06C03B
:100F00008091E80082FF27C080E008958091E8008A
:100F100080FFE3CF2091F3008091F20090E0922BCC
:100F20006115710559F08830910540F424912093A2
:100F3000F1003196615071090196F2CF21E00897D6
:100F400009F020E08091E8008E778093E800C5CF1B
:100F50002111C6CFD5CF8091E201882339F08530A9
:100F600039F08091E80083FFCBCF04C082E0089580
:100F700083E0089581E00895982F973058F5909375
:100F8000E900981739F07091EC002091ED00509134
:100F9000F00003C0242F762F50E021FF19C03091BC
:100FA000EB003E7F3093EB003091ED003D7F3093BE
:100FB000ED003091EB0031603093EB007093EC006A
:100FC0002093ED005093F0002091EE0027FF07C022
:100FD0009F5FD3CF8F708093E90081E0089580E018
:100FE00008958091E30187FD05C08091E80080FFAE
:100FF0000EC012C08091E80082FD05C08091E20120
:101000008111F8CF08958091E8008B7708C0809116
:10101000E2018111EACF08958091E8008E778093F4
:10102000E80008958091E4009091E50045E6209164
:10103000EC0020FF21C02091E80020FD21C020917C
:10104000E201222389F0253089F02091EB0025FD73
:101050000FC02091E4003091E5002817390739F3DB
:10106000415041F0C901E3CF82E0089583E0089543
:1010700081E0089584E008952091E80022FFDFCF09
:1010800080E008950E94B0080E94B808E0EEF0E009
:10109000808181608083E8EDF0E080818F778083BC
:1010A00019BCA7EDB0E08C918E7F8C9380818F7EF0
:1010B00080831092E10108950F931F93CF93DF93E4
:1010C0000E94B0080E94B808C8EDD0E088818F77F0
:1010D000888388818068888388818F7D888319BC14
:1010E0001092E2011092DE011092E0011092DF01F5
:1010F00000EE10E0F80180818B7F80838881816021
:10110000888342E060E080E00E94BC07E1EEF0E00E
:1011100080818E7F8083E2EEF0E080818160808339
:10112000808188608083F80180818E7F80838881C0
:1011300080618883DF91CF911F910F910895E8ED31
:10114000F0E080818F7E8083E7EDF0E08081816038
:10115000808384E082BF81E08093E1010C945C088D
:10116000E8EDF0E080818E7F80831092E2000895A8
:101170001092DA001092E10008951F920F920FB6BC
:101180000F9211242F933F934F935F936F937F930D
:101190008F939F93AF93BF93EF93FF938091E10061
:1011A00082FF0BC08091E20082FF07C08091E100C6
:1011B0008B7F8093E1000E94190B8091DA0080FF01
:1011C0001FC08091D80080FF1BC08091DA008E7F05
:1011D0008093DA008091D90080FF0DC080E189BD45
:1011E00082E189BD09B400FEFDCF81E08093E20178
:1011F0000E94200505C019BC1092E2010E942E0534
:101200008091E10080FF19C08091E20080FF15C04D
:101210008091E2008E7F8093E2008091E200806105
:101220008093E2008091D80080628093D80019BC3E
:1012300085E08093E2010E9432058091E10084FF05
:1012400030C08091E20084FF2CC080E189BD82E142
:1012500089BD09B400FEFDCF8091D8008F7D8093B9
:10126000D8008091E1008F7E8093E1008091E200C0
:101270008F7E8093E2008091E20081608093E200A3
:101280008091DE01882311F084E007C08091E300A3
:1012900087FF02C083E001C081E08093E2010E94E9
:1012A00034058091E10083FF29C08091E20083FF33
:1012B00025C08091E100877F8093E10082E08093E8
:1012C000E2011092DE018091E1008E7F8093E100C7
:1012D0008091E2008E7F8093E2008091E200806145
:1012E0008093E20042E060E080E00E94BC078091D1
:1012F000F00088608093F0000E943105FF91EF912B
:10130000BF91AF919F918F917F916F915F914F911D
:101310003F912F910F900FBE0F901F9018951F9225
:101320000F920FB60F9211242F933F934F935F9319
:101330006F937F938F939F93AF93BF93CF93EF93CD
:10134000FF93C091E900CF708091EC001092E9000A
:101350008091F000877F8093F00078940E94CB0901
:101360001092E9008091F00088608093F000C093B3
:10137000E900FF91EF91CF91BF91AF919F918F9134
:101380007F916F915F914F913F912F910F900FBE81
:101390000F901F9018951F93CF93DF93CDB7DEB7B3
:1013A000AA970FB6F894DEBF0FBECDBFE3EEF1E013
:1013B0008091F100819321E0EB3EF207C9F70E9492
:1013C0004A058091E80083FF1CC12091E301309120
:1013D000E401832F90E08A30910508F012C1FC01EE
:1013E000EA5AFF4F0C943921203881F0223809F055
:1013F00008C18091E7018F708093E9008091EB0034
:1014000085FB882780F91092E90006C08091DF01F2
:101410009091E001911182609091E800977F909304
:10142000E8008093F1001092F100C5C0822F8D7FFB
:1014300009F0E7C0222319F0223061F0E2C0809168
:10144000E501813009F0DDC0333009F080E08093A0
:10145000E00128C08091E501811124C02091E701BD
:101460002F7009F4CEC02093E9008091EB0080FF3B
:1014700019C08091EB00333011F4806211C080619B
:101480008093EB0081E090E0022E01C0880F0A9467
:10149000EAF78093EA001092EA008091EB008860FE
:1014A0008093EB001092E9008091E800877F86C06E
:1014B0002111A7C01091E5011F778091E30080788A
:1014C000812B8093E3008091E800877F8093E80080
:1014D0000E94F1078091E80080FFFCCF8091E3003B
:1014E00080688093E300112311F083E001C082E063
:1014F0008093E20186C02058223008F082C080919B
:10150000E5019091E6018C3D23E0920779F583E0B7
:101510008A838AE289834FB7F894DE01139620E02C
:101520003EE051E2E32FF0E050935700E49120FFBA
:1015300003C0E295EF703F5FEF708E2F90E0EA30CE
:1015400010F0C79601C0C0968D939D932F5F2431F4
:1015500049F74FBF8091E800877F8093E8006AE2F7
:1015600070E0CE0101960E94F90614C0AE014F5FF3
:101570005F4F6091E7010E944106009709F441C066
:101580002091E800277F2093E800BC0189819A819F
:101590000E945A078091E8008B778093E80031C061
:1015A000203879F58091E800877F8093E80080916A
:1015B000DE018093F1008091E8008E778093E8004F
:1015C0000E94F1071EC021111CC09091E5019230CC
:1015D000C0F48091E800877F8093E8009093DE015B
:1015E0000E94F1078091DE01811104C08091E30027
:1015F00087FF02C084E001C081E08093E2010E9485
:1016000036058091E80083FF0AC08091E800877F5B
:101610008093E8008091EB0080628093EB00AA96B3
:101620000FB6F894DEBF0FBECDBFDF91CF911F91F3
:101630000895089590936B0180936A010895E09155
:101640006A01F0916B01309721F00190F081E02D5B
:10165000099480E00895E0916A01F0916B01309760
:1016600021F00280F381E02D09940895E0916A0150
:10167000F0916B01309721F00480F581E02D099401
:10168000089520916801309169018217930771F0E4
:101690009093690180936801E0916A01F0916B0178
:1016A000309721F00680F781E02D0994089520916C
:1016B0006601309167018217930771F0909367017B
:1016C00080936601E0916A01F0916B01309721F0FF
:1016D0000084F185E02D0994089508950C946D0B14
:1016E0000E940E190E9481020E94DB190C946B1F4C
:1016F0005F926F927F928F929F92AF92BF92CF92A2
:10170000DF92EF92FF920F931F93CF93DF93CDB7AA
:10171000DEB72A970FB6F894DEBF0FBECDBF0E948A
:10172000AD029DE6C92E91E0D92E00E010E0AA247A
:10173000A394B12C502E802F0E94A5033C01F601EA
:10174000E190F1906F01E826F926E114F104B1F47B
:101750000F5F1F4F0630110569F78FEF89838A836A
:101760001B820E9417198160782F9D838C83498189
:101770005A816B818D810E94310C3AC08091CC01DD
:1017800081FD0E94AE0320E030E04501022E02C040
:10179000880C991C0A94E2F7C4018E219F21892BA1
:1017A00009F12E835F826820792081E0672809F49F
:1017B00080E088870E9417198160782F9A8789872F
:1017C0004E815F8168858A850E94310CF801EE0F99
:1017D000FF1FE359FE4F80819181882599259183D0
:1017E000808306C02F5F3F4F2F30310571F6B0CF99
:1017F0000E94A71C10916C010E941F0B1817D9F0B2
:101800000E941F0B80936C012A960FB6F894DEBFDE
:101810000FBECDBFDF91CF911F910F91FF90EF9041
:10182000DF90CF90BF90AF909F908F907F906F9000
:101830005F900C94AF032A960FB6F894DEBF0FBEEC
:10184000CDBFDF91CF911F910F91FF90EF90DF906F
:10185000CF90BF90AF909F908F907F906F905F9050
:101860000895CF93DF93CDB7DEB72B970FB6F894DB
:10187000DEBF0FBECDBF4F83588769877A878B87BE
:10188000DE01119686E0FD0111928A95E9F785E067
:10189000FE01379601900D928A95E1F749815A81B0
:1018A0006B817C818D819E810E940A142B960FB6DC
:1018B000F894DEBF0FBECDBFDF91CF910895CF93D7
:1018C000C82F882309F4C1C0823859F40E941F0B25
:1018D00081FDBBC089E30E94A5160E945A1789E3C7
:1018E0000CC0833879F40E941F0B80FDAEC083E5E5
:1018F0000E94A5160E945A1783E50E94E116CF9117
:101900000C945A17843859F40E941F0B82FD9DC015
:1019100087E40E94A5160E945A1787E4EECF8CEF49
:101920008C0F813A48F48C2F0E94D61E81118DC0F5
:101930008C2F0E94A516E3CF80E28C0F883048F4EC
:10194000C77081E001C0880FCA95EAF70E9421178D
:10195000D6CF8BE58C0F833078F4C53A29F0C63AA0
:1019600031F482E890E005C081E890E002C083E8AD
:1019700090E0CF910C94410B88E58C0F833108F0F7
:1019800064C0C83A39F1C93A41F1CA3A49F1CB3A8F
:1019900051F1CC3A59F1CD3A61F1C03B69F1CE3AFF
:1019A00071F1CF3A79F1C13B81F1C23B89F1C33B7F
:1019B00091F1C43B99F1C53BA1F1C63BA9F1C73BED
:1019C000B1F1C83BB9F1C93BC1F1CA3BC9F58AE2E3
:1019D00092E038C082EE90E035C089EE90E032C0EF
:1019E0008AEE90E02FC085EB90E02CC086EB90E073
:1019F00029C087EB90E026C08CEC90E023C08DECF2
:101A000090E020C083E891E01DC08AE891E01AC010
:101A100082E991E017C084E991E014C081E292E08C
:101A200011C083E292E00EC084E292E00BC085E236
:101A300092E008C086E292E005C087E292E002C030
:101A400080E090E0CF910C94570BCF9108958823BC
:101A500009F44BC0823859F40E941F0B81FF45C026
:101A600089E30E94A5160E945A1789E30CC08338A7
:101A700071F40E941F0B80FF38C083E50E94A516F9
:101A80000E945A1783E50E94E1160C945A17843875
:101A900059F40E941F0B82FF28C087E40E94A516FC
:101AA0000E945A1787E4EFCF9CEF980F913A58F3B2
:101AB00090E2980F983050F4877091E001C0990F30
:101AC0008A95EAF7892F0E942717DFCF9BE5980FA9
:101AD000933020F480E090E00C94410B885A8331DD
:101AE00020F480E090E00C94570B0895882321F0B7
:101AF0000E9421170C945A170895882321F00E9400
:101B000027170C945A170895CF92DF92EF92FF9205
:101B10000F931F93CF93DF93CDB7DEB728970FB600
:101B2000F894DEBF0FBECDBF8C0185E0F801DE0169
:101B3000119601900D928A95E1F7F801408131816B
:101B4000F280258122952F7083819481892B31F039
:101B50003F3F31F481E04F3F19F403C081E001C001
:101B600080E080FD6AC349833A8389819A812F830B
:101B70000E9463169E8388870E9462160E94351514
:101B80004E81E42FE295EF70F0E0E05AFF4F2F8195
:101B900068850C943921842F807F142F1F7088232F
:101BA00011F01295107FFF2059F0112309F449C25A
:101BB000812F68870E9431170E945A17688541C299
:101BC000862F0E94270D112309F437C3812F0E940D
:101BD000371728960FB6F894DEBF0FBECDBFDF9142
:101BE000CF911F910F91FF90EF90DF90CF900C94C9
:101BF0005A17342F307F842F8F70303211F0829536
:101C0000807F662319F0613009F12AC0FF20A1F01E
:101C1000222381F1213071F528960FB6F894DEBFAA
:101C20000FBECDBFDF91CF911F910F91FF90EF902D
:101C3000DF90CF900C944117222319F0213009F442
:101C4000FCC28E830E9444178E817FC1FF2021F049
:101C5000263008F0F2C20EC0253008F0EEC275C181
:101C6000FF20C1F0222331F0F801958190FFE9C1F6
:101C70009F70958328960FB6F894DEBF0FBECDBF38
:101C8000DF91CF911F910F91FF90EF90DF90CF9058
:101C90000C94760D222309F458C1E7C1242F269510
:101CA0002695237030E02115310521F021303105D2
:101CB00051F0C3C2FF2021F0862F942F93708DC264
:101CC00080E090E08AC2FF2021F0862F942F93704D
:101CD00002C080E090E028960FB6F894DEBF0FBEF9
:101CE000CDBFDF91CF911F910F91FF90EF90DF90CB
:101CF000CF900C94570B862FFF2019F00E94AF1B3A
:101D000002C00E94171C28960FB6F894DEBF0FBEC3
:101D1000CDBFDF91CF911F910F91FF90EF90DF909A
:101D2000CF900C949C1C842F837009F076C0F11026
:101D300084C2262F229526952770220F220F862FE8
:101D40008F70C82ED12CE12CF12C022E04C0CC0CAB
:101D5000DD1CEE1CFF1C0A94D2F764FF10C06FE07C
:101D600070E080E090E004C0660F771F881F991F25
:101D70002A95D2F7609570958095909503C060E0A4
:101D800070E0CB01242F269526952370422F50E03A
:101D900042305105D1F04330510559F16C297D296C
:101DA0008E299F294130510541F128960FB6F894AC
:101DB000DEBF0FBECDBFDF91CF911F910F91FF907E
:101DC000EF90DF90CF900C945A156C297D298E29C5
:101DD0009F2928960FB6F894DEBF0FBECDBFDF91C6
:101DE000CF911F910F91FF90EF90DF90CF900C94C7
:101DF00074150E945A15C701B60128960FB6F894BB
:101E0000DEBF0FBECDBFDF91CF911F910F91FF902D
:101E1000EF90DF90CF900C944015FF2019F0842FA5
:101E2000817001C08695882309F407C2262F229568
:101E300026952770220F220F862F8F70C82ED12C47
:101E4000E12CF12C022E04C0CC0CDD1CEE1CFF1C7E
:101E50000A94D2F764FF10C06FE070E080E090E079
:101E600004C0660F771F881F991F2A95D2F76095C7
:101E700070958095909503C060E070E0CB01242FB1
:101E8000269526952370422F50E042305105D1F01F
:101E90004330510559F16C297D298E299F29413004
:101EA000510541F128960FB6F894DEBF0FBECDBFA5
:101EB000DF91CF911F910F91FF90EF90DF90CF9026
:101EC0000C942E166C297D298E299F2928960FB6F1
:101ED000F894DEBF0FBECDBFDF91CF911F910F9160
:101EE000FF90EF90DF90CF900C9448160E942E1632
:101EF000C701B60128960FB6F894DEBF0FBECDBF5E
:101F0000DF91CF911F910F91FF90EF90DF90CF90D5
:101F10000C941416603F49F118F4603E48F48CC0EC
:101F2000623F09F451C0E0F1633F09F461C084C02D
:101F3000162F1F70842F8F71FF2021F00E94AD1586
:101F4000812F98CE0E94CE15812F28960FB6F89437
:101F5000DEBF0FBECDBFDF91CF911F910F91FF90DC
:101F6000EF90DF90CF900C947D0DFF20A9F02530ED
:101F700008F063C1842F8F7128960FB6F894DEBFE6
:101F80000FBECDBFDF91CF911F910F91FF90EF90CA
:101F9000DF90CF900C94F315263008F04EC1EACFB5
:101FA000FF20A1F0842F8F7128960FB6F894DEBF22
:101FB0000FBECDBFDF91CF911F910F91FF90EF909A
:101FC000DF90CF900C94AD15FF2061F3842F8F71BB
:101FD00028960FB6F894DEBF0FBECDBFDF91CF912C
:101FE0001F910F91FF90EF90DF90CF900C94CE1542
:101FF000FF2091F0842F8F7128960FB6F894DEBFE2
:102000000FBECDBFDF91CF911F910F91FF90EF9049
:10201000DF90CF900C94981528960FB6F894DEBFF9
:102020000FBECDBFDF91CF911F910F91FF90EF9029
:10203000DF90CF900C948E15FF20A1F0222309F49D
:10204000B1CF862F28960FB6F894DEBF0FBECDBF56
:10205000DF91CF911F910F91FF90EF90DF90CF9084
:102060000C945F0C222309F4B1CF862F28960FB66B
:10207000F894DEBF0FBECDBFDF91CF911F910F91BE
:10208000FF90EF90DF90CF900C94270D4F70C80118
:102090000E94A11828960FB6F894DEBF0FBECDBFE0
:1020A000DF91CF911F910F91FF90EF90DF90CF9034
:1020B0000C94B714F110C1C0942F9F70492F50E0B9
:1020C0004230510509F440C0BCF44115510561F19D
:1020D0004130510509F0B1C028960FB6F894DEBF23
:1020E0000FBECDBFDF91CF911F910F91FF90EF9069
:1020F000DF90CF900C94931F43305105A9F14430E9
:10210000510509F09AC0862F28960FB6F894DEBFC5
:102110000FBECDBFDF91CF911F910F91FF90EF9038
:10212000DF90CF900C94E71F28960FB6F894DEBF8F
:102130000FBECDBFDF91CF911F910F91FF90EF9018
:10214000DF90CF900C947C1F28960FB6F894DEBFDA
:102150000FBECDBFDF91CF911F910F91FF90EF90F8
:10216000DF90CF900C94AF1F28960FB6F894DEBF87
:102170000FBECDBFDF91CF911F910F91FF90EF90D8
:10218000DF90CF900C94C21F942F9F70892F90E006
:1021900082309105A1F02CF4009779F1019739F084
:1021A0004CC08330910581F0049799F046C0FF2020
:1021B00019F084E890E011C085E890E00EC0FF209F
:1021C000D9F386E890E009C0FF20B1F387E890E0FA
:1021D00004C0FF2089F388E890E028960FB6F894B1
:1021E000DEBF0FBECDBFDF91CF911F910F91FF904A
:1021F000EF90DF90CF900C94410BFF20F1F0909185
:10220000DD0194FB882780F921E0822780FB94F987
:102210009093DD0112C04F70C80128960FB6F89454
:10222000DEBF0FBECDBFDF91CF911F910F91FF9009
:10223000EF90DF90CF900C94350228960FB6F8946B
:10224000DEBF0FBECDBFDF91CF911F910F91FF90E9
:10225000EF90DF90CF9008950E943E170E941017D4
:102260000E945A170E94481D0E949C1C80E090E02A
:102270000E94410B80E090E00C94570B0E942E17B7
:102280000C942C110E946316292F22952F7030E098
:102290002C3031054CF42A3031056CF422503109D0
:1022A0002230310590F407C02C30310551F02F3029
:1022B000310539F00AC0803E10F0803F31F481E0F2
:1022C000089593FB882780F9089580E00895CF93BF
:1022D000DF9300D000D01F92CDB7DEB70F900F90E4
:1022E0000F900F900F90DF91CF910895CF93DF93D0
:1022F00000D000D000D0CDB7DEB726960FB6F89448
:10230000DEBF0FBECDBFDF91CF9108951F93CF9356
:10231000DF93C091790116E080917A01C81799F096
:10232000D0E01C9FF0011D9FF00D1124E558FE4FD9
:102330004081518162817381848195810E947611EF
:102340002196C770E9CFDF91CF911F9108954091F9
:10235000AB015091AC016091AD017091AE018091E3
:10236000AF019091B0010C947611CF938091B001A0
:1023700082958F7009F05FC08091AD01882309F4C8
:102380005AC020917901A0917A016091AB017091BE
:10239000AC018091AE019091AF0131E06F3F09F047
:1023A00030E0B32FC6E02A1709F445C0009721F0AA
:1023B0007F3F21F44B2F03C041E001C040E030E0FB
:1023C00040FD35C0C29FF001C39FF00D1124E558B8
:1023D000FE4F418174132BC04081641328C0428199
:1023E000411125C0438154814817590710F44150C9
:1023F0005109481B590B483C5105C8F48091B00164
:102400008F7080618093B00186E0829FF001839F8E
:10241000F00D1124E058FE4F80818F708061808321
:102420008BEA91E00E94840DCF910C9486112F5F6E
:102430003F4F2770B8CFCF910895CF92DF92EF92A0
:10244000FF920F931F93CF93DF93CDB7DEB76297C1
:102450000FB6F894DEBF0FBECDBF8C0185E0F8014A
:10246000DE011D9601900D928A95E1F7D8014C91FD
:1024700011965C91119712966C9112971396ED90AC
:10248000FC9014977091AB01E091AC012091AE01EA
:102490003091AF012115310531F0EF3F31F481E08A
:1024A0007F3F19F403C081E001C080E0B82FB17014
:1024B000CB2E80FD6CC1D090AD01DD2009F4F5C0BC
:1024C000F091B001E216F30638F0C701821B930BBE
:1024D000883C910548F09BC0209530952E0D3F1DFE
:1024E000283C310508F093C08F2F807F09F052C03F
:1024F000E51314C0741312C0D62E61110FC0FF7003
:10250000F061F093B0010E94A7118BEA91E00E9464
:10251000840D8091B001F80185836CC1EF2831F002
:102520005F3F31F481E04F3F19F403C081E001C007
:1025300080E080FD03C081E0862701C080E0F82FA5
:10254000F170FF2E80FF1CC08091790120917A01EB
:1025500036E0821709F428C190E0389FF001399FD6
:10256000F00D1124E558FE4F7181571306C070819C
:10257000471303C07281671303C001968770E9CFC8
:10258000D62E662309F436C18091B0018160809314
:10259000B00153C0E51308C0741306C0611104C034
:1025A000D8011596FC93AEC04D875E878D859E85BC
:1025B0006A8B0E9442116A89882329F1D62E6623EC
:1025C00011F12091B001822F82958F7090E00297D7
:1025D0000CF460C08091AB019091AC0198878F831F
:1025E0001986FB86EA862C87CE01079651C0E5172F
:1025F00031F14D875E878D859E856A8B0E944211E1
:102600006A8981112EC0C8010E94840DA4C08F2F39
:10261000807F69F77E2DF98AE88A89890E9467118F
:102620008BEA91E00E94840DEBEAF1E086E0DF01A5
:102630001D928A95E9F70E94A711D12CDBC0741373
:10264000D8CF6111D6CFD8011596FC93C8010E944E
:10265000840DEBEAF1E086E0DF011D928A95E9F74F
:10266000C9C0D62E662379F22091B001822F8295BF
:102670008F7090E0029774F08091AB019091AC0163
:102680009A8389831B82FD82EC822E83CE01019680
:102690000E94840D86E0F801ABEAB1E001900D9252
:1026A0008A95E1F70E94B5116FC0E216F30628F093
:1026B000C701821B930B9C0104C0209530952E0D01
:1026C0003F1D283C310508F052C0D62E662309F480
:1026D0009ACFE5132CC074132AC08091B00180FDFD
:1026E0001DC0982F92959F70C9F0D80115968C93B4
:1026F00015979F3039F09F5F9295907F8F70892B4F
:1027000015968C93C8010E94840D86E0F801ABEA0F
:10271000B1E001900D928A95E1F736C086E0F801AC
:10272000ABEAB1E001900D928A95E1F763C04D8765
:102730005E878D859E850E944211882379F086E010
:10274000F801ABEAB1E001900D928A95E1F70E94A1
:10275000B5110E94A711DD24D3944CC08091B00123
:1027600081608093B001C8010E94840D43C07E2D1A
:10277000F98AE88A89890E946711EBEAF1E086E02C
:10278000DF011D928A95E9F70E94A71133C06623E5
:1027900009F439CF4D875E878D859E850E94421151
:1027A000882309F430CFCBCF4D875E878D859E85FA
:1027B0000E946316292F22952F7030E022303105B8
:1027C0002CF49F7041F0811106C00CC024303105FB
:1027D0002CF49F7049F4805E883020F0C8010E947C
:1027E000840DCF2CDC2C06C0D80115969C91907FCF
:1027F00091F7F8CF8D2D62960FB6F894DEBF0FBE1D
:10280000CDBFDF91CF911F910F91FF90EF90DF909F
:10281000CF9008951F93CF93DF93CDB7DEB72C975A
:102820000FB6F894DEBF0FBECDBF4F8358876987C0
:102830007A878B879C87CE0107960E941D1288237A
:10284000C1F02F8138858A859B85892B31F03F3FE8
:1028500011F080E003C02F3FE1F781E0811147C014
:102860004F81588569857A858B859C850E94761174
:102870003EC086E0FE013796DE01119601900D9272
:102880008A95E1F7FF81E8854A855B854115510509
:1028900031F0EF3F31F481E0FF3F19F403C081E0F4
:1028A00001C080E080FD23C020917A0130E0C901A1
:1028B0000196877099276091790170E086179707D4
:1028C000F1F1F983EA835D834C8396E0929FD00116
:1028D000939FB00D1124A558BE4FFE013196019073
:1028E0000D929A95E1F780937A010E94861116E085
:1028F0008091790190917A01891779F1189FC0012F
:10290000112485589E4F0E941D12882331F1E091B9
:1029100079011E9FF0011124E558FE4F408151813D
:1029200062817381848195810E9476118091790101
:1029300090E001968770992780937901D9CF0E9402
:102940003E1110927A0110927901EBEAF1E086E0F3
:10295000DF011D928A95E9F7CACF2C960FB6F8943D
:10296000DEBF0FBECDBFDF91CF911F910895EF92D3
:10297000FF920F931F93CF93DF93FC01009709F40D
:102980006DC0F12CEE24E394EF01219684918437FD
:1029900040F4843008F053C0813081F0823021F15E
:1029A0005DC0853709F445C0B0F19CE7980F9037BA
:1029B00008F054C08F770E94270D43C08F010E5F2F
:1029C0001F4FFE01849190E2980F983050F4877069
:1029D000FE2D01C0FF0F8A95EAF78F2F0E94311755
:1029E00015C00E945F0C12C08F010E5F1F4FFE01C9
:1029F000849190E2980F983058F48770FE2D01C0B2
:102A0000FF0F8A95EAF78F2F0E943717E80119C048
:102A10000E94270DFBCFCF010296FE01C491CC236B
:102A200061F0EFE9FFE03197F1F700C00000C1501D
:102A3000F6CFCF010296FE01F490EC0102C00E9495
:102A40005F0C8F2D882341F0EFE9FFE03197F1F71C
:102A500000C000008150F6CFFE0196CFDF91CF91EC
:102A60001F910F91FF90EF90089508956093B50125
:102A70007093B6018093B7019093B8010C942C1118
:102A80000F931F930091B5011091B6012091B701EA
:102A90003091B801062B172B282B392B0093B50149
:102AA0001093B6012093B7013093B8011F910F9195
:102AB0000C942C110F931F930091B5011091B60146
:102AC0002091B7013091B801062317232823392319
:102AD0000093B5011093B6012093B7013093B8016C
:102AE0001F910F910C942C110F931F930091B5011E
:102AF0001091B6012091B7013091B8010627172730
:102B0000282739270093B5011093B6012093B70108
:102B10003093B8011F910F910C942C111092B101B8
:102B20001092B2011092B3011092B4010C942C11C6
:102B300041E050E060E070E004C0440F551F661FA4
:102B4000771F8A95D2F74093B1015093B2016093F9
:102B5000B3017093B4010C942C1141E050E060E09B
:102B600070E004C0440F551F661F771F8A95D2F787
:102B70008091B1019091B201A091B301B091B401E3
:102B8000842B952BA62BB72B8093B1019093B20188
:102B9000A093B301B093B4010C942C1141E050E028
:102BA00060E070E004C0440F551F661F771F8A95D0
:102BB000D2F740955095609570958091B1019091B4
:102BC000B201A091B301B091B40184239523A6234F
:102BD000B7238093B1019093B201A093B301B09356
:102BE000B4010C942C1141E050E060E070E004C0AE
:102BF000440F551F661F771F8A95D2F78091B10148
:102C00009091B201A091B301B091B40184279527AE
:102C1000A627B7278093B1019093B201A093B30187
:102C2000B093B4010C942C110F931F930091B10138
:102C30001091B2012091B3013091B401062B172BF2
:102C4000282B392B0093B1011093B2012093B301CB
:102C50003093B4011F910F910C942C110F931F937B
:102C60000091B1011091B2012091B3013091B401F2
:102C700006231723282339230093B1011093B201AF
:102C80002093B3013093B4011F910F910C942C1138
:102C90000F931F930091B1011091B2012091B301E4
:102CA0003091B40106271727282739270093B1014F
:102CB0001093B2012093B3013093B4011F910F918F
:102CC0000C942C110895CF92DF92EF92FF920F9304
:102CD0001F93CF93DF93EC01C090B501D090B60164
:102CE000E090B701F090B8018091B1019091B201EC
:102CF000A091B301B091B401C82AD92AEA2AFB2ACB
:102D00000FE110E0B701A601002E04C0769567958B
:102D1000579547950A94D2F740FF07C0BE01802F10
:102D20000E942E188130910539F40150110950F795
:102D3000BE0180E00E942E18DF91CF911F910F916C
:102D4000FF90EF90DF90CF90089590910E0199231E
:102D5000B9F0982F9695969596959F3088F5E091C5
:102D60000F01F0911001E90FF11D877021E030E0B3
:102D700001C0220F8A95EAF78181822B8183089511
:102D800040910F015091100120E030E09FEFFA01D7
:102D9000E20FF31F6281681799F09F3F19F46111E8
:102DA00001C0922F2F5F3F4F2E30310581F79F3F9B
:102DB00039F0FA01E90FF11D97FDFA958283089524
:102DC000089590910E019923C1F0982F96959695AC
:102DD00096959F3020F5E0910F01F0911001E90FD9
:102DE000F11D877021E030E001C0220F8A95EAF7DB
:102DF0002095818128232183089540910F015091CE
:102E0000100120E030E0FA01E20FF31F92819813E5
:102E100001C012822F5F3F4F2E303105A1F7089578
:102E200081E090E0E0910F01F0911001E80FF91FAF
:102E30001082019680319105A9F708958091CB0108
:102E400008959091CB01982B9093CB010895809594
:102E50009091CB0198239093CB0108951092CB01D0
:102E600008959091CA01982B9093CA010895809576
:102E70009091CA0198239093CA0108951092CA01B3
:102E800008958093B90108951092B9010895409171
:102E90000F015091100120E030E080E0FA01E20FD4
:102EA000F31F918191118F5F2F5F3F4F2F303105BD
:102EB000A9F70895E0910F01F09110018091CB01E5
:102EC0008083E0910F01F091100180819091CA01FF
:102ED000892B80839091B901992361F0E0910F01D2
:102EE000F09110018081892B80830E944717811106
:102EF0001092B90180910F01909110010C942B0B4D
:102F00008D3B60F4883A00F5853AA8F4843088F463
:102F1000813009F05BC081E090E00895803E08F4C4
:102F200055C0883E30F0803F08F450C090E0906576
:102F3000089590E00895853A09F44BC0863A09F067
:102F40004BC082E890E40895883A09F448C0893A71
:102F500009F448C08A3A09F448C08B3A09F448C0D9
:102F60008C3A09F448C08B3B09F448C08C3B09F407
:102F700048C08D3A09F448C0803B09F448C08E3AF5
:102F800009F448C08F3A09F448C0813B09F448C0AD
:102F9000823B09F448C0833B09F448C0843B09F4F0
:102FA00048C0853B09F448C0863B09F448C0873BCC
:102FB00009F448C0883B09F448C0893B09F448C07B
:102FC0008A3B09F048C08AE296E4089580E090E0E8
:102FD000089581E890E4089583E890E4089582EEEE
:102FE00094E4089589EE94E408958AEE94E40895B3
:102FF00085EB94E4089586EB94E4089583EB94E4E0
:10300000089584EB94E4089587EB94E408958CECA0
:1030100094E408958DEC94E4089583E895E408958C
:103020008AE895E4089582E995E4089584E995E4B1
:10303000089581E296E4089583E296E4089584E297
:1030400096E4089585E296E4089586E296E408956C
:1030500087E296E4089580E094E408950E945C027B
:10306000803EA8F4803C00F5813309F45CC038F45C
:10307000893209F452C08A3209F45BC05FC08933D7
:10308000B1F08238A1F0853309F441C057C0833EC6
:1030900041F128F4803E99F0823EB9F04FC0863E5F
:1030A00031F1873E71F14AC00E946B020895909100
:1030B000DD0190FD02C091FF41C080EE3FC08091D4
:1030C000DD0180FFFACF89E339C08091DD0182FF05
:1030D0000CC08091DD0184FF02C080E02FC083EE30
:1030E0002DC08091DD0182FFF4CF82EE27C0809158
:1030F000DD0183FF0AC08091DD0184FDEECF87EE04
:103100001DC08091DD0183FFF6CF86EE17C0809150
:10311000DD0185FF06C089E211C08091DD0185FFD8
:10312000FACF85E30BC08091DD0186FF06C08AE2FD
:1031300005C08091DD0186FFFACF81E30E948017F0
:10314000089580E090E008958091E201843009F1D3
:103150001092CD0120E488E190E00FB6F894A89594
:10316000809360000FBE2093600083B7817F8460EE
:1031700083BF83B7816083BF7894889583B78E7F40
:1031800083BF88E10FB6F8948093600010926000CE
:103190000FBE089508950895CF930E94CA180E9403
:1031A000AD020E94CB18C0E08C2F0E94A503892B92
:1031B00029F4CF5FC630C1F780E001C081E0CF9134
:1031C00008950E943E110C946B1F1F920F920FB630
:1031D0000F9211248F939F93AF93BF938091CD0152
:1031E000811113C08091CE019091CF01A091D001A7
:1031F000B091D1014196A11DB11D8093CE01909354
:10320000CF01A093D001B093D101BF91AF919F9115
:103210008F910F900FBE0F901F90189582E084BD84
:1032200093E095BD9AEF97BD80936E0008952FB7F8
:10323000F8948091CE019091CF01A091D001B091EE
:10324000D1012FBF0895CF92DF92EF92FF920F939B
:103250001F932FB7F8944091CE015091CF01609108
:10326000D0017091D1012FBF6A017B01EE24FF24B0
:103270008C0120E030E0C016D106E206F30610F41F
:1032800041505109481B590BCA011F910F91FF90E2
:10329000EF90DF90CF9008951F920F920FB60F928C
:1032A00011248F939F93AF93BF938091CE01909100
:1032B000CF01A091D001B091D1010196A11DB11D06
:1032C0008093CE019093CF01A093D001B093D10110
:1032D000BF91AF919F918F910F900FBE0F901F9054
:1032E00018950E944208F8942FEF87EA91E6215042
:1032F00080409040E1F700C0000087E090EBDC01E7
:103300008093EC019093ED01A093EE01B093EF0157
:103310002CE088E190E00FB6F894A89580936000C7
:103320000FBE20936000FFCFCF92DF92EF92FF920B
:103330000F931F93CF93DF93C82ED12C01E010E0A1
:103340008D2D0E94A5037C01C0E0D0E098010C2ED9
:1033500002C0220F331F0A94E2F72E213F21232BB4
:1033600029F42196CF30D10589F709C06C2F7D2D26
:1033700080E00E945C02C812F4CF81E005C0D394C3
:1033800086E0D812DDCF80E0DF91CF911F910F91C1
:10339000FF90EF90DF90CF900895CF93C82F8CE2ED
:1033A0000E949419882321F08C2FCF910C949419AA
:1033B00080E0CF910895CF930E94121B811102C02B
:1033C0000E94F31AC5E6C15049F00E94AD028FE396
:1033D0009CE90197F1F700C00000F5CF89E20E9457
:1033E000CD198111FEC08AE20E94CD1981110E947F
:1033F000F31A85E00E94CD1981110E9471190E9473
:103400001D1B8093CC0187E00E94CD19882399F180
:103410008BE10E94CD19882351F09091CC0191FB52
:10342000882780F921E0822780FB91F922C08EE075
:103430000E94CD19882351F09091CC0192FB8827EE
:1034400080F921E0822780FB92F913C080E10E947D
:10345000CD199091CC01882341F093FB882780F906
:1034600021E0822780FB93F904C0892F809580FB9F
:1034700090F99093CC010E94211B8093DD0180EE96
:103480000E94CD19882341F08091DD01982F9095FD
:1034900090FB80F98093DD0189E30E94CD19882398
:1034A00059F09091DD0191FB882780F921E0822776
:1034B00080FB91F99093DD0182EE0E94CD19882363
:1034C00059F09091DD0192FB882780F921E0822755
:1034D00080FB92F99093DD0186EE0E94CD1988233E
:1034E00059F09091DD0193FB882780F921E0822734
:1034F00080FB93F99093DD0183EE0E94CD19882320
:1035000059F09091DD0194FB882780F921E0822712
:1035100080FB94F99093DD0185E30E94CD19882307
:1035200059F09091DD0195FB882780F921E08227F1
:1035300080FB95F99093DD0181E30E94CD198823EA
:1035400059F09091DD0196FB882780F921E08227D0
:1035500080FB96F99093DD0181E10E94CD198823CB
:1035600059F09091DD0197FB882780F921E08227AF
:1035700080FB97F99093DD018091DD0187FB88271F
:1035800080F980930E0187E20E94CD19C82F8EE149
:103590000E94CD198111C2608FE10E94CD19811165
:1035A000C46080E20E94CD198111C86081E20E944E
:1035B000CD198111C06182E20E94CD198111C062D2
:1035C00083E20E94CD198111C06484E20E94CD196A
:1035D0008111C0686C2F70E080E090E0CF910C9476
:1035E0003615CF9108956DEE7EEF80E090E00E9459
:1035F0006F2160E082E090E00E94612160E083E062
:1036000090E00E94612160E084E090E00E946121EE
:1036100060E085E090E00E94612160E086E090E05B
:103620000C94612180E090E00E945B2121E08D3EBE
:103630009E4F09F020E0822F089582E090E00C94E4
:10364000532184E090E00C94532186E090E00C94A8
:103650005321682F86E090E00C9461218091D40181
:1036600080FF0BC06091140185E0689FB0011124B8
:1036700075956795759567952AC081FF09C060911A
:10368000140185E0689FB0011124759567951FC0EE
:1036900082FF07C06091140185E0689FB00111248A
:1036A00016C04091D5014423C9F06091130146171B
:1036B00088F72091140185E0289F90011124429FF2
:1036C000C001439F900D112470E00E9425216038B5
:1036D000710540F46115710539F002C065E070E0D4
:1036E000862F08958FE7089581E008958091D40191
:1036F00080FF08C06091120170E07595679575951F
:10370000679521C081FF06C06091120170E0759538
:10371000679519C082FF04C06091120170E010C06B
:103720008091D5018823C1F0609111018617A0F71F
:1037300090911201989FC001112470E00E942521F0
:103740006038710528F46115710521F0862F089500
:103750008FE7089581E0089561E070E0F4CF803F45
:1037600021F40E942E1B819504C0813F29F40E9400
:103770002E1B8093D8010895823F21F40E942E1BB6
:10378000819504C0833F29F40E942E1B8093D701AA
:103790000895893F19F40E94761B05C08A3F31F4D1
:1037A0000E94761B81958093D90108958B3F21F467
:1037B0000E94761B819504C08C3F29F40E94761BE1
:1037C0008093DA010895843F21F48091D6018160CD
:1037D00017C0853F21F48091D601826011C0863FD9
:1037E00021F48091D60184600BC0873F21F4809141
:1037F000D601886005C0883F31F48091D601806190
:103800008093D60108958D3F21F48091D401816089
:103810000BC08E3F21F48091D401826005C08F3FA0
:1038200029F48091D40184608093D4010895803F6D
:1038300039F48091D80187FF6CC01092D80169C01B
:10384000813F29F48091D8011816BCF362C0909191
:10385000D701823F29F497FF5CC01092D70159C06D
:10386000833F19F41916CCF354C0893F41F4809179
:10387000D90118160CF04DC01092D9014AC08A3FE8
:1038800029F48091D90187FF44C0F6CF8B3F39F4EA
:103890008091DA0187FF3DC01092DA013AC08C3F77
:1038A00029F48091DA011816BCF333C0843F21F467
:1038B0008091D6018E7F17C0853F21F48091D6017B
:1038C0008D7F11C0863F21F48091D6018B7F0BC084
:1038D000873F21F48091D601877F05C0883F31F46E
:1038E0008091D6018F7E8093D60113C08D3F21F445
:1038F0008091D4018E7F0BC08E3F21F48091D40142
:103900008D7F05C08F3F29F48091D4018B7F8093F8
:10391000D4018091D70181110EC08091D80181110D
:103920000AC08091D901811106C08091DA0181110C
:1039300002C01092D501089586ED91E00E94360BE9
:103940000E9417199093D3018093D20108951F9379
:10395000CF93DF938091D2019091D3010E942319DC
:103960004091D501442321F02091150130E006C09B
:10397000209116015AE0259F900111248217930788
:1039800008F482C08091D7011091D801D091D9015B
:10399000C091DA01811107C0111105C0D11103C016
:1039A000CC2309F471C04F3F19F04F5F4093D5010C
:1039B000181624F40E942E1B8093D7018091D70102
:1039C00087FF05C00E942E1B81958093D701111699
:1039D00024F40E942E1B8093D8018091D80187FF88
:1039E00005C00E942E1B81958093D8016091D7015C
:1039F000662339F11091D801112319F1772767FD5A
:103A00007095872F972F0E94362023E333E343E3FB
:103A10005FE30E949A200E9403206093D701612FE8
:103A2000772767FD7095872F972F0E94362023E315
:103A300033E343E35FE30E949A200E9403206093F4
:103A4000D8011D1624F40E94761B8093D901809121
:103A5000D90187FF05C00E94761B81958093D9010B
:103A60001C1624F40E94761B8093DA018091DA01FF
:103A700087FF05C00E94761B81958093DA01DF9154
:103A8000CF911F910C949C1CDF91CF911F910895B1
:103A9000E6EDF1E085E0DF011D928A95E9F71092ED
:103AA000D5011092D4010895833081F128F481303A
:103AB00059F08230D1F00895853009F449C0B8F149
:103AC000863009F456C0089520911601862F90E0A3
:103AD000820F911D8F3F910520F4620F60931601B4
:103AE00008958FEF80931601089520911501862F78
:103AF00090E0820F911D8F3F910520F4620F60933B
:103B0000150108958FEF80931501089520911401F8
:103B1000862F90E0820F911D8F3F910520F4620F58
:103B20006093140108958FEF8093140108952091FC
:103B30001301862F90E0820F911D8F3F910520F495
:103B4000620F6093130108958FEF8093130108951E
:103B500020911201862F90E0820F911D8F3F9105D9
:103B600020F4620F6093120108958FEF8093120189
:103B7000089520911101862F90E0820F911D8F3FB3
:103B8000910520F4620F6093110108958FEF8093E7
:103B900011010895833011F128F4813049F0823009
:103BA00091F00895853081F120F18630C1F10895BA
:103BB00080911601681720F4861B809316010895E2
:103BC00010921601089580911501681720F4861B44
:103BD00080931501089510921501089580911401A4
:103BE000681720F4861B8093140108951092140125
:103BF000089580911301681720F4861B80931301A8
:103C0000089510921301089580911201681720F40D
:103C1000861B8093120108951092120108958091DD
:103C20001101681720F4861B8093110108951092EA
:103C3000110108958B3109F46DC000F58E3009F43F
:103C400073C068F4873009F458C018F48630E9F17D
:103C500033C0883099F18B3009F4A2C02DC0813176
:103C600009F47DC020F4803109F468C025C0863194
:103C700009F496C0893109F493C01EC0853309F454
:103C800077C060F4873209F473C020F48E3108F0F5
:103C900074C012C0893209F46BC00EC0833438F48A
:103CA0008A3308F06CC0883309F47AC005C08334C5
:103CB00009F45EC0883499F080E008950E941D1BCD
:103CC0000E94211B0E94251B6BC08091CC01817F2B
:103CD0008E7F8093CC0181E08093DB0108950E9468
:103CE0003E112FEF83ED90E3215080409040E1F7AB
:103CF00000C000000E94711953C09091CC01892F1F
:103D0000817090FF03C0917F9E7F26C09160909349
:103D1000CC0146C09091CC0191FB882780F921E02D
:103D2000822780FB91F913C09091CC0192FB8827E8
:103D300080F921E0822780FB92F909C09091CC01A3
:103D400093FB882780F921E0822780FB93F99093E9
:103D5000CC01882329F191609093CC0108950E94B1
:103D60003E1180910E0191E0892780930E0118C0C9
:103D700061E070E080E090E00FC023EE01C027EC2E
:103D8000280F61E070E080E090E004C0660F771FCC
:103D9000881F991F2A95D2F70E9436150E943E115E
:103DA00081E0089580E0089580E00895CF93C82FC2
:103DB0008091DB01813069F018F08230B1F181C06F
:103DC000A0910F01B09110018C91823209F07BC05B
:103DD00007C0A0910F01B09110018C91823249F47B
:103DE0008C2F0E94D21E81111DC08C2F0E941A1E82
:103DF0001AC08C2F0E94D41E811114C0C43179F0D6
:103E000048F4CB3079F0C03109F061C082E0809392
:103E1000DB0108C0C93219F0C83321F058C0109234
:103E2000DB0155C081E0817054C0C93291F120F5A9
:103E3000C43179F1B0F4C73009F047C08EE1809306
:103E4000160182E3809315018AE08093140184E1D6
:103E50008093130188E08093120188E2809311011E
:103E600034C0CE51C63088F5EC2FF0E0E55DFE4F52
:103E700080818093DC0129C0CE34E9F020F4CB347A
:103E800021F56AE013C0C13579F0C235F1F461E083
:103E90000DC08091DC01882319F01092DC0115C05F
:103EA00081E08093DB0115C061E006C08091DC01F8
:103EB0000E94541D0AC06AE08091DC010E94CA1D64
:103EC00004C01092DB0180E004C081E002C080E009
:103ED000AACFCF9108950E94121B811102C00E94A7
:103EE000F31A0E94251B8093EB0180FF02C0869588
:103EF00001C080E00C94E1038091EB01982F96952E
:103F0000292F30E0233031054CF49F5F990F8170E9
:103F1000892B81608093EB010E94291B8091EB012A
:103F200086950C94E1038091EB01982F969591F082
:103F30009158990F8170892B8093EB018E7F91E0CE
:103F400009F490E08091EB0190FB80F98093EB0104
:103F50000E94291B8091EB0186950C94E1038091CE
:103F6000EB01982F909590FB80F98093EB010E94D4
:103F7000291B8091EB0180FF02C0869501C080E083
:103F80000C94E1033091EB01232F26952F5F2F77BF
:103F9000822F90E0317004972CF4220F232B209372
:103FA000EB0102C03093EB018091EB018E7F91E039
:103FB00009F490E08091EB0190FB80F98093EB0194
:103FC0000E94291B8091EB0186950C94E1032091BE
:103FD000EB01922F96959827990F822F8170892B4C
:103FE0008093EB018E7F91E009F490E08091EB01EA
:103FF00090FB80F98093EB010E94291B8091EB01DB
:1040000086950C94E10304D06894B1118DC0089595
:1040100070D088F09F5790F0B92F9927B751A0F032
:10402000D1F0660F771F881F991F1AF0BA95C9F74C
:1040300012C0B13081F077D0B1E0089574C0672F1D
:10404000782F8827B85F39F0B93FCCF386957795FC
:104050006795B395D9F73EF49095809570956195E5
:104060007F4F8F4F9F4F0895E89409C097FB3EF410
:1040700090958095709561957F4F8F4F9F4F9923B5
:10408000A9F0F92F96E9BB279395F6958795779533
:104090006795B795F111F8CFFAF4BB0F11F460FFF3
:1040A0001BC06F5F7F4F8F4F9F4F16C0882311F04B
:1040B00096E911C0772321F09EE8872F762F05C05F
:1040C000662371F096E8862F70E060E02AF09A95FA
:1040D000660F771F881FDAF7880F9695879597F9EF
:1040E000089557FD9058440F551F59F05F3F71F0E8
:1040F0004795880F97FB991F61F09F3F79F087954F
:104100000895121613061406551FF2CF4695F1DFD7
:1041100008C0161617061806991FF1CF8695710567
:10412000610508940895E894BB2766277727CB019B
:1041300097F908950BD078C069D028F06ED018F0A8
:10414000952309F05AC05FC01124EECFCADFA0F357
:10415000959FD1F3950F50E0551F629FF001729F1C
:10416000BB27F00DB11D639FAA27F00DB11DAA1F3B
:10417000649F6627B00DA11D661F829F2227B00D88
:10418000A11D621F739FB00DA11D621F839FA00D13
:10419000611D221F749F3327A00D611D231F849F63
:1041A000600D211D822F762F6A2F11249F575040BA
:1041B0008AF0E1F088234AF0EE0FFF1FBB1F661F55
:1041C000771F881F91505040A9F79E3F510570F00E
:1041D00014C0AACF5F3FECF3983EDCF38695779549
:1041E0006795B795F795E7959F5FC1F7FE2B880F09
:1041F000911D9695879597F9089597F99F6780E89F
:1042000070E060E008959FEF80EC089500240A9428
:104210001616170618060906089500240A941216A1
:104220001306140605060895092E0394000C11F4D4
:10423000882352F0BB0F40F4BF2B11F460FF04C081
:104240006F5F7F4F8F4F9F4F089597FB072E16F498
:10425000009407D077FD09D00E943F2107FC05D0CC
:104260003EF4909581959F4F0895709561957F4F8D
:104270000895EE0FFF1F0590F491E02D0994AA1BFD
:10428000BB1B51E107C0AA1FBB1FA617B70710F041
:10429000A61BB70B881F991F5A95A9F78095909573
:1042A000BC01CD010895F999FECF92BD81BDF89A68
:1042B000992780B50895A8E1B0E042E050E00C9461
:1042C0007621262FF999FECF1FBA92BD81BD20BD60
:1042D0000FB6F894FA9AF99A0FBE019608950E94C3
:1042E0006121272F0C946221DC01CB01FC01F9999B
:1042F000FECF06C0F2BDE1BDF89A319600B40D9232
:0C43000041505040B8F70895F894FFCFEA
:10430C000501FF4604D304B0047C0449040101BA3E
:10431C00012808140A321E3F4D36399F0352031CE4
:10432C0003E30276028F02A802C102010203040514
:06433C000607080900005D
:00000001FF
