:100000000C941D020C9461020C9461020C94610228
:100010000C9461020C9461020C9461020C946102D4
:100020000C9461020C9461020C9489090C945B0A93
:100030000C94E0190C9461020C9461020C9461021E
:100040000C9461020C94DA040C9461020C94610229
:100050000C9461020C94471A0C9461020C94610296
:100060000C9461020C9461020C9461020C94610284
:100070000C9461020C9461020C9461020C94610274
:100080000C9461020C9461020C9461020C94610264
:100090000C9461020C9461020C9461020C94610254
:1000A0000C9461020C9461020C946102C00AE20A91
:1000B000CD0BE20ACD0B240B470BCD0B9C0BAF0BEA
:1000C0009E0E9E0ECC0ECC0E280F550FF711F71179
:1000D0006D0FF71164106410201134119E11E51199
:1000E000F1A1293A3B3C3D3E000000000000000029
:1000F00000351E1F20212223242526272D2E2A49A4
:100100002B141A0815171C180C12132F30314C39E8
:10011000041607090A0B0D0E0F333400284FE100B7
:100120001D1B0619051110363738E50052E0E3E2D1
:1001300000002C00000000E6C0E4514F0101010165
:1001400001010000000000000000000101010101A8
:10015000010101010101010101010101010101018F
:10016000010101010101010101010101010101017F
:100170000101010101000101010001010101010171
:100180000101010101000101010100000100000065
:100190000001010101010000000001010102020350
:1001A0000405050607090A0B0C0E0F11121415178A
:1001B000191B1D1F212325282A2C2F313436393BAA
:1001C0003E414346494C4F5255585A5D6164676AF7
:1001D0006D707376797C7F8386898C8F9295989BDE
:1001E0009EA2A5A7AAADB0B3B6B9BCBEC1C4C6C9CC
:1001F000CBCED0D3D5D7DADCDEE0E2E4E6E8EAEB3A
:10020000EDEEF0F1F3F4F5F6F8F9FAFAFBFCFDFD8A
:10021000FEFEFEFFFFFFFFFFFFFFFEFEFEFDFDFCFB
:10022000FBFAFAF9F8F6F5F4F3F1F0EEEDEBEAE8A3
:10023000E6E4E2E0DEDCDAD7D5D3D0CECBC9C6C463
:10024000C1BEBCB9B6B3B0ADAAA7A5A29E9B9895F6
:10025000928F8C898683807C797673706D6A6764EF
:10026000615D5A5855524F4C494643413E3B3936E1
:1002700034312F2C2A282523211F1D1B1917151453
:1002800012110F0E0C0B0A090706050504030202E2
:10029000010101000000100364006900790065009D
:1002A0007200370035000000120364006900790015
:1002B000650072002E0073006F0000000403090443
:1002C00009026D00040100A03209040000010301CD
:1002D0000100092111010001223F000705810308E7
:1002E000000A0904010001030102000921110100B3
:1002F00001224D000705820308000A0904020001DB
:1003000003000000092111010001223600070583C6
:100310000308000A09040300010300000009211179
:1003200001000122390007058403100001120110A9
:100330000100000008EDFE03121200010200010599
:10034000010906A101050719E029E7150025019516
:1003500008750181020508190129059505750191A6
:1003600002950175039101050719002977150025EC
:1003700001957875018102C005010980A1018502FE
:1003800016010026B7001A01002AB7007510950162
:100390008100C0050C0901A1018503160100269CFE
:1003A000021A01002A9C02751095018100C0050106
:1003B0000902A1010901A10005091901290515007A
:1003C00025019505750181029501750381010501DE
:1003D000093009311581257F950275088106093894
:1003E0001581257F950175088106050C0A380215CF
:1003F00081257F950175088106C0C005010906A108
:1004000001050719E029E715002501950875018107
:1004100002950175088101050819012905950575E1
:100420000191029501750391010507190029FF1536
:100430000025FF950675088100C011241FBECFEF6F
:10044000DAE0DEBFCDBF04B603FE24C08091EC012C
:100450009091ED01A091EE01B091EF018730904BAA
:10046000A740B04BB9F41092EC011092ED0110923C
:10047000EE011092EF0114BE84B7877F84BF88E13C
:100480000FB6F89480936000109260000FBEE0E019
:10049000F8E3099511E0A0E0B1E0E2E0F5E402C084
:1004A00005900D92A633B107D9F721E0A6E3B1E09C
:1004B00001C01D92AC3EB207E1F70E94CF060C943A
:1004C0007F220C940000CF93DF93EC0161111FC0D9
:1004D0000E9402188272809336019A81992351F00A
:1004E000882319F085E390E002C089E290E00E9441
:1004F000811709C0882319F085E390E002C089E2E2
:1005000090E00E94C117DF91CF910C943E18DF91CB
:10051000CF9108959FE0799FF00111249AE5899F7A
:10052000E00DF11D1124E60FF11DEE51FF4F8491F6
:100530000895E82FF0E0EE0FFF1FE05AF04085919C
:10054000949108958AB18C7D8AB98BB18C7D8BB9D9
:1005500080B38F7180BB81B38F7181BB089580E8B8
:1005600085BF85BF0E94A20280B38C7E80BB81B311
:10057000836181BB6E98769A8AB18F728AB98BB18A
:10058000806D8BB987B18F7387B988B1806C88B95A
:1005900084B1847484B985B18B6B85B9E3E4F1E0EF
:1005A000A7E3B1E0119211921D921D9281E0EF3408
:1005B000F807C1F70895FF920F931F93CF93DF932E
:1005C000C7E3D1E010E001E0A5E0FA2E133099F086
:1005D00028F4113051F0123059F004C0143071F089
:1005E000153079F0859A8D980EC0509A58980BC0A6
:1005F000519A599808C0869A8E9805C0879A8F9804
:1006000002C0559A5D9880EA8A95F1F72FB1217062
:10061000202730E0799B03C080E090E002C082E0B8
:1006200090E0282B392B669B03C080E090E002C04D
:1006300084E090E0282B392B86B1992787FD90958F
:10064000809590958827990F881F9927F3E0880F48
:10065000991FFA95E1F7282B392B369B03C080E0D0
:1006600090E002C080E190E0282B392B83B19927DC
:1006700087FD9095809590958827990F881F9927D9
:1006800075E0880F991F7A95E1F7282B392B4C9B41
:1006900003C060E070E002C060E470E0262B372BFE
:1006A000199B03C060E070E002C060E870E0262B98
:1006B000372B189B03C040E050E002C040E051E0FF
:1006C000242B352B1D9B03C080E090E002C080E00E
:1006D00092E0282B392B1C9B03C080E090E002C0E5
:1006E00080E094E0282B392B89B1992787FD9095DC
:1006F000809590958827990F881F9927982F88278C
:10070000990F990F990F282B392B4E9B03C080E02E
:1007100090E002C080E090E1282B392B1B9B03C0A6
:1007200080E090E002C080E090E2282B392B7C9B97
:1007300003C080E090E002C080E090E4282B392BD9
:10074000888199818217930721F039832883F09259
:1007500000010E94A2021F5F2296163009F036CFD8
:10076000809100018823C1F081508093000188238B
:1007700039F08FE99FE00197F1F700C000000CC04D
:10078000A3E4B1E0E7E3F1E0819191918D939D9332
:1007900091E0E334F907C1F781E0DF91CF911F9138
:1007A0000F91FF900895E82FF0E0EE0FFF1FED5B33
:1007B000FE4F808191810895089581FF02C0229AA1
:1007C00001C022982A98089580915201811116C083
:1007D00081E0809352018091810088608093810044
:1007E000809181008160809381008FB7F89493E0BD
:1007F0009093890090ED909388008FBF08952E9A72
:1008000008952E980895EFE6F0E08081826080835D
:100810000895EFE6F0E080818D7F808308958093D6
:100820005101269A882321F00E94E4030C940304CA
:100830000E9409040C94010480915101813011F44B
:1008400083E203C0823021F485E58093500108954E
:10085000833011F481E9F9CF843011F48FEFF5CFB3
:10086000853091F480910101813041F480914F01F4
:100870008F5F80934F011092010103C081E080934C
:10088000010180914F0113C0863021F480914F0106
:100890008F5F0BC0873021F480914F018E5F05C0C0
:1008A000883081F480914F018D5F80934F01E82F54
:1008B000F0E0EA56FE4FE491E09350018F3F09F0DB
:1008C00055C01BC08930E1F480914F01882319F095
:1008D000815080934F0180914F0187FF03C08FE7C4
:1008E00080934F0180914F01E82FF0E0EA56FE4FD0
:1008F000E491E0935001811139C010924F010895A5
:100900008A30D9F480914F01813218F08150809360
:100910004F0180914F0187FF03C08FE780934F0104
:1009200080914F01E82FF0E0EA56FE4FE491E0930A
:1009300050018132D8F480E217C08B3011F08C3036
:10094000A9F480914F018F3718F48F5F80934F0186
:1009500080914F01E82FF0E0EA56FE4FE491E093DA
:1009600050018F3718F08FE780934F0108958091E1
:100970005101893021F480914F01825E18C08A3084
:1009800021F480914F018C5E12C08B3039F480913C
:100990004F018E3158F410924F0108958C3049F474
:1009A00080914F01803210F480E201C08E5180931B
:1009B0004F0108951F920F920FB60F9211242F939B
:1009C0003F934F935F936F937F938F939F93AF93D7
:1009D000BF93EF93FF93809153018F5F80935301F7
:1009E00090910301891306C0109253010E94FF03E6
:1009F0000E941C049091530180915001981302C0F1
:100A00000E940104FF91EF91BF91AF919F918F914F
:100A10007F916F915F914F913F912F910F900FBEFA
:100A20000F901F901895809165010895CF93DF93E3
:100A300000D01F92CDB7DEB72091E201243019F526
:100A400023E029839B838A832093E9008FEF909191
:100A5000E800815095FD06C095ED9A95F1F70000EC
:100A60008111F5CF8091E80085FF0DC040E050E096
:100A700063E070E0CE0101960E947C078091E8005F
:100A80008E778093E8000F900F900F90DF91CF91B9
:100A90000895CF93DF9300D01F92CDB7DEB720919A
:100AA000E201243021F522E029839B838A8383E0BD
:100AB0008093E9008FEF9091E800815095FD06C08A
:100AC00095ED9A95F1F700008111F5CF8091E8003E
:100AD00085FF0DC040E050E063E070E0CE0101967C
:100AE0000E947C078091E8008E778093E8000F9049
:100AF0000F900F90DF91CF9108952091E201243063
:100B0000F1F422E02093E9002FEF3091E80021502A
:100B100035FD06C035ED3A95F1F700002111F5CF0E
:100B20002091E80025FF0BC040E050E065E070E058
:100B30000E947C078091E8008E778093E8000895FA
:100B4000CF93DF93EC018091E201843009F046C03D
:100B500090910E019923D9F090910F019923B9F04A
:100B60008093E9008FEF9091E800815095FD06C0D9
:100B700095E19A95F1F700008111F5CF8091E80099
:100B800085FF2CC040E050E060E170E017C081E0DC
:100B90008093E9008FEF9091E800815095FD06C0A9
:100BA00095ED9A95F1F700008111F5CF8091E8005D
:100BB00085FF14C040E050E068E070E0CE010E9484
:100BC0007C078091E8008E778093E80080E1FE0149
:100BD000A5E5B1E001900D928A95E1F7DF91CF9103
:100BE00008958091E101811109C00E940E090E94BF
:100BF0006B098091E20084608093E2000895109276
:100C0000E1010895089580E090E00C940F040C94A5
:100C1000DC1942E061EC81E00E94880842E061EC6E
:100C200082E00E94880842E061EC83E00E9488082C
:100C300042E161EC84E00C9488088091E401833007
:100C400009F455C030F4813071F0823009F48EC05F
:100C500008958A3009F47AC08B3009F460C0893075
:100C600009F09CC020C08091E301813A09F096C050
:100C70008091E800877F8093E8008091E701909160
:100C8000E801892B21F060E080E090E003C060E1A2
:100C900085E591E070E00E94C5078091E8008B77C0
:100CA0008093E80008958091E301813209F076C0D5
:100CB0008091E7019091E801009719F0039709F0FE
:100CC0006DC08091E800877F8093E8008091E80004
:100CD00082FD05C08091E2018111F8CF5FC0809153
:100CE000F100809365018091E8008B7753C080917B
:100CF000E301813A09F052C08091E7019091E80147
:100D0000892B09F04BC08091E800877F8093E80031
:100D10008091E80080FFFCCF80910E0136C0809169
:100D2000E3018132D9F58091E7019091E801892BA7
:100D3000A9F58091E800877F8093E8000E94BD08B4
:100D40008091E50180930E010C9418128091E301CB
:100D5000813221F58091E800877F8093E8000E942E
:100D6000BD088091E6018093540108958091E301CC
:100D7000813AA1F48091E800877F8093E800809118
:100D8000E80080FFFCCF809154018093F1008091B6
:100D9000E8008E778093E8000C94BD08089584B72E
:100DA000877F84BF88E10FB6F8948093600010922B
:100DB00060000FBE90E080E80FB6F8948093610069
:100DC000909361000FBE0E943A0C0E940E090E948F
:100DD0006B098091E20084608093E20078948091B6
:100DE000E2018430E1F70E943C0C84E091E00E9433
:100DF000E60B8091E201853069F40E949F19809191
:100E0000E0018823B1F30E94C719882391F30E945F
:100E10006607EFCF0E94440CECCF292F33272330F5
:100E20003105A9F06CF42130310509F442C02230BB
:100E3000310509F043C08DE690E020EC32E042C07D
:100E400021323105C9F02232310519F137C0992715
:100E50008130910541F08230910541F0892B71F587
:100E6000ECEBF2E005C0E8EAF2E002C0E6E9F2E00D
:100E7000849190E09F0126C0643000F5E62FF0E0F9
:100E8000EE0FFF1FEC5DFE4F2081318189E090E085
:100E900019C0643098F4E62FF0E0DF01AA0FBB1F01
:100EA000A45EBE4F2D913C91E85EFE4F808190E0A4
:100EB00009C082E190E02DE233E004C080E090E0E0
:100EC00020E030E0FA0131832083089580E189BD7C
:100ED00082E189BD09B400FEFDCF8091D8008F7DED
:100EE0008093D8008091E00082608093E000809140
:100EF000E00081FDFCCF0895CF92DF92EF92FF9248
:100F00000F931F93CF93DF937C018B01EA010E9423
:100F1000DE08811131C0209731F088819981081B4A
:100F2000190BE80EF91EC12CD12C0115110519F170
:100F30008091E80085FD14C08091E8008E77809351
:100F4000E800209741F0888199818C0D9D1D99833F
:100F5000888385E011C00E94DE08882331F30CC02D
:100F6000F70181917F018093F10001501109FFEF9A
:100F7000CF1ADF0ADACF80E0DF91CF911F910F9176
:100F8000FF90EF90DF90CF9008952091E90130918C
:100F9000EA012617370748F06115710539F42091E9
:100FA000E8002E772093E80001C0B901FC0120E0A1
:100FB00061157105B9F18091E201882309F440C0FF
:100FC000853009F43FC08091E80083FD3DC08091E9
:100FD000E80082FF06C08091E80082FF26C080E022
:100FE00008958091E80080FFE3CF2091F300809185
:100FF000F20090E0922B6115710551F08830910557
:1010000038F421912093F100615071090196F3CFDA
:1010100021E0089709F020E08091E8008E77809326
:10102000E800C6CF2111C7CFD6CF8091E201882337
:1010300039F0853039F08091E80083FFCCCF04C0CF
:1010400082E0089583E0089581E008952091E90108
:101050003091EA012617370748F06115710539F418
:101060002091E8002E772093E80001C0B901FC012F
:1010700020E061157105C1F18091E201882309F436
:1010800041C0853009F440C08091E80083FD3EC036
:101090008091E80082FF06C08091E80082FF27C0AF
:1010A00080E008958091E80080FFE3CF2091F30075
:1010B0008091F20090E0922B6115710559F0883013
:1010C000910540F424912093F1003196615071090B
:1010D0000196F2CF21E0089709F020E08091E80026
:1010E0008E778093E800C5CF2111C6CFD5CF8091F0
:1010F000E201882339F0853039F08091E80083FFE0
:10110000CBCF04C082E0089583E0089581E0089584
:10111000982F973058F59093E900981739F070910F
:10112000EC002091ED005091F00003C0242F762FA9
:1011300050E021FF19C03091EB003E7F3093EB006F
:101140003091ED003D7F3093ED003091EB00316048
:101150003093EB007093EC002093ED005093F0007F
:101160002091EE0027FF07C09F5FD3CF8F70809341
:10117000E90081E0089580E008958091E30187FD12
:1011800005C08091E80080FF0EC012C08091E80089
:1011900082FD05C08091E2018111F8CF0895809110
:1011A000E8008B7708C08091E2018111EACF0895B1
:1011B0008091E8008E778093E80008958091E400A4
:1011C0009091E50045E62091EC0020FF21C02091A0
:1011D000E80020FD21C02091E201222389F0253082
:1011E00089F02091EB0025FD0FC02091E4003091A3
:1011F000E5002817390739F3415041F0C901E3CF21
:1012000082E0089583E0089581E0089584E00895E0
:101210002091E80022FFDFCF80E008950E947C0942
:101220000E948409E0EEF0E0808181608083E8ED37
:10123000F0E080818F77808319BCA7EDB0E08C91BE
:101240008E7F8C9380818F7E80831092E101089540
:101250000F931F93CF93DF930E947C090E94840910
:10126000C8EDD0E088818F77888388818068888303
:1012700088818F7D888319BC1092E2011092DE0173
:101280001092E0011092DF0100EE10E0F801808181
:101290008B7F808388818160888342E060E080E08A
:1012A0000E948808E1EEF0E080818E7F8083E2EE8C
:1012B000F0E0808181608083808188608083F80194
:1012C00080818E7F8083888180618883DF91CF9148
:1012D0001F910F910895E8EDF0E080818F7E80836B
:1012E000E7EDF0E080818160808384E082BF81E06F
:1012F0008093E1010C942809E8EDF0E080818E7F75
:1013000080831092E20008951092DA001092E100BA
:1013100008951F920F920FB60F9211242F933F93AF
:101320004F935F936F937F938F939F93AF93BF93ED
:10133000EF93FF938091E10082FF0BC08091E20068
:1013400082FF07C08091E1008B7F8093E1000E94C3
:10135000E50B8091DA0080FF1FC08091D80080FFEC
:101360001BC08091DA008E7F8093DA008091D900D3
:1013700080FF0DC080E189BD82E189BD09B400FE16
:10138000FDCF81E08093E2010E94F10505C019BC08
:101390001092E2010E94FF058091E10080FF19C0D8
:1013A0008091E20080FF15C08091E2008E7F8093E3
:1013B000E2008091E20080618093E2008091D80099
:1013C00080628093D80019BC85E08093E2010E947E
:1013D00003068091E10084FF30C08091E20084FF29
:1013E0002CC080E189BD82E189BD09B400FEFDCF3A
:1013F0008091D8008F7D8093D8008091E1008F7E0E
:101400008093E1008091E2008F7E8093E2008091E2
:10141000E20081608093E2008091DE01882311F078
:1014200084E007C08091E30087FF02C083E001C031
:1014300081E08093E2010E9407068091E10083FF32
:1014400029C08091E20083FF25C08091E100877F61
:101450008093E10082E08093E2011092DE018091AE
:10146000E1008E7F8093E1008091E2008E7F809387
:10147000E2008091E20080618093E20042E060E05F
:1014800080E00E9488088091F00088608093F000DE
:101490000E940206FF91EF91BF91AF919F918F91B2
:1014A0007F916F915F914F913F912F910F900FBE60
:1014B0000F901F9018951F920F920FB60F92112444
:1014C0002F933F934F935F936F937F938F939F934C
:1014D000AF93BF93CF93EF93FF93C091E900CF7089
:1014E0008091EC001092E9008091F000877F80935A
:1014F000F00078940E94970A1092E9008091F00021
:1015000088608093F000C093E900FF91EF91CF9144
:10151000BF91AF919F918F917F916F915F914F910B
:101520003F912F910F900FBE0F901F9018951F9312
:10153000CF93DF93CDB7DEB7AA970FB6F894DEBF8F
:101540000FBECDBFE3EEF1E08091F100819321E089
:10155000EB3EF207C9F70E941D068091E80083FF69
:101560001CC12091E3013091E401832F90E08A3087
:10157000910508F012C1FC01EA5AFF4F0C94342285
:10158000203881F0223809F008C18091E7018F707E
:101590008093E9008091EB0085FB882780F9109209
:1015A000E90006C08091DF019091E0019111826015
:1015B0009091E800977F9093E8008093F10010925B
:1015C000F100C5C0822F8D7F09F0E7C0222319F0FA
:1015D000223061F0E2C08091E501813009F0DDC088
:1015E000333009F080E08093E00128C08091E5016C
:1015F000811124C02091E7012F7009F4CEC02093FF
:10160000E9008091EB0080FF19C08091EB0033303E
:1016100011F4806211C080618093EB0081E090E062
:10162000022E01C0880F0A94EAF78093EA00109214
:10163000EA008091EB0088608093EB001092E90053
:101640008091E800877F86C02111A7C01091E50135
:101650001F778091E3008078812B8093E300809155
:10166000E800877F8093E8000E94BD088091E80031
:1016700080FFFCCF8091E30080688093E30011231A
:1016800011F083E001C082E08093E20186C020581F
:10169000223008F082C08091E5019091E6018C3DF6
:1016A00023E0920779F583E08A838AE289834FB742
:1016B000F894DE01139620E03EE051E2E32FF0E0E3
:1016C00050935700E49120FF03C0E295EF703F5F15
:1016D000EF708E2F90E0EA3010F0C79601C0C096F0
:1016E0008D939D932F5F243149F74FBF8091E80080
:1016F000877F8093E8006AE270E0CE0101960E9445
:10170000C50714C0AE014F5F5F4F6091E7010E94B3
:101710000D07009709F441C02091E800277F20932E
:10172000E800BC0189819A810E9426088091E80026
:101730008B778093E80031C0203879F58091E800FC
:10174000877F8093E8008091DE018093F100809193
:10175000E8008E778093E8000E94BD081EC021112A
:101760001CC09091E5019230C0F48091E800877F21
:101770008093E8009093DE010E94BD088091DE0115
:10178000811104C08091E30087FF02C084E001C0A2
:1017900081E08093E2010E9409068091E80083FFC6
:1017A0000AC08091E800877F8093E8008091EB0079
:1017B00080628093EB00AA960FB6F894DEBF0FBE4E
:1017C000CDBFDF91CF911F910895089590936B0144
:1017D00080936A010895E0916A01F0916B0130975E
:1017E00021F00190F081E02D099480E00895E091CE
:1017F0006A01F0916B01309721F00280F381E02DB6
:1018000009940895E0916A01F0916B01309721F0FD
:101810000480F581E02D09940895209168013091AC
:1018200069018217930771F09093690180936801B1
:10183000E0916A01F0916B01309721F00680F78109
:10184000E02D099408952091660130916701821777
:10185000930771F09093670180936601E0916A01AC
:10186000F0916B01309721F00084F185E02D09940F
:10187000089508950C94390C0E94091A0E94AF0231
:101880000E94D61A0C9466205F926F927F928F927C
:101890009F92AF92BF92CF92DF92EF92FF920F93FF
:1018A0001F93CF93DF93CDB7DEB72A970FB6F89487
:1018B000DEBF0FBECDBF0E94DB029DE6C92E91E0C8
:1018C000D92E00E010E0AA24A394B12C502E802F32
:1018D0000E94D3033C01F601E190F1906F01E826EC
:1018E000F926E114F104B1F40F5F1F4F0630110522
:1018F00069F78FEF89838A831B820E94121A8160A5
:10190000782F9D838C8349815A816B818D810E94C0
:10191000FD0C3AC08091CC0181FD0E94DC0320E0E7
:1019200030E04501022E02C0880C991C0A94E2F7AF
:10193000C4018E219F21892B09F12E835F826820AB
:10194000792081E0672809F480E088870E94121AD4
:101950008160782F9A8789874E815F8168858A8523
:101960000E94FD0CF801EE0FFF1FE359FE4F80812E
:101970009181882599259183808306C02F5F3F4FF1
:101980002F30310571F6B0CF0E94A21D10916C016D
:101990000E94EB0B1817D9F00E94EB0B80936C019F
:1019A0002A960FB6F894DEBF0FBECDBFDF91CF9160
:1019B0001F910F91FF90EF90DF90CF90BF90AF906D
:1019C0009F908F907F906F905F900C94DD032A968C
:1019D0000FB6F894DEBF0FBECDBFDF91CF911F9140
:1019E0000F91FF90EF90DF90CF90BF90AF909F90BE
:1019F0008F907F906F905F900895CF93DF93CDB7D6
:101A0000DEB72B970FB6F894DEBF0FBECDBF4F8366
:101A1000588769877A878B87DE01119686E0FD01FA
:101A200011928A95E9F785E0FE01379601900D92B3
:101A30008A95E1F749815A816B817C818D819E81F4
:101A40000E94E4142B960FB6F894DEBF0FBECDBFF4
:101A5000DF91CF910895CF93C82F882309F4C1C097
:101A6000823859F40E94EB0B81FDBBC089E30E94D0
:101A700081170E943E1889E30CC0833879F40E94D4
:101A8000EB0B80FDAEC083E50E9481170E943E18DB
:101A900083E50E94C117CF910C943E18843859F405
:101AA0000E94EB0B82FD9DC087E40E9481170E947B
:101AB0003E1887E4EECF8CEF8C0F813A48F48C2FE0
:101AC0000E94D11F81118DC08C2F0E948117E3CFFE
:101AD00080E28C0F883048F4C77081E001C0880F25
:101AE000CA95EAF70E940518D6CF8BE58C0F833094
:101AF00078F4C53A29F0C63A31F482E890E005C09E
:101B000081E890E002C083E890E0CF910C940D0C46
:101B100088E58C0F833108F064C0C83A39F1C93ABE
:101B200041F1CA3A49F1CB3A51F1CC3A59F1CD3AA7
:101B300061F1C03B69F1CE3A71F1CF3A79F1C13B25
:101B400081F1C23B89F1C33B91F1C43B99F1C53BA3
:101B5000A1F1C63BA9F1C73BB1F1C83BB9F1C93B03
:101B6000C1F1CA3BC9F58AE292E038C082EE90E04A
:101B700035C089EE90E032C08AEE90E02FC085EB50
:101B800090E02CC086EB90E029C087EB90E026C067
:101B90008CEC90E023C08DEC90E020C083E891E0D5
:101BA0001DC08AE891E01AC082E991E017C084E97B
:101BB00091E014C081E292E011C083E292E00EC095
:101BC00084E292E00BC085E292E008C086E292E0F7
:101BD00005C087E292E002C080E090E0CF910C94D3
:101BE000230CCF910895882309F44BC0823859F40F
:101BF0000E94EB0B81FF45C089E30E9481170E9480
:101C00003E1889E30CC0833871F40E94EB0B80FF0F
:101C100038C083E50E9481170E943E1883E50E9428
:101C2000C1170C943E18843859F40E94EB0B82FFC4
:101C300028C087E40E9481170E943E1887E4EFCFF6
:101C40009CEF980F913A58F390E2980F983050F427
:101C5000877091E001C0990F8A95EAF7892F0E9459
:101C60000B18DFCF9BE5980F933020F480E090E0D5
:101C70000C940D0C885A833120F480E090E00C9491
:101C8000230C0895882321F00E9405180C943E1817
:101C90000895882321F00E940B180C943E18089593
:101CA000CF92DF92EF92FF920F931F93CF93DF9328
:101CB000CDB7DEB728970FB6F894DEBF0FBECDBF05
:101CC0008C0185E0F801DE01119601900D928A9554
:101CD000E1F7F801D080E180F280258122952F7014
:101CE00083819481892B39F0FFEFEF1206C081E0E8
:101CF000DF1203C003C081E001C080E080FD77C334
:101D0000FF2021F02F830E94B7042F81D982EA821D
:101D100089819A812F830E943F179E8388870E9422
:101D20003E170E9411164E81E42FE295EF70F0E00D
:101D3000E05AFF4F2F8168850C943422842F807FD6
:101D4000142F1F70882311F01295107FFF2059F077
:101D5000112309F450C2812F68870E9415180E9430
:101D60003E18688548C2862F0E94F30D112309F49E
:101D70003EC3812F0E941B1828960FB6F894DEBF31
:101D80000FBECDBFDF91CF911F910F91FF90EF90CC
:101D9000DF90CF900C943E18842F807F942F9F70FB
:101DA000E92E803219F0E29480EFE822662319F0E0
:101DB000613001F129C0FF20A9F08E2D222349F1C5
:101DC000213039F528960FB6F894DEBF0FBECDBF8F
:101DD000DF91CF911F910F91FF90EF90DF90CF9007
:101DE0000C942518222319F0213009F400C30E9415
:101DF00028182CC0FF20E9F0263008F0F8C20E9415
:101E000002188E2129F022C0FF20F1F0211115C007
:101E10008E2D28960FB6F894DEBF0FBECDBFDF9192
:101E2000CF911F910F91FF90EF90DF90CF900C9486
:101E3000420E253008F0DBC209C0F801858180FF21
:101E4000DAC18F708583E4CF2111E9C18E2D57C18E
:101E5000242F26952695237030E02115310521F099
:101E60002130310551F0C3C2FF2021F0862F942F7D
:101E700093708DC280E090E08AC2FF2021F0862F0F
:101E8000942F937002C080E090E028960FB6F894EB
:101E9000DEBF0FBECDBFDF91CF911F910F91FF909D
:101EA000EF90DF90CF900C94230C862FFF2019F039
:101EB0000E94AA1C02C00E94121D28960FB6F89418
:101EC000DEBF0FBECDBFDF91CF911F910F91FF906D
:101ED000EF90DF90CF900C94971D842F837009F0C2
:101EE00076C0F11084C2262F229526952770220FE6
:101EF000220F862F8F70C82ED12CE12CF12C022EB0
:101F000004C0CC0CDD1CEE1CFF1C0A94D2F764FF4D
:101F100010C06FE070E080E090E004C0660F771FB3
:101F2000881F991F2A95D2F7609570958095909596
:101F300003C060E070E0CB01242F26952695237026
:101F4000422F50E042305105D1F04330510559F154
:101F50006C297D298E299F294130510541F1289610
:101F60000FB6F894DEBF0FBECDBFDF91CF911F91AA
:101F70000F91FF90EF90DF90CF900C9436166C2964
:101F80007D298E299F2928960FB6F894DEBF0FBEB3
:101F9000CDBFDF91CF911F910F91FF90EF90DF9018
:101FA000CF900C9450160E943616C701B6012896A1
:101FB0000FB6F894DEBF0FBECDBFDF91CF911F915A
:101FC0000F91FF90EF90DF90CF900C941C16FF20A4
:101FD00019F0842F817001C08695882309F407C207
:101FE000262F229526952770220F220F862F8F707D
:101FF000C82ED12CE12CF12C022E04C0CC0CDD1CFF
:10200000EE1CFF1C0A94D2F764FF10C06FE070E072
:1020100080E090E004C0660F771F881F991F2A9503
:10202000D2F7609570958095909503C060E070E060
:10203000CB01242F269526952370422F50E0423065
:102040005105D1F04330510559F16C297D298E2974
:102050009F294130510541F128960FB6F894DEBF13
:102060000FBECDBFDF91CF911F910F91FF90EF90E9
:10207000DF90CF900C940A176C297D298E299F2917
:1020800028960FB6F894DEBF0FBECDBFDF91CF917B
:102090001F910F91FF90EF90DF90CF900C94241739
:1020A0000E940A17C701B60128960FB6F894DEBF42
:1020B0000FBECDBFDF91CF911F910F91FF90EF9099
:1020C000DF90CF900C94F016603F49F118F4603E19
:1020D00048F48CC0623F09F451C0E0F1633F09F459
:1020E00061C084C0162F1F70842F8F71FF2021F0D4
:1020F0000E948916812F8DCE0E94AA16812F2896C4
:102100000FB6F894DEBF0FBECDBFDF91CF911F9108
:102110000F91FF90EF90DF90CF900C94490EFF202D
:10212000A9F0253008F063C1842F8F7128960FB66F
:10213000F894DEBF0FBECDBFDF91CF911F910F91FD
:10214000FF90EF90DF90CF900C94CF16263008F0E0
:102150004EC1EACFFF20A1F0842F8F7128960FB6D1
:10216000F894DEBF0FBECDBFDF91CF911F910F91CD
:10217000FF90EF90DF90CF900C948916FF2061F3D1
:10218000842F8F7128960FB6F894DEBF0FBECDBF97
:10219000DF91CF911F910F91FF90EF90DF90CF9043
:1021A0000C94AA16FF2091F0842F8F7128960FB6F9
:1021B000F894DEBF0FBECDBFDF91CF911F910F917D
:1021C000FF90EF90DF90CF900C94741628960FB686
:1021D000F894DEBF0FBECDBFDF91CF911F910F915D
:1021E000FF90EF90DF90CF900C946A16FF20A1F043
:1021F000222309F4B1CF862F28960FB6F894DEBFBC
:102200000FBECDBFDF91CF911F910F91FF90EF9047
:10221000DF90CF900C942B0D222309F4B1CF862FA1
:1022200028960FB6F894DEBF0FBECDBFDF91CF91D9
:102230001F910F91FF90EF90DF90CF900C94F30DD2
:102240004F70C8010E949C1928960FB6F894DEBF03
:102250000FBECDBFDF91CF911F910F91FF90EF90F7
:10226000DF90CF900C949115F110C1C0942F9F7006
:10227000492F50E04230510509F440C0BCF44115EB
:10228000510561F14130510509F0B1C028960FB6F2
:10229000F894DEBF0FBECDBFDF91CF911F910F919C
:1022A000FF90EF90DF90CF900C948E20433051053B
:1022B000A9F14430510509F09AC0862F28960FB62F
:1022C000F894DEBF0FBECDBFDF91CF911F910F916C
:1022D000FF90EF90DF90CF900C94E22028960FB6FD
:1022E000F894DEBF0FBECDBFDF91CF911F910F914C
:1022F000FF90EF90DF90CF900C94772028960FB648
:10230000F894DEBF0FBECDBFDF91CF911F910F912B
:10231000FF90EF90DF90CF900C94AA2028960FB6F4
:10232000F894DEBF0FBECDBFDF91CF911F910F910B
:10233000FF90EF90DF90CF900C94BD20942F9F7072
:10234000892F90E082309105A1F02CF4009779F16B
:10235000019739F04CC08330910581F0049799F0D2
:1023600046C0FF2019F084E890E011C085E890E0B5
:102370000EC0FF20D9F386E890E009C0FF20B1F33A
:1023800087E890E004C0FF2089F388E890E0289671
:102390000FB6F894DEBF0FBECDBFDF91CF911F9176
:1023A0000F91FF90EF90DF90CF900C940D0CFF20D9
:1023B000F1F09091DD0194FB882780F921E08227DC
:1023C00080FB94F99093DD0112C04F70C8012896EC
:1023D0000FB6F894DEBF0FBECDBFDF91CF911F9136
:1023E0000F91FF90EF90DF90CF900C9463022896AE
:1023F0000FB6F894DEBF0FBECDBFDF91CF911F9116
:102400000F91FF90EF90DF90CF9008950E942218D7
:102410000E94F4170E943E180E94431E0E94971DBE
:1024200080E090E00E940D0C80E090E00C94230C82
:102430000E9412180C9406120E943F17292F229511
:102440002F7030E02C3031054CF42A3031056CF41B
:10245000225031092230310590F407C02C3031056B
:1024600051F02F30310539F00AC0803E10F0803F26
:1024700031F481E0089593FB882780F9089580E086
:102480000895CF93DF9300D000D01F92CDB7DEB771
:102490000F900F900F900F900F90DF91CF910895B4
:1024A000CF93DF9300D000D000D0CDB7DEB7269613
:1024B0000FB6F894DEBF0FBECDBFDF91CF91089568
:1024C0001F93CF93DF93C091790116E080917A0139
:1024D000C81799F0D0E01C9FF0011D9FF00D11244A
:1024E000E558FE4F408151816281738184819581DD
:1024F0000E9450122196C770E9CFDF91CF911F91B2
:1025000008954091AB015091AC016091AD01709183
:10251000AE018091AF019091B0010C945012CF9315
:102520008091B00182958F7009F05FC08091AD01FC
:10253000882309F45AC020917901A0917A01609111
:10254000AB017091AC018091AE019091AF0131E08F
:102550006F3F09F030E0B32FC6E02A1709F445C0F9
:10256000009721F07F3F21F44B2F03C041E001C0D1
:1025700040E030E040FD35C0C29FF001C39FF00D48
:102580001124E558FE4F418174132BC04081641320
:1025900028C04281411125C0438154814817590701
:1025A00010F441505109481B590B483C5105C8F4DF
:1025B0008091B0018F7080618093B00186E0829F2E
:1025C000F001839FF00D1124E058FE4F80818F7041
:1025D000806180838BEA91E00E94500ECF910C9431
:1025E00060122F5F3F4F2770B8CFCF910895CF92E1
:1025F000DF92EF92FF920F931F93CF93DF93CDB7AC
:10260000DEB762970FB6F894DEBF0FBECDBF8C0168
:1026100085E0F801DE011D9601900D928A95E1F7A3
:10262000D8014C9111965C91119712966C9112976A
:102630001396ED90FC9014977091AB01E091AC0172
:102640002091AE013091AF012115310531F0EF3FFE
:1026500031F481E07F3F19F403C081E001C080E0E4
:10266000B82FB170CB2E80FD6CC1D090AD01DD20B4
:1026700009F4F5C0F091B001E216F30638F0C70195
:10268000821B930B883C910548F09BC020953095A8
:102690002E0D3F1D283C310508F093C08F2F807F01
:1026A00009F052C0E51314C0741312C0D62E611184
:1026B0000FC0FF70F061F093B0010E9481128BEAAD
:1026C00091E00E94500E8091B001F80185836CC1A9
:1026D000EF2831F05F3F31F481E04F3F19F403C040
:1026E00081E001C080E080FD03C081E0862701C059
:1026F00080E0F82FF170FF2E80FF1CC080917901DF
:1027000020917A0136E0821709F428C190E0389FC1
:10271000F001399FF00D1124E558FE4F71815713D8
:1027200006C07081471303C07281671303C001960E
:102730008770E9CFD62E662309F436C18091B001A7
:1027400081608093B00153C0E51308C0741306C0C4
:10275000611104C0D8011596FC93AEC04D875E8709
:102760008D859E856A8B0E941C126A89882329F1B7
:10277000D62E662311F12091B001822F82958F70A1
:1027800090E002970CF460C08091AB019091AC0195
:1027900098878F831986FB86EA862C87CE01079659
:1027A00051C0E51731F14D875E878D859E856A8B17
:1027B0000E941C126A8981112EC0C8010E94500E0D
:1027C000A4C08F2F807F69F77E2DF98AE88A8989D6
:1027D0000E9441128BEA91E00E94500EEBEAF1E078
:1027E00086E0DF011D928A95E9F70E948112D12CC3
:1027F000DBC07413D8CF6111D6CFD8011596FC93E6
:10280000C8010E94500EEBEAF1E086E0DF011D9264
:102810008A95E9F7C9C0D62E662379F22091B001D6
:10282000822F82958F7090E0029774F08091AB01B7
:102830009091AC019A8389831B82FD82EC822E8366
:10284000CE0101960E94500E86E0F801ABEAB1E09D
:1028500001900D928A95E1F70E948F126FC0E216E7
:10286000F30628F0C701821B930B9C0104C020953E
:1028700030952E0D3F1D283C310508F052C0D62E54
:10288000662309F49ACFE5132CC074132AC08091F3
:10289000B00180FD1DC0982F92959F70C9F0D8019E
:1028A00015968C9315979F3039F09F5F9295907F86
:1028B0008F70892B15968C93C8010E94500E86E06C
:1028C000F801ABEAB1E001900D928A95E1F736C0CC
:1028D00086E0F801ABEAB1E001900D928A95E1F74C
:1028E00063C04D875E878D859E850E941C1288235C
:1028F00079F086E0F801ABEAB1E001900D928A959B
:10290000E1F70E948F120E948112DD24D3944CC003
:102910008091B00181608093B001C8010E94500E87
:1029200043C07E2DF98AE88A89890E944112EBEA28
:10293000F1E086E0DF011D928A95E9F70E9481129D
:1029400033C0662309F439CF4D875E878D859E8518
:102950000E941C12882309F430CFCBCF4D875E87AD
:102960008D859E850E943F17292F22952F7030E07C
:10297000223031052CF49F7041F0811106C00CC04B
:10298000243031052CF49F7049F4805E883020F0AB
:10299000C8010E94500ECF2CDC2C06C0D801159621
:1029A0009C91907F91F7F8CF8D2D62960FB6F89499
:1029B000DEBF0FBECDBFDF91CF911F910F91FF9072
:1029C000EF90DF90CF9008951F93CF93DF93CDB713
:1029D000DEB72C970FB6F894DEBF0FBECDBF4F8386
:1029E000588769877A878B879C87CE0107960E94D4
:1029F000F7128823C1F02F8138858A859B85892B22
:102A000031F03F3F11F080E003C02F3FE1F781E05C
:102A1000811147C04F81588569857A858B859C8552
:102A20000E9450123EC086E0FE013796DE011196EC
:102A300001900D928A95E1F7FF81E8854A855B85D3
:102A40004115510531F0EF3F31F481E0FF3F19F4BA
:102A500003C081E001C080E080FD23C020917A01A5
:102A600030E0C9010196877099276091790170E083
:102A700086179707F1F1F983EA835D834C8396E02B
:102A8000929FD001939FB00D1124A558BE4FFE0117
:102A9000319601900D929A95E1F780937A010E9408
:102AA000601216E08091790190917A01891779F18D
:102AB000189FC001112485589E4F0E94F712882349
:102AC00031F1E09179011E9FF0011124E558FE4F8C
:102AD0004081518162817381848195810E9450126D
:102AE0008091790190E00196877099278093790110
:102AF000D9CF0E94181210927A0110927901EBEA54
:102B0000F1E086E0DF011D928A95E9F7CACF2C96A5
:102B10000FB6F894DEBF0FBECDBFDF91CF911F91EE
:102B20000895EF92FF920F931F93CF93DF93FC01D1
:102B3000009709F46FC0F12CEE24E394EF01219685
:102B40008491843740F4843008F055C0813081F09E
:102B5000823021F15FC0853709F447C0C0F19CE79E
:102B6000980F903708F056C08F770E94F30D45C03C
:102B70008F010E5F1F4FFE01849190E2980F9830F5
:102B800050F48770FE2D01C0FF0F8A95EAF78F2F52
:102B90000E94151815C00E942B0D14C08F010E5FE6
:102BA0001F4FFE01849190E2980F983068F487706F
:102BB000FE2D01C0FF0F8A95EAF78F2F0E941B1888
:102BC0000E943E18E80119C00E94F30DFBCFCF010F
:102BD0000296FE01C491CC2361F0EFE9FFE031974A
:102BE000F1F700C00000C150F6CFCF010296FE0100
:102BF000F490EC0102C00E942B0D8F2D882341F030
:102C0000EFE9FFE03197F1F700C000008150F6CF07
:102C1000FE0194CFDF91CF911F910F91FF90EF9024
:102C2000089508956093B5017093B6018093B7013C
:102C30009093B8010C9406120F931F930091B50165
:102C40001091B6012091B7013091B801062B172BD6
:102C5000282B392B0093B5011093B6012093B701AF
:102C60003093B8011F910F910C9406120F931F938C
:102C70000091B5011091B6012091B7013091B801D2
:102C800006231723282339230093B5011093B60197
:102C90002093B7013093B8011F910F910C94061245
:102CA0000F931F930091B5011091B6012091B701C8
:102CB0003091B80106271727282739270093B50137
:102CC0001093B6012093B7013093B8011F910F9173
:102CD0000C9406121092B1011092B2011092B3013D
:102CE0001092B4010C94061241E050E060E070E0F4
:102CF00004C0440F551F661F771F8A95D2F7409373
:102D0000B1015093B2016093B3017093B4010C947C
:102D1000061241E050E060E070E004C0440F551F2F
:102D2000661F771F8A95D2F78091B1019091B20109
:102D3000A091B301B091B401842B952BA62BB72B96
:102D40008093B1019093B201A093B301B093B40109
:102D50000C94061241E050E060E070E004C0440FC3
:102D6000551F661F771F8A95D2F74095509560953D
:102D700070958091B1019091B201A091B301B09191
:102D8000B40184239523A623B7238093B1019093A4
:102D9000B201A093B301B093B4010C94061241E0C8
:102DA00050E060E070E004C0440F551F661F771FBD
:102DB0008A95D2F78091B1019091B201A091B301AF
:102DC000B091B40184279527A627B7278093B10136
:102DD0009093B201A093B301B093B4010C94061286
:102DE0000F931F930091B1011091B2012091B30193
:102DF0003091B401062B172B282B392B0093B101EE
:102E00001093B2012093B3013093B4011F910F913D
:102E10000C9406120F931F930091B1011091B2010F
:102E20002091B3013091B4010623172328233923BD
:102E30000093B1011093B2012093B3013093B40118
:102E40001F910F910C9406120F931F930091B101E3
:102E50001091B2012091B3013091B40106271727D8
:102E6000282739270093B1011093B2012093B301B1
:102E70003093B4011F910F910C9406120895CF92D4
:102E8000DF92EF92FF920F931F93CF93DF93EC01AA
:102E9000C090B501D090B601E090B701F090B801B4
:102EA0008091B1019091B201A091B301B091B401B0
:102EB000C82AD92AEA2AFB2A0FE110E0B701A601A5
:102EC000002E04C076956795579547950A94D2F7DA
:102ED00040FF07C0BE01802F0E9429198130910553
:102EE00039F40150110950F7BE0180E00E94291900
:102EF000DF91CF911F910F91FF90EF90DF90CF90D6
:102F0000089590910E019923D9F090910F01992382
:102F1000B9F0982F9695969596959F3088F5E09103
:102F20001001F0911101E90FF11D877021E030E0EF
:102F300001C0220F8A95EAF78181822B818308954F
:102F4000409110015091110120E030E09FEFFA0113
:102F5000E20FF31F6281681799F09F3F19F4611126
:102F600001C0922F2F5F3F4F2E30310581F79F3FD9
:102F700039F0FA01E90FF11D97FDFA958283089562
:102F8000089590910E019923E1F090910F019923FA
:102F9000C1F0982F9695969596959F3020F5E091E3
:102FA0001001F0911101E90FF11D877021E030E06F
:102FB00001C0220F8A95EAF7209581812823218379
:102FC0000895409110015091110120E030E0FA0184
:102FD000E20FF31F9281981301C012822F5F3F4FBF
:102FE0002E303105A1F7089581E090E0E0911001C5
:102FF000F0911101E80FF91F1082019680319105BF
:10300000A9F708958091CB0108959091CB01982B59
:103010009093CB01089580959091CB019823909344
:10302000CB0108951092CB0108959091CA01982B7D
:103030009093CA01089580959091CA019823909326
:10304000CA0108951092CA0108958093B9010895A4
:103050001092B9010895409110015091110120E0A2
:1030600030E080E0FA01E20FF31F918191118F5F50
:103070002F5F3F4F2F303105A9F70895E0911001E0
:10308000F09111018091CB018083E0911001F091CA
:10309000110180819091CA01892B80839091B9019F
:1030A000992361F0E0911001F09111018081892B49
:1030B00080830E942B1881111092B9018091100118
:1030C000909111010C94F70BCF93DF938D3B60F43B
:1030D000883A90F5853A38F5843010F5813009F05A
:1030E0006DC0C1E0D0E0B1C0883E98F4803EC0F42D
:1030F0008F3B09F063C00E9418122FEF80E792E027
:10310000215080409040E1F700C000000E946C1AFE
:103110009CC0803F08F452C0C82FD0E0D06595C055
:10312000C82FD0E092C0853A09F44BC0863A09F026
:103130004BC0C2E8D0E489C0883A09F448C0893A53
:1031400009F448C08A3A09F448C08B3A09F448C0E7
:103150008C3A09F448C08B3B09F448C08C3B09F415
:1031600048C08D3A09F448C0803B09F448C08E3A03
:1031700009F448C08F3A09F448C0813B09F448C0BB
:10318000823B09F448C0833B09F448C0843B09F4FE
:1031900048C0853B09F448C0863B09F448C0873BDA
:1031A00009F448C0883B09F448C0893B09F448C089
:1031B0008A3B09F048C0CAE2D6E447C0C0E0D0E08C
:1031C00044C0C1E8D0E441C0C3E8D0E43EC0C2EE90
:1031D000D4E43BC0C9EED4E438C0CAEED4E435C070
:1031E000C5EBD4E432C0C6EBD4E42FC0C3EBD4E4C7
:1031F0002CC0C4EBD4E429C0C7EBD4E426C0CCEC8B
:10320000D4E423C0CDECD4E420C0C3E8D5E41DC091
:10321000CAE8D5E41AC0C2E9D5E417C0C4E9D5E4C8
:1032200014C0C1E2D6E411C0C3E2D6E40EC0C4E2C9
:10323000D6E40BC0C5E2D6E408C0C6E2D6E405C0B9
:10324000C7E2D6E402C0C0E0D4E4CE01DF91CF9162
:1032500008950E948A02803EA8F4803C00F58133E4
:1032600009F45CC038F4893209F452C08A3209F496
:103270005BC05FC08933B1F08238A1F0853309F4B7
:1032800041C057C0833E41F128F4803E99F0823E10
:10329000B9F04FC0863E31F1873E71F14AC00E94BD
:1032A000990208959091DD0190FD02C091FF41C007
:1032B00080EE3FC08091DD0180FFFACF89E339C005
:1032C0008091DD0182FF0CC08091DD0184FF02C08E
:1032D00080E02FC083EE2DC08091DD0182FFF4CF0E
:1032E00082EE27C08091DD0183FF0AC08091DD015D
:1032F00084FDEECF87EE1DC08091DD0183FFF6CF08
:1033000086EE17C08091DD0185FF06C089E211C0FD
:103310008091DD0185FFFACF85E30BC08091DD014F
:1033200086FF06C08AE205C08091DD0186FFFACFE4
:1033300081E30E946418089580E090E008958091F0
:10334000E201843009F11092CD0120E488E190E09F
:103350000FB6F894A895809360000FBE209360008C
:1033600083B7817F846083BF83B7816083BF789494
:10337000889583B78E7F83BF88E10FB6F8948093DA
:103380006000109260000FBE089508950895CF93D5
:103390000E94C5190E94DB020E94C619C0E08C2F52
:1033A0000E94D303892B29F4CF5FC630C1F780E098
:1033B00001C081E0CF9108950E9418120C946620FC
:1033C0001F920F920FB60F9211248F939F93AF937A
:1033D000BF938091CD01811113C08091CE01909156
:1033E000CF01A091D001B091D1014196A11DB11D95
:1033F0008093CE019093CF01A093D001B093D101DF
:10340000BF91AF919F918F910F900FBE0F901F9022
:10341000189582E084BD93E095BD9AEF97BD8093A7
:103420006E0008952FB7F8948091CE019091CF014E
:10343000A091D001B091D1012FBF0895CF92DF921A
:10344000EF92FF920F931F932FB7F8944091CE0104
:103450005091CF016091D0017091D1012FBF6A01CD
:103460007B01EE24FF248C0120E030E0C016D10661
:10347000E206F30610F441505109481B590BCA01EA
:103480001F910F91FF90EF90DF90CF9008951F92C2
:103490000F920FB60F9211248F939F93AF93BF9308
:1034A0008091CE019091CF01A091D001B091D10136
:1034B0000196A11DB11D8093CE019093CF01A093E1
:1034C000D001B093D101BF91AF919F918F910F9097
:1034D0000FBE0F901F9018950E940E09F8942FEFC1
:1034E00087EA91E6215080409040E1F700C000005B
:1034F00087E090EBDC018093EC019093ED01A093C9
:10350000EE01B093EF012CE088E190E00FB6F89463
:10351000A895809360000FBE20936000FFCFCF92EC
:10352000DF92EF92FF920F931F93CF93DF93C82EFA
:10353000D12C01E010E08D2D0E94D3037C01C0E06E
:10354000D0E098010C2E02C0220F331F0A94E2F73C
:103550002E213F21232B29F42196CF30D10589F745
:1035600009C06C2F7D2D80E00E948A02C812F4CF22
:1035700081E005C0D39486E0D812DDCF80E0DF91F2
:10358000CF911F910F91FF90EF90DF90CF90089512
:10359000CF93C82F8CE20E948F1A882321F08C2FA2
:1035A000CF910C948F1A80E0CF910895CF930E9411
:1035B0000D1C811102C00E94EE1BC5E6C15049F0EE
:1035C0000E94DB028FE39CE90197F1F700C0000045
:1035D000F5CF89E20E94C81A8111FEC08AE20E94DA
:1035E000C81A81110E94EE1B85E00E94C81A811141
:1035F0000E946C1A0E94181C8093CC0187E00E94E4
:10360000C81A882399F18BE10E94C81A882351F0C7
:103610009091CC0191FB882780F921E0822780FBE3
:1036200091F922C08EE00E94C81A882351F090912F
:10363000CC0192FB882780F921E0822780FB92F958
:1036400013C080E10E94C81A9091CC01882341F0F8
:1036500093FB882780F921E0822780FB93F904C03F
:10366000892F809580FB90F99093CC010E941C1CBF
:103670008093DD0180EE0E94C81A882341F080917A
:10368000DD01982F909590FB80F98093DD0189E30F
:103690000E94C81A882359F09091DD0191FB882778
:1036A00080F921E0822780FB91F99093DD0182EE81
:1036B0000E94C81A882359F09091DD0192FB882757
:1036C00080F921E0822780FB92F99093DD0186EE5C
:1036D0000E94C81A882359F09091DD0193FB882736
:1036E00080F921E0822780FB93F99093DD0183EE3E
:1036F0000E94C81A882359F09091DD0194FB882715
:1037000080F921E0822780FB94F99093DD0185E325
:103710000E94C81A882359F09091DD0195FB8827F3
:1037200080F921E0822780FB95F99093DD0181E308
:103730000E94C81A882359F09091DD0196FB8827D2
:1037400080F921E0822780FB96F99093DD0181E1E9
:103750000E94C81A882359F09091DD0197FB8827B1
:1037600080F921E0822780FB97F99093DD01809119
:10377000DD0187FB882780F980930F0187E20E9493
:10378000C81AC82F8EE10E94C81A8111C2608FE149
:103790000E94C81A8111C46080E20E94C81A811177
:1037A000C86081E20E94C81A8111C06182E20E9451
:1037B000C81A8111C06283E20E94C81A8111C064D4
:1037C00084E20E94C81A8111C0686C2F70E080E00A
:1037D00090E0CF910C941216CF9108956DEE7EEF8C
:1037E00080E090E00E946A2260E082E090E00E9427
:1037F0005C2260E083E090E00E945C2260E084E074
:1038000090E00E945C2260E085E090E00E945C22F3
:1038100060E086E090E00C945C2280E090E00E9402
:10382000562221E08D3E9E4F09F020E0822F089520
:1038300082E090E00C944E2284E090E00C944E22C2
:1038400086E090E00C944E22682F86E090E00C9485
:103850005C228091D40180FF0BC06091150185E04E
:10386000689FB001112475956795759567952AC075
:1038700081FF09C06091150185E0689FB0011124A6
:10388000759567951FC082FF07C06091150185E09F
:10389000689FB001112416C04091D5014423C9F09E
:1038A00060911401461788F72091150185E0289F43
:1038B00090011124429FC001439F900D112470E09C
:1038C0000E9420226038710540F46115710539F0BD
:1038D00002C065E070E0862F08958FE7089581E0CB
:1038E00008958091D40180FF08C06091130170E0B9
:1038F000759567957595679521C081FF06C06091A4
:10390000130170E07595679519C082FF04C060913E
:10391000130170E010C08091D5018823C1F060913F
:1039200012018617A0F790911301989FC0011124EE
:1039300070E00E9420226038710528F4611571053D
:1039400021F0862F08958FE7089581E0089561E0C2
:1039500070E0F4CF803F21F40E94291C819504C0BF
:10396000813F29F40E94291C8093D8010895823F49
:1039700021F40E94291C819504C0833F29F40E94F0
:10398000291C8093D7010895893F19F40E94711C66
:1039900005C08A3F31F40E94711C81958093D90142
:1039A00008958B3F21F40E94711C819504C08C3FC7
:1039B00029F40E94711C8093DA010895843F21F458
:1039C0008091D601816017C0853F21F48091D60196
:1039D000826011C0863F21F48091D60184600BC0C3
:1039E000873F21F48091D601886005C0883F31F47B
:1039F0008091D60180618093D60108958D3F21F496
:103A00008091D40181600BC08E3F21F48091D4015C
:103A1000826005C08F3F29F48091D4018460809337
:103A2000D4010895803F39F48091D80187FF6CC09C
:103A30001092D80169C0813F29F48091D8011816ED
:103A4000BCF362C09091D701823F29F497FF5CC01C
:103A50001092D70159C0833F19F41916CCF354C002
:103A6000893F41F48091D90118160CF04DC0109295
:103A7000D9014AC08A3F29F48091D90187FF44C007
:103A8000F6CF8B3F39F48091DA0187FF3DC0109269
:103A9000DA013AC08C3F29F48091DA011816BCF3A0
:103AA00033C0843F21F48091D6018E7F17C0853FBB
:103AB00021F48091D6018D7F11C0863F21F4809141
:103AC000D6018B7F0BC0873F21F48091D601877F81
:103AD00005C0883F31F48091D6018F7E8093D60156
:103AE00013C08D3F21F48091D4018E7F0BC08E3F97
:103AF00021F48091D4018D7F05C08F3F29F48091FE
:103B0000D4018B7F8093D4018091D70181110EC0A5
:103B10008091D80181110AC08091D901811106C01C
:103B20008091DA01811102C01092D501089586EDCD
:103B300091E00E94020C0E94121A9093D30180938C
:103B4000D20108951F93CF93DF938091D20190917A
:103B5000D3010E941E1A4091D501442321F02091E7
:103B6000160130E006C0209117015AE0259F900110
:103B700011248217930708F482C08091D701109115
:103B8000D801D091D901C091DA01811107C011117A
:103B900005C0D11103C0CC2309F471C04F3F19F007
:103BA0004F5F4093D501181624F40E94291C80937E
:103BB000D7018091D70187FF05C00E94291C8195FC
:103BC0008093D701111624F40E94291C8093D801F8
:103BD0008091D80187FF05C00E94291C81958093A0
:103BE000D8016091D701662339F11091D8011123D2
:103BF00019F1772767FD7095872F972F0E94312144
:103C000023E333E343E35FE30E9495210E94FE2018
:103C10006093D701612F772767FD7095872F972FC6
:103C20000E94312123E333E343E35FE30E949521C4
:103C30000E94FE206093D8011D1624F40E94711C7E
:103C40008093D9018091D90187FF05C00E94711C22
:103C500081958093D9011C1624F40E94711C8093D5
:103C6000DA018091DA0187FF05C00E94711C8195FD
:103C70008093DA01DF91CF911F910C94971DDF9112
:103C8000CF911F910895E6EDF1E085E0DF011D92EF
:103C90008A95E9F71092D5011092D40108958330E6
:103CA00081F128F4813059F08230D1F008958530C7
:103CB00009F449C0B8F1863009F456C0089520913E
:103CC0001701862F90E0820F911D8F3F910520F400
:103CD000620F6093170108958FEF80931701089585
:103CE00020911601862F90E0820F911D8F3F910544
:103CF00020F4620F6093160108958FEF80931601F0
:103D0000089520911501862F90E0820F911D8F3F1D
:103D1000910520F4620F6093150108958FEF809351
:103D20001501089520911401862F90E0820F911DB6
:103D30008F3F910520F4620F6093140108958FEF77
:103D400080931401089520911301862F90E0820F33
:103D5000911D8F3F910520F4620F60931301089528
:103D60008FEF80931301089520911201862F90E028
:103D7000820F911D8F3F910520F4620F6093120115
:103D800008958FEF809312010895833011F128F484
:103D9000813049F0823091F00895853081F120F131
:103DA0008630C1F1089580911701681720F4861BB1
:103DB00080931701089510921701089580911601BC
:103DC000681720F4861B809316010895109216013F
:103DD000089580911501681720F4861B80931501C2
:103DE000089510921501089580911401681720F428
:103DF000861B8093140108951092140108958091F8
:103E00001301681720F4861B809313010895109204
:103E10001301089580911201681720F4861B809386
:103E2000120108951092120108958B3109F46DC0AA
:103E300000F58E3009F473C068F4873009F458C077
:103E400018F48630E9F133C0883099F18B3009F4E9
:103E5000A2C02DC0813109F47DC020F4803109F465
:103E600068C025C0863109F496C0893109F493C031
:103E70001EC0853309F477C060F4873209F473C03B
:103E800020F48E3108F074C012C0893209F46BC07E
:103E90000EC0833438F48A3308F06CC0883309F4D8
:103EA0007AC005C0833409F45EC0883499F080E09C
:103EB00008950E94181C0E941C1C0E94201C6BC0AC
:103EC0008091CC01817F8E7F8093CC0181E08093B3
:103ED000DB0108950E9418122FEF83ED90E321502B
:103EE00080409040E1F700C000000E946C1A53C06F
:103EF0009091CC01892F817090FF03C0917F9E7FAC
:103F000026C091609093CC0146C09091CC0191FB6A
:103F1000882780F921E0822780FB91F913C09091D6
:103F2000CC0192FB882780F921E0822780FB92F95F
:103F300009C09091CC0193FB882780F921E082276A
:103F400080FB93F99093CC01882329F191609093A1
:103F5000CC0108950E94181280910F0191E08927E9
:103F600080930F0118C061E070E080E090E00FC026
:103F700023EE01C027EC280F61E070E080E090E0C4
:103F800004C0660F771F881F991F2A95D2F70E94D9
:103F900012160E94181281E0089580E0089580E0D2
:103FA0000895CF93C82F8091DB01813069F018F01C
:103FB0008230B1F181C0A0911001B09111018C91BA
:103FC000823209F07BC007C0A0911001B0911101AD
:103FD0008C91823249F48C2F0E94CD1F81111DC01B
:103FE0008C2F0E94151F1AC08C2F0E94CF1F811189
:103FF00014C0C43179F048F4CB3079F0C03109F005
:1040000061C082E08093DB0108C0C93219F0C83377
:1040100021F058C01092DB0155C081E0817054C07E
:10402000C93291F120F5C43179F1B0F4C73009F00B
:1040300047C08EE18093170182E3809316018AE0E6
:104040008093150184E18093140188E0809313012B
:1040500088E28093120134C0CE51C63088F5EC2F2F
:10406000F0E0E45DFE4F80818093DC0129C0CE3416
:10407000E9F020F4CB3421F56AE013C0C13579F0C2
:10408000C235F1F461E00DC08091DC01882319F0A4
:104090001092DC0115C081E08093DB0115C061E066
:1040A00006C08091DC010E944F1E0AC06AE0809128
:1040B000DC010E94C51E04C01092DB0180E004C038
:1040C00081E002C080E0AACFCF9108950E940D1C2C
:1040D000811102C00E94EE1B0E94201C8093EB0104
:1040E00080FF02C0869501C080E00C940F0480918F
:1040F000EB01982F9695292F30E02C3031054CF4A8
:104100009F5F990F8170892B81608093EB010E94E2
:10411000241C8091EB0186950C940F048091EB0197
:10412000982F969591F09158990F8170892B8093D3
:10413000EB018E7F91E009F490E08091EB0190FB20
:1041400080F98093EB010E94241C8091EB018695FD
:104150000C940F048091EB01982F909590FB80F9BF
:104160008093EB010E94241C8091EB0180FF02C030
:10417000869501C080E00C940F043091EB01232F51
:1041800026952F5F2F77822F90E031700D972CF4BA
:10419000220F232B2093EB0102C03093EB0180917F
:1041A000EB018E7F91E009F490E08091EB0190FBB0
:1041B00080F98093EB010E94241C8091EB0186958D
:1041C0000C940F042091EB01922F96959827990F4C
:1041D000822F8170892B8093EB018E7F91E009F40F
:1041E00090E08091EB0190FB80F98093EB010E94BD
:1041F000241C8091EB0186950C940F0404D06894E4
:10420000B1118DC0089570D088F09F5790F0B92FEC
:104210009927B751A0F0D1F0660F771F881F991F1B
:104220001AF0BA95C9F712C0B13081F077D0B1E079
:10423000089574C0672F782F8827B85F39F0B93F89
:10424000CCF3869577956795B395D9F73EF490951D
:104250008095709561957F4F8F4F9F4F0895E8949B
:1042600009C097FB3EF490958095709561957F4FBE
:104270008F4F9F4F9923A9F0F92F96E9BB2793956C
:10428000F695879577956795B795F111F8CFFAF47C
:10429000BB0F11F460FF1BC06F5F7F4F8F4F9F4FAD
:1042A00016C0882311F096E911C0772321F09EE80B
:1042B000872F762F05C0662371F096E8862F70E071
:1042C00060E02AF09A95660F771F881FDAF7880F4B
:1042D0009695879597F9089557FD9058440F551F67
:1042E00059F05F3F71F04795880F97FB991F61F078
:1042F0009F3F79F087950895121613061406551FEF
:10430000F2CF4695F1DF08C0161617061806991F5A
:10431000F1CF86957105610508940895E894BB274F
:1043200066277727CB0197F908950BD078C069D01D
:1043300028F06ED018F0952309F05AC05FC0112400
:10434000EECFCADFA0F3959FD1F3950F50E0551F34
:10435000629FF001729FBB27F00DB11D639FAA27DA
:10436000F00DB11DAA1F649F6627B00DA11D661F29
:10437000829F2227B00DA11D621F739FB00DA11D4A
:10438000621F839FA00D611D221F749F3327A00D04
:10439000611D231F849F600D211D822F762F6A2FA0
:1043A00011249F5750408AF0E1F088234AF0EE0F25
:1043B000FF1FBB1F661F771F881F91505040A9F732
:1043C0009E3F510570F014C0AACF5F3FECF3983EBA
:1043D000DCF3869577956795B795F795E7959F5F99
:1043E000C1F7FE2B880F911D9695879597F9089533
:1043F00097F99F6780E870E060E008959FEF80EC98
:10440000089500240A94161617061806090608953A
:1044100000240A9412161306140605060895092EA0
:104420000394000C11F4882352F0BB0F40F4BF2B0F
:1044300011F460FF04C06F5F7F4F8F4F9F4F08954F
:1044400097FB072E16F4009407D077FD09D00E9441
:104450003A2207FC05D03EF4909581959F4F089530
:10446000709561957F4F0895EE0FFF1F0590F491B1
:10447000E02D0994AA1BBB1B51E107C0AA1FBB1F5B
:10448000A617B70710F0A61BB70B881F991F5A95E0
:10449000A9F780959095BC01CD010895F999FECFBB
:1044A00092BD81BDF89A992780B50895A8E1B0E042
:1044B00042E050E00C947122262FF999FECF1FBAEA
:1044C00092BD81BD20BD0FB6F894FA9AF99A0FBE3D
:1044D000019608950E945C22272F0C945D22DC0136
:1044E000CB01FC01F999FECF06C0F2BDE1BDF89AFF
:1044F000319600B40D9241505040B8F70895F894A9
:02450000FFCFEB
:10450200050101FF1305A0057D05490516050101F9
:10451200BA012808140A321E3F4D3639FB03AE0396
:1045220078033F03D202EB0204031D0301020304DA
:0645320005060708090060
:00000001FF
